{
  "contractName": "AccessControl",
  "abi": [
    {
      "inputs": [],
      "payable": false,
      "stateMutability": "nonpayable",
      "type": "constructor",
      "signature": "constructor"
    },
    {
      "constant": true,
      "inputs": [
        {
          "internalType": "address",
          "name": "",
          "type": "address"
        }
      ],
      "name": "authorisedDoctor",
      "outputs": [
        {
          "internalType": "bool",
          "name": "",
          "type": "bool"
        }
      ],
      "payable": false,
      "stateMutability": "view",
      "type": "function",
      "signature": "0xc75caf10"
    },
    {
      "constant": true,
      "inputs": [
        {
          "internalType": "string",
          "name": "",
          "type": "string"
        }
      ],
      "name": "authorisedPatient",
      "outputs": [
        {
          "internalType": "address",
          "name": "",
          "type": "address"
        }
      ],
      "payable": false,
      "stateMutability": "view",
      "type": "function",
      "signature": "0x5ea9de6c"
    },
    {
      "constant": true,
      "inputs": [],
      "name": "owner",
      "outputs": [
        {
          "internalType": "address",
          "name": "",
          "type": "address"
        }
      ],
      "payable": false,
      "stateMutability": "view",
      "type": "function",
      "signature": "0x8da5cb5b"
    },
    {
      "constant": false,
      "inputs": [
        {
          "internalType": "address",
          "name": "_doctorAddress",
          "type": "address"
        }
      ],
      "name": "addAuthorisedDoctor",
      "outputs": [],
      "payable": false,
      "stateMutability": "nonpayable",
      "type": "function",
      "signature": "0x25da1c77"
    },
    {
      "constant": false,
      "inputs": [
        {
          "internalType": "address",
          "name": "_doctorAddress",
          "type": "address"
        }
      ],
      "name": "removeAuthorisedDoctor",
      "outputs": [],
      "payable": false,
      "stateMutability": "nonpayable",
      "type": "function",
      "signature": "0x42d68838"
    }
  ],
  "bytecode": "0x608060405234801561001057600080fd5b50336000806101000a81548173ffffffffffffffffffffffffffffffffffffffff021916908373ffffffffffffffffffffffffffffffffffffffff16021790555060018060008060009054906101000a900473ffffffffffffffffffffffffffffffffffffffff1673ffffffffffffffffffffffffffffffffffffffff1673ffffffffffffffffffffffffffffffffffffffff16815260200190815260200160002060006101000a81548160ff0219169083151502179055506105b9806100d86000396000f3fe608060405234801561001057600080fd5b5060043610610074576000357c01000000000000000000000000000000000000000000000000000000009004806325da1c771461007957806342d68838146100bd5780635ea9de6c146101015780638da5cb5b146101fc578063c75caf1014610246575b600080fd5b6100bb6004803603602081101561008f57600080fd5b81019080803573ffffffffffffffffffffffffffffffffffffffff1690602001909291905050506102a2565b005b6100ff600480360360208110156100d357600080fd5b81019080803573ffffffffffffffffffffffffffffffffffffffff1690602001909291905050506103a5565b005b6101ba6004803603602081101561011757600080fd5b810190808035906020019064010000000081111561013457600080fd5b82018360208201111561014657600080fd5b8035906020019184600183028401116401000000008311171561016857600080fd5b91908080601f016020809104026020016040519081016040528093929190818152602001838380828437600081840152601f19601f8201169050808301925050505050505091929192905050506104a5565b604051808273ffffffffffffffffffffffffffffffffffffffff1673ffffffffffffffffffffffffffffffffffffffff16815260200191505060405180910390f35b6102046104ee565b604051808273ffffffffffffffffffffffffffffffffffffffff1673ffffffffffffffffffffffffffffffffffffffff16815260200191505060405180910390f35b6102886004803603602081101561025c57600080fd5b81019080803573ffffffffffffffffffffffffffffffffffffffff169060200190929190505050610513565b604051808215151515815260200191505060405180910390f35b60011515600160003373ffffffffffffffffffffffffffffffffffffffff1673ffffffffffffffffffffffffffffffffffffffff16815260200190815260200160002060009054906101000a900460ff1615151461034b576040517f08c379a00000000000000000000000000000000000000000000000000000000081526004018080602001828103825260298152602001806105346029913960400191505060405180910390fd5b60018060008373ffffffffffffffffffffffffffffffffffffffff1673ffffffffffffffffffffffffffffffffffffffff16815260200190815260200160002060006101000a81548160ff02191690831515021790555050565b6000809054906101000a900473ffffffffffffffffffffffffffffffffffffffff1673ffffffffffffffffffffffffffffffffffffffff163373ffffffffffffffffffffffffffffffffffffffff161461044a576040517f08c379a000000000000000000000000000000000000000000000000000000000815260040180806020018281038252602881526020018061055d6028913960400191505060405180910390fd5b6000600160008373ffffffffffffffffffffffffffffffffffffffff1673ffffffffffffffffffffffffffffffffffffffff16815260200190815260200160002060006101000a81548160ff02191690831515021790555050565b6002818051602081018201805184825260208301602085012081835280955050505050506000915054906101000a900473ffffffffffffffffffffffffffffffffffffffff1681565b6000809054906101000a900473ffffffffffffffffffffffffffffffffffffffff1681565b60016020528060005260406000206000915054906101000a900460ff168156fe596f7520617265204e6f7420617574686f726973656420746f204163636573732074686520646174614f7070732c20596f752077696c6c206e65656420746f20636f6e7461637420746865206f776e6572a265627a7a723158202177fc7e6bf8efb217b19ab0b66d7482d0ee85a99940ab4ae4a5bf1e1e5cdb1764736f6c63430005110032",
  "source": "// SPDX-License-Identifier: GPL-3.0\r\n\r\n// pragma solidity >=0.7.0;\r\n\r\npragma solidity 0.5.17;\r\n\r\ncontract AccessControl {\r\n    //Owner, the deployer adds the doctors into the database....\r\n    address public owner;\r\n\r\n    /**** \r\n    1. Stores the doctors addresses.\r\n    2. Considered as a database of the Doctors address\r\n    Address here stored are added by the contract owner only.\r\n    ****/\r\n\r\n    // address[] authorisedDoctors;\r\n    mapping(address => bool) public authorisedDoctor; //Created for easy check\r\n\r\n    /*****\r\n    This mapping makes sure that whenever a patient tries to access the records,\r\n    then he/she can view the records, though they will still not be able to add the records.\r\n    ******/\r\n    mapping(string => address) public authorisedPatient;\r\n\r\n    constructor() public {\r\n        owner = msg.sender;\r\n        // authorisedDoctors.push(owner);\r\n        authorisedDoctor[owner] = true;\r\n    }\r\n\r\n    /**** \r\n    Checks if the caller of the contract is owner or not?\r\n    If yes, then only proceed to the Function whatever you are doing.\r\n    ****/\r\n\r\n    modifier isOwner() {\r\n        require(\r\n            msg.sender == owner,\r\n            \"Opps, You will need to contact the owner\"\r\n        );\r\n        _;\r\n    }\r\n    /**** \r\n    Checks if the caller of the contract is Doctor or Patient?\r\n    If yes, then only proceed to the Function whatever you are doing.\r\n    ****/\r\n    //The address will be sent from metamask.\r\n    modifier onlyDoctor() {\r\n        require(\r\n            authorisedDoctor[msg.sender] == true,\r\n            \"You are Not authorised to Access the data\"\r\n        );\r\n        _;\r\n    }\r\n\r\n    /**** \r\n    Checks if the caller of the contract is patient or not?\r\n    If yes, then check if the patientId of that caller is correct or not. If correct then Good,\r\n    Otherwise show the error.\r\n    ****/\r\n\r\n    modifier isPatient(string memory _patientId) {\r\n        require(\r\n            authorisedPatient[_patientId] == msg.sender,\r\n            \"Ohho! You are not the genuine user, Try accessing your own record mate..\"\r\n        );\r\n        _;\r\n    }\r\n    // Special Modifier that check if the record access is being done by the doctor or patient?\r\n    modifier patientModifier(string memory _patientId) {\r\n        require(\r\n            authorisedDoctor[msg.sender] == true ||\r\n                authorisedPatient[_patientId] == msg.sender,\r\n            \"You Cannot The Records, You can only access your own records or, You need to be a doctor.\"\r\n        );\r\n        _;\r\n    }\r\n\r\n    /**** \r\n    Updates the doctorsAddress in the database of authorised doctors.\r\n    Along with this, check for the isOwner, if the caller is owner, then only it is allowed to Add the address.\r\n    Parameter passed -\r\n    _doctorAddress\r\n\r\n    Any other doctor can add a new doctor.\r\n    ****/\r\n    function addAuthorisedDoctor(address _doctorAddress) public onlyDoctor {\r\n        authorisedDoctor[_doctorAddress] = true;\r\n    }\r\n\r\n    /*****\r\n    RemoveAuthorisedDoctor - Removes the permission of the doctor that was previously assigned the permissions.\r\n    Parameter Passes - \r\n    _doctorAddress\r\n    Can only be removed by the Owner\r\n    *****/\r\n    function removeAuthorisedDoctor(address _doctorAddress) public isOwner {\r\n        authorisedDoctor[_doctorAddress] = false;\r\n    }\r\n}\r\n",
  "sourcePath": "C:\\Users\\Neeraj\\Desktop\\fetch folder\\Blockchain-Based-Medical-Health-Records\\src\\contracts\\AccessControl.sol",
  "compiler": {
    "name": "solc",
    "version": "0.5.17+commit.d19bba13.Emscripten.clang"
  },
  "schemaVersion": "3.0.1",
  "updatedAt": "2022-07-22T10:36:32.983Z",
  "devdoc": {
    "methods": {}
  },
  "userdoc": {
    "methods": {
      "addAuthorisedDoctor(address)": {
        "notice": "**  Updates the doctorsAddress in the database of authorised doctors. Along with this, check for the isOwner, if the caller is owner, then only it is allowed to Add the address. Parameter passed - _doctorAddress Any other doctor can add a new doctor.***"
      },
      "removeAuthorisedDoctor(address)": {
        "notice": "*** RemoveAuthorisedDoctor - Removes the permission of the doctor that was previously assigned the permissions. Parameter Passes -  _doctorAddress Can only be removed by the Owner****"
      }
    }
  }
}