{
  "contractName": "AccessControl",
  "abi": [
    {
      "inputs": [],
      "payable": false,
      "stateMutability": "nonpayable",
      "type": "constructor",
      "signature": "constructor"
    },
    {
      "constant": true,
      "inputs": [],
      "name": "owner",
      "outputs": [
        {
          "internalType": "address",
          "name": "",
          "type": "address"
        }
      ],
      "payable": false,
      "stateMutability": "view",
      "type": "function",
      "signature": "0x8da5cb5b"
    },
    {
      "constant": false,
      "inputs": [
        {
          "internalType": "address",
          "name": "_doctorAddress",
          "type": "address"
        }
      ],
      "name": "addAuthorisedDoctor",
      "outputs": [],
      "payable": false,
      "stateMutability": "nonpayable",
      "type": "function",
      "signature": "0x25da1c77"
    }
  ],
  "bytecode": "0x608060405234801561001057600080fd5b50336000806101000a81548173ffffffffffffffffffffffffffffffffffffffff021916908373ffffffffffffffffffffffffffffffffffffffff16021790555060016000809054906101000a900473ffffffffffffffffffffffffffffffffffffffff1690806001815401808255809150509060018203906000526020600020016000909192909190916101000a81548173ffffffffffffffffffffffffffffffffffffffff021916908373ffffffffffffffffffffffffffffffffffffffff160217905550506001600260008060009054906101000a900473ffffffffffffffffffffffffffffffffffffffff1673ffffffffffffffffffffffffffffffffffffffff1673ffffffffffffffffffffffffffffffffffffffff16815260200190815260200160002060006101000a81548160ff0219169083151502179055506102ce806101606000396000f3fe608060405234801561001057600080fd5b5060043610610053576000357c01000000000000000000000000000000000000000000000000000000009004806325da1c77146100585780638da5cb5b1461009c575b600080fd5b61009a6004803603602081101561006e57600080fd5b81019080803573ffffffffffffffffffffffffffffffffffffffff1690602001909291905050506100e6565b005b6100a461024c565b604051808273ffffffffffffffffffffffffffffffffffffffff1673ffffffffffffffffffffffffffffffffffffffff16815260200191505060405180910390f35b6000809054906101000a900473ffffffffffffffffffffffffffffffffffffffff1673ffffffffffffffffffffffffffffffffffffffff163373ffffffffffffffffffffffffffffffffffffffff161461018b576040517f08c379a00000000000000000000000000000000000000000000000000000000081526004018080602001828103825260288152602001806102726028913960400191505060405180910390fd5b60018190806001815401808255809150509060018203906000526020600020016000909192909190916101000a81548173ffffffffffffffffffffffffffffffffffffffff021916908373ffffffffffffffffffffffffffffffffffffffff160217905550506001600260008373ffffffffffffffffffffffffffffffffffffffff1673ffffffffffffffffffffffffffffffffffffffff16815260200190815260200160002060006101000a81548160ff02191690831515021790555050565b6000809054906101000a900473ffffffffffffffffffffffffffffffffffffffff168156fe4f7070732c20596f752077696c6c206e65656420746f20636f6e7461637420746865206f776e6572a265627a7a723158202073cd4c181b2638027c3cf4d6615920971dc669c439cd62354de743b52f01f164736f6c63430005110032",
  "source": "// SPDX-License-Identifier: GPL-3.0\r\n\r\n// pragma solidity >=0.7.0;\r\npragma solidity 0.5.17;\r\ncontract AccessControl{\r\n    //Owner, the deployer adds the doctors into the database....\r\n    address public owner;\r\n\r\n    /**** \r\n    1. Stores the doctors addresses.\r\n    2. Considered as a database of the Doctors address\r\n    Address here stored are added by the contract owner only.\r\n    ****/\r\n    \r\n    address[] authorisedDoctors;\r\n    mapping (address=>bool)authorisedMap; //Created for easy check\r\n\r\n    constructor() public{\r\n        owner = msg.sender;\r\n        authorisedDoctors.push(owner);\r\n        authorisedMap[owner]=true;\r\n    }\r\n    \r\n    /**** \r\n    Checks if the caller of the contract is owner or not?\r\n    If yes, then only proceed to the Function whatever you are doing.\r\n    ****/\r\n\r\n    modifier isOwner{\r\n        require(msg.sender==owner,'Opps, You will need to contact the owner');\r\n        _;\r\n    }\r\n\r\n    /**** \r\n    Checks if the caller of the contract is Doctor or Patient?\r\n    If yes, then only proceed to the Function whatever you are doing.\r\n    ****/\r\n    //The address will be sent from metamask.\r\n    modifier onlyDoctor(address _patientAddress){\r\n        //for now i am removing this or COndition. \r\n        // || msg.sender==_patientAddress \r\n        require(authorisedMap[msg.sender]==true ,'You are Not authorised to Access the data');\r\n        _;\r\n    }\r\n\r\n    \r\n\r\n    /**** \r\n    Updates the doctorsAddress in the database of authorised doctors.\r\n    Along with this, check for the isOwner, if the caller is owner, then only it is allowed to Add the address.\r\n    Parameter passed -\r\n    _doctorAddress\r\n    ****/\r\n    function addAuthorisedDoctor(address _doctorAddress) isOwner public {\r\n        authorisedDoctors.push(_doctorAddress);\r\n        authorisedMap[_doctorAddress] = true;\r\n    }    \r\n}",
  "sourcePath": "C:\\Users\\Neeraj\\Desktop\\Meidcal Health Records\\src\\contracts\\AccessControl.sol",
  "compiler": {
    "name": "solc",
    "version": "0.5.17+commit.d19bba13.Emscripten.clang"
  },
  "schemaVersion": "3.0.1",
  "updatedAt": "2022-05-28T12:40:19.587Z",
  "devdoc": {
    "methods": {}
  },
  "userdoc": {
    "methods": {
      "addAuthorisedDoctor(address)": {
        "notice": "**  Updates the doctorsAddress in the database of authorised doctors. Along with this, check for the isOwner, if the caller is owner, then only it is allowed to Add the address. Parameter passed - _doctorAddress***"
      }
    }
  }
}