{
  "contractName": "AddMedicalInfo",
  "abi": [
    {
      "inputs": [
        {
          "internalType": "contract Patients",
          "name": "_patientsContractAddress",
          "type": "address"
        },
        {
          "internalType": "contract Doctors",
          "name": "_doctorsContractAddress",
          "type": "address"
        },
        {
          "internalType": "contract Records",
          "name": "_recordsContractAddress",
          "type": "address"
        }
      ],
      "payable": false,
      "stateMutability": "nonpayable",
      "type": "constructor",
      "signature": "constructor"
    },
    {
      "constant": false,
      "inputs": [
        {
          "internalType": "address",
          "name": "_doctorAddress",
          "type": "address"
        }
      ],
      "name": "addAuthorisedDoctor",
      "outputs": [],
      "payable": false,
      "stateMutability": "nonpayable",
      "type": "function",
      "signature": "0x25da1c77"
    },
    {
      "constant": true,
      "inputs": [],
      "name": "owner",
      "outputs": [
        {
          "internalType": "address",
          "name": "",
          "type": "address"
        }
      ],
      "payable": false,
      "stateMutability": "view",
      "type": "function",
      "signature": "0x8da5cb5b"
    },
    {
      "constant": false,
      "inputs": [
        {
          "internalType": "string",
          "name": "_patientName",
          "type": "string"
        },
        {
          "internalType": "string",
          "name": "_patientId",
          "type": "string"
        },
        {
          "internalType": "string",
          "name": "_patientMobileNumber",
          "type": "string"
        },
        {
          "internalType": "string",
          "name": "_patientGender",
          "type": "string"
        },
        {
          "internalType": "string",
          "name": "_patientAddress",
          "type": "string"
        },
        {
          "internalType": "string",
          "name": "_patientDateOfBirth",
          "type": "string"
        },
        {
          "internalType": "string",
          "name": "_allergiesKnown",
          "type": "string"
        }
      ],
      "name": "addMedicalInfoPatient",
      "outputs": [],
      "payable": false,
      "stateMutability": "nonpayable",
      "type": "function",
      "signature": "0xd956a48e"
    },
    {
      "constant": false,
      "inputs": [
        {
          "internalType": "string",
          "name": "_doctorName",
          "type": "string"
        },
        {
          "internalType": "string",
          "name": "_doctorId",
          "type": "string"
        },
        {
          "internalType": "string",
          "name": "_doctorSpeciality",
          "type": "string"
        },
        {
          "internalType": "string",
          "name": "_doctorHospital",
          "type": "string"
        },
        {
          "internalType": "string",
          "name": "_doctorGender",
          "type": "string"
        }
      ],
      "name": "addMedicalInfoDoctor",
      "outputs": [],
      "payable": false,
      "stateMutability": "nonpayable",
      "type": "function",
      "signature": "0x9b602be6"
    },
    {
      "constant": false,
      "inputs": [
        {
          "internalType": "string",
          "name": "_patientId",
          "type": "string"
        },
        {
          "internalType": "string",
          "name": "_lastUpdated",
          "type": "string"
        },
        {
          "internalType": "string",
          "name": "_currentMedicalDosage",
          "type": "string"
        },
        {
          "internalType": "string",
          "name": "_updatedBy",
          "type": "string"
        },
        {
          "internalType": "string",
          "name": "_currentDiagnosis",
          "type": "string"
        },
        {
          "internalType": "string",
          "name": "_PDFreport",
          "type": "string"
        }
      ],
      "name": "addMedicalRecords",
      "outputs": [],
      "payable": false,
      "stateMutability": "nonpayable",
      "type": "function",
      "signature": "0x2b3df31d"
    }
  ],
  "bytecode": "0x608060405234801561001057600080fd5b506040516128dd3803806128dd8339818101604052606081101561003357600080fd5b81019080805190602001909291908051906020019092919080519060200190929190505050336000806101000a81548173ffffffffffffffffffffffffffffffffffffffff021916908373ffffffffffffffffffffffffffffffffffffffff16021790555060016000809054906101000a900473ffffffffffffffffffffffffffffffffffffffff1690806001815401808255809150509060018203906000526020600020016000909192909190916101000a81548173ffffffffffffffffffffffffffffffffffffffff021916908373ffffffffffffffffffffffffffffffffffffffff160217905550506001600260008060009054906101000a900473ffffffffffffffffffffffffffffffffffffffff1673ffffffffffffffffffffffffffffffffffffffff1673ffffffffffffffffffffffffffffffffffffffff16815260200190815260200160002060006101000a81548160ff02191690831515021790555082600360006101000a81548173ffffffffffffffffffffffffffffffffffffffff021916908373ffffffffffffffffffffffffffffffffffffffff16021790555081600460006101000a81548173ffffffffffffffffffffffffffffffffffffffff021916908373ffffffffffffffffffffffffffffffffffffffff16021790555080600560006101000a81548173ffffffffffffffffffffffffffffffffffffffff021916908373ffffffffffffffffffffffffffffffffffffffff1602179055505050506126708061026d6000396000f3fe608060405234801561001057600080fd5b5060043610610074576000357c01000000000000000000000000000000000000000000000000000000009004806325da1c77146100795780632b3df31d146100bd5780638da5cb5b1461046b5780639b602be6146104b5578063d956a48e146107cc575b600080fd5b6100bb6004803603602081101561008f57600080fd5b81019080803573ffffffffffffffffffffffffffffffffffffffff169060200190929190505050610c11565b005b610469600480360360c08110156100d357600080fd5b81019080803590602001906401000000008111156100f057600080fd5b82018360208201111561010257600080fd5b8035906020019184600183028401116401000000008311171561012457600080fd5b91908080601f016020809104026020016040519081016040528093929190818152602001838380828437600081840152601f19601f8201169050808301925050505050505091929192908035906020019064010000000081111561018757600080fd5b82018360208201111561019957600080fd5b803590602001918460018302840111640100000000831117156101bb57600080fd5b91908080601f016020809104026020016040519081016040528093929190818152602001838380828437600081840152601f19601f8201169050808301925050505050505091929192908035906020019064010000000081111561021e57600080fd5b82018360208201111561023057600080fd5b8035906020019184600183028401116401000000008311171561025257600080fd5b91908080601f016020809104026020016040519081016040528093929190818152602001838380828437600081840152601f19601f820116905080830192505050505050509192919290803590602001906401000000008111156102b557600080fd5b8201836020820111156102c757600080fd5b803590602001918460018302840111640100000000831117156102e957600080fd5b91908080601f016020809104026020016040519081016040528093929190818152602001838380828437600081840152601f19601f8201169050808301925050505050505091929192908035906020019064010000000081111561034c57600080fd5b82018360208201111561035e57600080fd5b8035906020019184600183028401116401000000008311171561038057600080fd5b91908080601f016020809104026020016040519081016040528093929190818152602001838380828437600081840152601f19601f820116905080830192505050505050509192919290803590602001906401000000008111156103e357600080fd5b8201836020820111156103f557600080fd5b8035906020019184600183028401116401000000008311171561041757600080fd5b91908080601f016020809104026020016040519081016040528093929190818152602001838380828437600081840152601f19601f820116905080830192505050505050509192919290505050610d77565b005b610473611591565b604051808273ffffffffffffffffffffffffffffffffffffffff1673ffffffffffffffffffffffffffffffffffffffff16815260200191505060405180910390f35b6107ca600480360360a08110156104cb57600080fd5b81019080803590602001906401000000008111156104e857600080fd5b8201836020820111156104fa57600080fd5b8035906020019184600183028401116401000000008311171561051c57600080fd5b91908080601f016020809104026020016040519081016040528093929190818152602001838380828437600081840152601f19601f8201169050808301925050505050505091929192908035906020019064010000000081111561057f57600080fd5b82018360208201111561059157600080fd5b803590602001918460018302840111640100000000831117156105b357600080fd5b91908080601f016020809104026020016040519081016040528093929190818152602001838380828437600081840152601f19601f8201169050808301925050505050505091929192908035906020019064010000000081111561061657600080fd5b82018360208201111561062857600080fd5b8035906020019184600183028401116401000000008311171561064a57600080fd5b91908080601f016020809104026020016040519081016040528093929190818152602001838380828437600081840152601f19601f820116905080830192505050505050509192919290803590602001906401000000008111156106ad57600080fd5b8201836020820111156106bf57600080fd5b803590602001918460018302840111640100000000831117156106e157600080fd5b91908080601f016020809104026020016040519081016040528093929190818152602001838380828437600081840152601f19601f8201169050808301925050505050505091929192908035906020019064010000000081111561074457600080fd5b82018360208201111561075657600080fd5b8035906020019184600183028401116401000000008311171561077857600080fd5b91908080601f016020809104026020016040519081016040528093929190818152602001838380828437600081840152601f19601f8201169050808301925050505050505091929192905050506115b6565b005b610c0f600480360360e08110156107e257600080fd5b81019080803590602001906401000000008111156107ff57600080fd5b82018360208201111561081157600080fd5b8035906020019184600183028401116401000000008311171561083357600080fd5b91908080601f016020809104026020016040519081016040528093929190818152602001838380828437600081840152601f19601f8201169050808301925050505050505091929192908035906020019064010000000081111561089657600080fd5b8201836020820111156108a857600080fd5b803590602001918460018302840111640100000000831117156108ca57600080fd5b91908080601f016020809104026020016040519081016040528093929190818152602001838380828437600081840152601f19601f8201169050808301925050505050505091929192908035906020019064010000000081111561092d57600080fd5b82018360208201111561093f57600080fd5b8035906020019184600183028401116401000000008311171561096157600080fd5b91908080601f016020809104026020016040519081016040528093929190818152602001838380828437600081840152601f19601f820116905080830192505050505050509192919290803590602001906401000000008111156109c457600080fd5b8201836020820111156109d657600080fd5b803590602001918460018302840111640100000000831117156109f857600080fd5b91908080601f016020809104026020016040519081016040528093929190818152602001838380828437600081840152601f19601f82011690508083019250505050505050919291929080359060200190640100000000811115610a5b57600080fd5b820183602082011115610a6d57600080fd5b80359060200191846001830284011164010000000083111715610a8f57600080fd5b91908080601f016020809104026020016040519081016040528093929190818152602001838380828437600081840152601f19601f82011690508083019250505050505050919291929080359060200190640100000000811115610af257600080fd5b820183602082011115610b0457600080fd5b80359060200191846001830284011164010000000083111715610b2657600080fd5b91908080601f016020809104026020016040519081016040528093929190818152602001838380828437600081840152601f19601f82011690508083019250505050505050919291929080359060200190640100000000811115610b8957600080fd5b820183602082011115610b9b57600080fd5b80359060200191846001830284011164010000000083111715610bbd57600080fd5b91908080601f016020809104026020016040519081016040528093929190818152602001838380828437600081840152601f19601f820116905080830192505050505050509192919290505050611c54565b005b6000809054906101000a900473ffffffffffffffffffffffffffffffffffffffff1673ffffffffffffffffffffffffffffffffffffffff163373ffffffffffffffffffffffffffffffffffffffff1614610cb6576040517f08c379a00000000000000000000000000000000000000000000000000000000081526004018080602001828103825260288152602001806126146028913960400191505060405180910390fd5b60018190806001815401808255809150509060018203906000526020600020016000909192909190916101000a81548173ffffffffffffffffffffffffffffffffffffffff021916908373ffffffffffffffffffffffffffffffffffffffff160217905550506001600260008373ffffffffffffffffffffffffffffffffffffffff1673ffffffffffffffffffffffffffffffffffffffff16815260200190815260200160002060006101000a81548160ff02191690831515021790555050565b3360011515600260003373ffffffffffffffffffffffffffffffffffffffff1673ffffffffffffffffffffffffffffffffffffffff16815260200190815260200160002060009054906101000a900460ff16151514610e21576040517f08c379a00000000000000000000000000000000000000000000000000000000081526004018080602001828103825260298152602001806125eb6029913960400191505060405180910390fd5b600560009054906101000a900473ffffffffffffffffffffffffffffffffffffffff1673ffffffffffffffffffffffffffffffffffffffff16630e4b889f88886040518363ffffffff167c0100000000000000000000000000000000000000000000000000000000028152600401808060200180602001838103835285818151815260200191508051906020019080838360005b83811015610ed0578082015181840152602081019050610eb5565b50505050905090810190601f168015610efd5780820380516001836020036101000a031916815260200191505b50838103825284818151815260200191508051906020019080838360005b83811015610f36578082015181840152602081019050610f1b565b50505050905090810190601f168015610f635780820380516001836020036101000a031916815260200191505b50945050505050600060405180830381600087803b158015610f8457600080fd5b505af1158015610f98573d6000803e3d6000fd5b50505050600560009054906101000a900473ffffffffffffffffffffffffffffffffffffffff1673ffffffffffffffffffffffffffffffffffffffff1663a6c6608b88876040518363ffffffff167c0100000000000000000000000000000000000000000000000000000000028152600401808060200180602001838103835285818151815260200191508051906020019080838360005b8381101561104b578082015181840152602081019050611030565b50505050905090810190601f1680156110785780820380516001836020036101000a031916815260200191505b50838103825284818151815260200191508051906020019080838360005b838110156110b1578082015181840152602081019050611096565b50505050905090810190601f1680156110de5780820380516001836020036101000a031916815260200191505b50945050505050600060405180830381600087803b1580156110ff57600080fd5b505af1158015611113573d6000803e3d6000fd5b50505050600560009054906101000a900473ffffffffffffffffffffffffffffffffffffffff1673ffffffffffffffffffffffffffffffffffffffff166380a2ca0f88866040518363ffffffff167c0100000000000000000000000000000000000000000000000000000000028152600401808060200180602001838103835285818151815260200191508051906020019080838360005b838110156111c65780820151818401526020810190506111ab565b50505050905090810190601f1680156111f35780820380516001836020036101000a031916815260200191505b50838103825284818151815260200191508051906020019080838360005b8381101561122c578082015181840152602081019050611211565b50505050905090810190601f1680156112595780820380516001836020036101000a031916815260200191505b50945050505050600060405180830381600087803b15801561127a57600080fd5b505af115801561128e573d6000803e3d6000fd5b50505050600560009054906101000a900473ffffffffffffffffffffffffffffffffffffffff1673ffffffffffffffffffffffffffffffffffffffff1663acd0afc988856040518363ffffffff167c0100000000000000000000000000000000000000000000000000000000028152600401808060200180602001838103835285818151815260200191508051906020019080838360005b83811015611341578082015181840152602081019050611326565b50505050905090810190601f16801561136e5780820380516001836020036101000a031916815260200191505b50838103825284818151815260200191508051906020019080838360005b838110156113a757808201518184015260208101905061138c565b50505050905090810190601f1680156113d45780820380516001836020036101000a031916815260200191505b50945050505050600060405180830381600087803b1580156113f557600080fd5b505af1158015611409573d6000803e3d6000fd5b50505050600560009054906101000a900473ffffffffffffffffffffffffffffffffffffffff1673ffffffffffffffffffffffffffffffffffffffff1663ea7a757a88846040518363ffffffff167c0100000000000000000000000000000000000000000000000000000000028152600401808060200180602001838103835285818151815260200191508051906020019080838360005b838110156114bc5780820151818401526020810190506114a1565b50505050905090810190601f1680156114e95780820380516001836020036101000a031916815260200191505b50838103825284818151815260200191508051906020019080838360005b83811015611522578082015181840152602081019050611507565b50505050905090810190601f16801561154f5780820380516001836020036101000a031916815260200191505b50945050505050600060405180830381600087803b15801561157057600080fd5b505af1158015611584573d6000803e3d6000fd5b5050505050505050505050565b6000809054906101000a900473ffffffffffffffffffffffffffffffffffffffff1681565b3360011515600260003373ffffffffffffffffffffffffffffffffffffffff1673ffffffffffffffffffffffffffffffffffffffff16815260200190815260200160002060009054906101000a900460ff16151514611660576040517f08c379a00000000000000000000000000000000000000000000000000000000081526004018080602001828103825260298152602001806125eb6029913960400191505060405180910390fd5b600460009054906101000a900473ffffffffffffffffffffffffffffffffffffffff1673ffffffffffffffffffffffffffffffffffffffff16632e3b225086886040518363ffffffff167c0100000000000000000000000000000000000000000000000000000000028152600401808060200180602001838103835285818151815260200191508051906020019080838360005b8381101561170f5780820151818401526020810190506116f4565b50505050905090810190601f16801561173c5780820380516001836020036101000a031916815260200191505b50838103825284818151815260200191508051906020019080838360005b8381101561177557808201518184015260208101905061175a565b50505050905090810190601f1680156117a25780820380516001836020036101000a031916815260200191505b50945050505050600060405180830381600087803b1580156117c357600080fd5b505af11580156117d7573d6000803e3d6000fd5b50505050600460009054906101000a900473ffffffffffffffffffffffffffffffffffffffff1673ffffffffffffffffffffffffffffffffffffffff166386e383e486866040518363ffffffff167c0100000000000000000000000000000000000000000000000000000000028152600401808060200180602001838103835285818151815260200191508051906020019080838360005b8381101561188a57808201518184015260208101905061186f565b50505050905090810190601f1680156118b75780820380516001836020036101000a031916815260200191505b50838103825284818151815260200191508051906020019080838360005b838110156118f05780820151818401526020810190506118d5565b50505050905090810190601f16801561191d5780820380516001836020036101000a031916815260200191505b50945050505050600060405180830381600087803b15801561193e57600080fd5b505af1158015611952573d6000803e3d6000fd5b50505050600460009054906101000a900473ffffffffffffffffffffffffffffffffffffffff1673ffffffffffffffffffffffffffffffffffffffff16630dd7597886856040518363ffffffff167c0100000000000000000000000000000000000000000000000000000000028152600401808060200180602001838103835285818151815260200191508051906020019080838360005b83811015611a055780820151818401526020810190506119ea565b50505050905090810190601f168015611a325780820380516001836020036101000a031916815260200191505b50838103825284818151815260200191508051906020019080838360005b83811015611a6b578082015181840152602081019050611a50565b50505050905090810190601f168015611a985780820380516001836020036101000a031916815260200191505b50945050505050600060405180830381600087803b158015611ab957600080fd5b505af1158015611acd573d6000803e3d6000fd5b50505050600460009054906101000a900473ffffffffffffffffffffffffffffffffffffffff1673ffffffffffffffffffffffffffffffffffffffff16639e92b79186846040518363ffffffff167c0100000000000000000000000000000000000000000000000000000000028152600401808060200180602001838103835285818151815260200191508051906020019080838360005b83811015611b80578082015181840152602081019050611b65565b50505050905090810190601f168015611bad5780820380516001836020036101000a031916815260200191505b50838103825284818151815260200191508051906020019080838360005b83811015611be6578082015181840152602081019050611bcb565b50505050905090810190601f168015611c135780820380516001836020036101000a031916815260200191505b50945050505050600060405180830381600087803b158015611c3457600080fd5b505af1158015611c48573d6000803e3d6000fd5b50505050505050505050565b3360011515600260003373ffffffffffffffffffffffffffffffffffffffff1673ffffffffffffffffffffffffffffffffffffffff16815260200190815260200160002060009054906101000a900460ff16151514611cfe576040517f08c379a00000000000000000000000000000000000000000000000000000000081526004018080602001828103825260298152602001806125eb6029913960400191505060405180910390fd5b600360009054906101000a900473ffffffffffffffffffffffffffffffffffffffff1673ffffffffffffffffffffffffffffffffffffffff1663ffdbc055888a6040518363ffffffff167c0100000000000000000000000000000000000000000000000000000000028152600401808060200180602001838103835285818151815260200191508051906020019080838360005b83811015611dad578082015181840152602081019050611d92565b50505050905090810190601f168015611dda5780820380516001836020036101000a031916815260200191505b50838103825284818151815260200191508051906020019080838360005b83811015611e13578082015181840152602081019050611df8565b50505050905090810190601f168015611e405780820380516001836020036101000a031916815260200191505b50945050505050600060405180830381600087803b158015611e6157600080fd5b505af1158015611e75573d6000803e3d6000fd5b50505050600360009054906101000a900473ffffffffffffffffffffffffffffffffffffffff1673ffffffffffffffffffffffffffffffffffffffff166366c9868e88886040518363ffffffff167c0100000000000000000000000000000000000000000000000000000000028152600401808060200180602001838103835285818151815260200191508051906020019080838360005b83811015611f28578082015181840152602081019050611f0d565b50505050905090810190601f168015611f555780820380516001836020036101000a031916815260200191505b50838103825284818151815260200191508051906020019080838360005b83811015611f8e578082015181840152602081019050611f73565b50505050905090810190601f168015611fbb5780820380516001836020036101000a031916815260200191505b50945050505050600060405180830381600087803b158015611fdc57600080fd5b505af1158015611ff0573d6000803e3d6000fd5b50505050600360009054906101000a900473ffffffffffffffffffffffffffffffffffffffff1673ffffffffffffffffffffffffffffffffffffffff16633ba1e7fe88876040518363ffffffff167c0100000000000000000000000000000000000000000000000000000000028152600401808060200180602001838103835285818151815260200191508051906020019080838360005b838110156120a3578082015181840152602081019050612088565b50505050905090810190601f1680156120d05780820380516001836020036101000a031916815260200191505b50838103825284818151815260200191508051906020019080838360005b838110156121095780820151818401526020810190506120ee565b50505050905090810190601f1680156121365780820380516001836020036101000a031916815260200191505b50945050505050600060405180830381600087803b15801561215757600080fd5b505af115801561216b573d6000803e3d6000fd5b50505050600360009054906101000a900473ffffffffffffffffffffffffffffffffffffffff1673ffffffffffffffffffffffffffffffffffffffff1663c38571a588866040518363ffffffff167c0100000000000000000000000000000000000000000000000000000000028152600401808060200180602001838103835285818151815260200191508051906020019080838360005b8381101561221e578082015181840152602081019050612203565b50505050905090810190601f16801561224b5780820380516001836020036101000a031916815260200191505b50838103825284818151815260200191508051906020019080838360005b83811015612284578082015181840152602081019050612269565b50505050905090810190601f1680156122b15780820380516001836020036101000a031916815260200191505b50945050505050600060405180830381600087803b1580156122d257600080fd5b505af11580156122e6573d6000803e3d6000fd5b50505050600360009054906101000a900473ffffffffffffffffffffffffffffffffffffffff1673ffffffffffffffffffffffffffffffffffffffff1663a1f058c788856040518363ffffffff167c0100000000000000000000000000000000000000000000000000000000028152600401808060200180602001838103835285818151815260200191508051906020019080838360005b8381101561239957808201518184015260208101905061237e565b50505050905090810190601f1680156123c65780820380516001836020036101000a031916815260200191505b50838103825284818151815260200191508051906020019080838360005b838110156123ff5780820151818401526020810190506123e4565b50505050905090810190601f16801561242c5780820380516001836020036101000a031916815260200191505b50945050505050600060405180830381600087803b15801561244d57600080fd5b505af1158015612461573d6000803e3d6000fd5b50505050600360009054906101000a900473ffffffffffffffffffffffffffffffffffffffff1673ffffffffffffffffffffffffffffffffffffffff1663153474b988846040518363ffffffff167c0100000000000000000000000000000000000000000000000000000000028152600401808060200180602001838103835285818151815260200191508051906020019080838360005b838110156125145780820151818401526020810190506124f9565b50505050905090810190601f1680156125415780820380516001836020036101000a031916815260200191505b50838103825284818151815260200191508051906020019080838360005b8381101561257a57808201518184015260208101905061255f565b50505050905090810190601f1680156125a75780820380516001836020036101000a031916815260200191505b50945050505050600060405180830381600087803b1580156125c857600080fd5b505af11580156125dc573d6000803e3d6000fd5b50505050505050505050505056fe596f7520617265204e6f7420617574686f726973656420746f204163636573732074686520646174614f7070732c20596f752077696c6c206e65656420746f20636f6e7461637420746865206f776e6572a265627a7a72315820b328ee1b83f759171a001fad7705a522de95cceb0f429d28301c2624ecc6ea5c64736f6c63430005110032",
  "source": "// SPDX-License-Identifier: GPL-3.0\r\n// All the information will be sent here to add the information in the blockchain.\r\n// Adds the information \r\n// pragma solidity >=0.7.0;\r\npragma solidity 0.5.17;\r\nimport './Patients.sol';\r\nimport './Doctors.sol';\r\nimport './AccessControl.sol';\r\nimport './Records.sol';\r\n\r\ncontract AddMedicalInfo is AccessControl{\r\n\r\n    //Creating the Contracts instances of Doctor and Patient.\r\n    Patients patient_;\r\n    Doctors doctor_;\r\n    Records record_;\r\n    // constructor(address _patientsContractAddress, address _doctorsContractAddress, address _recordsContractAddress) public {\r\n    constructor(Patients _patientsContractAddress, Doctors _doctorsContractAddress, Records _recordsContractAddress) public {\r\n        //updating the contracts instances with the addresses of the constructor\r\n        patient_ = Patients(_patientsContractAddress);\r\n        doctor_ = Doctors(_doctorsContractAddress);\r\n        record_ = Records(_recordsContractAddress);\r\n    }\r\n\r\n    /****\r\n        Function addMedicalInfoPatient Updates the information of the patient in the patient contract.\r\n        parameters passed are:\r\n        string patientName\r\n        string patientId\r\n        string patientMobileNumber\r\n        string patientGender\r\n        string patientAddress\r\n        string patientDateOfBirth\r\n        string[] allergiesKnown\r\n    ****/\r\n\r\n    //The information in Patient Contract is updated using: patientContractInstance.FunctionName(Parameters);\r\n    function addMedicalInfoPatient(string memory _patientName, string memory _patientId, string memory _patientMobileNumber, string memory _patientGender, string memory _patientAddress, string memory _patientDateOfBirth, string memory _allergiesKnown) public onlyDoctor(msg.sender){\r\n        patient_.addPatientName(_patientId, _patientName);\r\n        patient_.addPatientMobileNumber(_patientId, _patientMobileNumber);\r\n        patient_.addPatientGender(_patientId, _patientGender);\r\n        patient_.addPatientAddress(_patientId, _patientAddress);\r\n        patient_.addPatientDateOfBirth(_patientId, _patientDateOfBirth);\r\n        patient_.addPatientAllergies(_patientId, _allergiesKnown);\r\n    } \r\n\r\n    /****\r\n        Function addMedicalInfoDoctor Updates the information of the Doctor in the Doctor contract.\r\n        parameters passed are:\r\n        string doctorName;\r\n        string doctorId;\r\n        string doctorSpeciality;\r\n        string doctorHospital;\r\n        string doctorGender;\r\n    ****/\r\n\r\n    //The information in Doctor Contract is updated using: doctorContractInstance.FunctionName(Parameters);\r\n    \r\n    function addMedicalInfoDoctor(string memory _doctorName, string memory _doctorId, string memory _doctorSpeciality, string memory _doctorHospital, string memory _doctorGender) public onlyDoctor(msg.sender){\r\n        doctor_.addDoctorName(_doctorId, _doctorName);\r\n        doctor_.addDoctorSpeciality(_doctorId, _doctorSpeciality);\r\n        doctor_.addDoctorHospital(_doctorId, _doctorHospital);\r\n        doctor_.addDoctorGender(_doctorId, _doctorGender);\r\n    }\r\n\r\n    /****\r\n        Function addMedicalRecords Updates the information of the Patients Medical record in the Records contract.\r\n        parameters passed are:\r\n        string patientId;\r\n        string lastUpdated;\r\n        string currentMedicalDosage;\r\n        string updatedBy; //doctors id\r\n        string currentDiagnosis;\r\n        string PDFreport;\r\n    ****/\r\n    \r\n    function addMedicalRecords(string memory _patientId, string memory _lastUpdated, string memory _currentMedicalDosage, string memory _updatedBy, string memory _currentDiagnosis, string memory _PDFreport) public onlyDoctor(msg.sender){\r\n        record_.addLastUpdated(_patientId, _lastUpdated);\r\n        record_.addCurrentMedicalDosage(_patientId, _currentMedicalDosage);\r\n        record_.addUpdatedBy(_patientId, _updatedBy);\r\n        record_.addCurrentDiagnosis(_patientId, _currentDiagnosis);\r\n        record_.addPDFreport(_patientId, _PDFreport);\r\n    }\r\n\r\n}\r\n\r\n\r\n\r\n\r\n\r\n//Additional Information For Help\r\n\r\n/****\r\n    //INFORMATION THAT WILLL BE SENT TO THIS CONTRACT ... ADN ITS ORDERING.\r\n    string patientName;\r\n    string patientId;\r\n    string patientMobileNumber;\r\n    string patientGender;\r\n    string patientAddress;\r\n    string patientDateOfBirth;\r\n    string allergiesKnown;\r\n\r\n\r\n    string doctorName;\r\n    string doctorId;\r\n    string doctorSpeciality;\r\n    string doctorHospital;\r\n    string doctorGender;\r\n    ****/\r\n\r\n",
  "sourcePath": "C:/Users/Neeraj/Desktop/Meidcal Health Records/src/contracts/AddMedicalInfo.sol",
  "compiler": {
    "name": "solc",
    "version": "0.5.17+commit.d19bba13.Emscripten.clang"
  },
  "schemaVersion": "3.0.1",
  "updatedAt": "2022-05-28T12:40:19.605Z",
  "devdoc": {
    "methods": {}
  },
  "userdoc": {
    "methods": {
      "addAuthorisedDoctor(address)": {
        "notice": "**  Updates the doctorsAddress in the database of authorised doctors. Along with this, check for the isOwner, if the caller is owner, then only it is allowed to Add the address. Parameter passed - _doctorAddress***"
      },
      "addMedicalInfoDoctor(string,string,string,string,string)": {
        "notice": "** Function addMedicalInfoDoctor Updates the information of the Doctor in the Doctor contract. parameters passed are: string doctorName; string doctorId; string doctorSpeciality; string doctorHospital; string doctorGender;***"
      },
      "addMedicalInfoPatient(string,string,string,string,string,string,string)": {
        "notice": "** Function addMedicalInfoPatient Updates the information of the patient in the patient contract. parameters passed are: string patientName string patientId string patientMobileNumber string patientGender string patientAddress string patientDateOfBirth string[] allergiesKnown***"
      },
      "addMedicalRecords(string,string,string,string,string,string)": {
        "notice": "** Function addMedicalRecords Updates the information of the Patients Medical record in the Records contract. parameters passed are: string patientId; string lastUpdated; string currentMedicalDosage; string updatedBy; //doctors id string currentDiagnosis; string PDFreport;***"
      }
    }
  }
}