{
  "contractName": "Doctors",
  "abi": [
    {
      "constant": false,
      "inputs": [
        {
          "internalType": "string",
          "name": "_doctorId",
          "type": "string"
        },
        {
          "internalType": "string",
          "name": "_name",
          "type": "string"
        }
      ],
      "name": "addDoctorName",
      "outputs": [],
      "payable": false,
      "stateMutability": "nonpayable",
      "type": "function",
      "signature": "0x2e3b2250"
    },
    {
      "constant": true,
      "inputs": [
        {
          "internalType": "string",
          "name": "_doctorId",
          "type": "string"
        }
      ],
      "name": "getDoctorName",
      "outputs": [
        {
          "internalType": "string",
          "name": "",
          "type": "string"
        }
      ],
      "payable": false,
      "stateMutability": "view",
      "type": "function",
      "signature": "0x451644ba"
    },
    {
      "constant": false,
      "inputs": [
        {
          "internalType": "string",
          "name": "_doctorId",
          "type": "string"
        },
        {
          "internalType": "string",
          "name": "_speciality",
          "type": "string"
        }
      ],
      "name": "addDoctorSpeciality",
      "outputs": [],
      "payable": false,
      "stateMutability": "nonpayable",
      "type": "function",
      "signature": "0x86e383e4"
    },
    {
      "constant": true,
      "inputs": [
        {
          "internalType": "string",
          "name": "_doctorId",
          "type": "string"
        }
      ],
      "name": "getDoctorSpeciality",
      "outputs": [
        {
          "internalType": "string",
          "name": "",
          "type": "string"
        }
      ],
      "payable": false,
      "stateMutability": "view",
      "type": "function",
      "signature": "0x45824eff"
    },
    {
      "constant": false,
      "inputs": [
        {
          "internalType": "string",
          "name": "_doctorId",
          "type": "string"
        },
        {
          "internalType": "string",
          "name": "_hospital",
          "type": "string"
        }
      ],
      "name": "addDoctorHospital",
      "outputs": [],
      "payable": false,
      "stateMutability": "nonpayable",
      "type": "function",
      "signature": "0x0dd75978"
    },
    {
      "constant": true,
      "inputs": [
        {
          "internalType": "string",
          "name": "_doctorId",
          "type": "string"
        }
      ],
      "name": "getDoctorHospital",
      "outputs": [
        {
          "internalType": "string",
          "name": "",
          "type": "string"
        }
      ],
      "payable": false,
      "stateMutability": "view",
      "type": "function",
      "signature": "0xb4d31147"
    },
    {
      "constant": false,
      "inputs": [
        {
          "internalType": "string",
          "name": "_doctorId",
          "type": "string"
        },
        {
          "internalType": "string",
          "name": "_gender",
          "type": "string"
        }
      ],
      "name": "addDoctorGender",
      "outputs": [],
      "payable": false,
      "stateMutability": "nonpayable",
      "type": "function",
      "signature": "0x9e92b791"
    },
    {
      "constant": true,
      "inputs": [
        {
          "internalType": "string",
          "name": "_doctorId",
          "type": "string"
        }
      ],
      "name": "getDoctorGender",
      "outputs": [
        {
          "internalType": "string",
          "name": "",
          "type": "string"
        }
      ],
      "payable": false,
      "stateMutability": "view",
      "type": "function",
      "signature": "0xb85390be"
    }
  ],
  "bytecode": "0x608060405234801561001057600080fd5b506111e8806100206000396000f3fe608060405234801561001057600080fd5b50600436106100a5576000357c01000000000000000000000000000000000000000000000000000000009004806386e383e41161007857806386e383e4146105b65780639e92b79114610708578063b4d311471461085a578063b85390be1461098e576100a5565b80630dd75978146100aa5780632e3b2250146101fc578063451644ba1461034e57806345824eff14610482575b600080fd5b6101fa600480360360408110156100c057600080fd5b81019080803590602001906401000000008111156100dd57600080fd5b8201836020820111156100ef57600080fd5b8035906020019184600183028401116401000000008311171561011157600080fd5b91908080601f016020809104026020016040519081016040528093929190818152602001838380828437600081840152601f19601f8201169050808301925050505050505091929192908035906020019064010000000081111561017457600080fd5b82018360208201111561018657600080fd5b803590602001918460018302840111640100000000831117156101a857600080fd5b91908080601f016020809104026020016040519081016040528093929190818152602001838380828437600081840152601f19601f820116905080830192505050505050509192919290505050610ac2565b005b61034c6004803603604081101561021257600080fd5b810190808035906020019064010000000081111561022f57600080fd5b82018360208201111561024157600080fd5b8035906020019184600183028401116401000000008311171561026357600080fd5b91908080601f016020809104026020016040519081016040528093929190818152602001838380828437600081840152601f19601f820116905080830192505050505050509192919290803590602001906401000000008111156102c657600080fd5b8201836020820111156102d857600080fd5b803590602001918460018302840111640100000000831117156102fa57600080fd5b91908080601f016020809104026020016040519081016040528093929190818152602001838380828437600081840152601f19601f820116905080830192505050505050509192919290505050610b47565b005b6104076004803603602081101561036457600080fd5b810190808035906020019064010000000081111561038157600080fd5b82018360208201111561039357600080fd5b803590602001918460018302840111640100000000831117156103b557600080fd5b91908080601f016020809104026020016040519081016040528093929190818152602001838380828437600081840152601f19601f820116905080830192505050505050509192919290505050610bcc565b6040518080602001828103825283818151815260200191508051906020019080838360005b8381101561044757808201518184015260208101905061042c565b50505050905090810190601f1680156104745780820380516001836020036101000a031916815260200191505b509250505060405180910390f35b61053b6004803603602081101561049857600080fd5b81019080803590602001906401000000008111156104b557600080fd5b8201836020820111156104c757600080fd5b803590602001918460018302840111640100000000831117156104e957600080fd5b91908080601f016020809104026020016040519081016040528093929190818152602001838380828437600081840152601f19601f820116905080830192505050505050509192919290505050610cda565b6040518080602001828103825283818151815260200191508051906020019080838360005b8381101561057b578082015181840152602081019050610560565b50505050905090810190601f1680156105a85780820380516001836020036101000a031916815260200191505b509250505060405180910390f35b610706600480360360408110156105cc57600080fd5b81019080803590602001906401000000008111156105e957600080fd5b8201836020820111156105fb57600080fd5b8035906020019184600183028401116401000000008311171561061d57600080fd5b91908080601f016020809104026020016040519081016040528093929190818152602001838380828437600081840152601f19601f8201169050808301925050505050505091929192908035906020019064010000000081111561068057600080fd5b82018360208201111561069257600080fd5b803590602001918460018302840111640100000000831117156106b457600080fd5b91908080601f016020809104026020016040519081016040528093929190818152602001838380828437600081840152601f19601f820116905080830192505050505050509192919290505050610de8565b005b6108586004803603604081101561071e57600080fd5b810190808035906020019064010000000081111561073b57600080fd5b82018360208201111561074d57600080fd5b8035906020019184600183028401116401000000008311171561076f57600080fd5b91908080601f016020809104026020016040519081016040528093929190818152602001838380828437600081840152601f19601f820116905080830192505050505050509192919290803590602001906401000000008111156107d257600080fd5b8201836020820111156107e457600080fd5b8035906020019184600183028401116401000000008311171561080657600080fd5b91908080601f016020809104026020016040519081016040528093929190818152602001838380828437600081840152601f19601f820116905080830192505050505050509192919290505050610e6d565b005b6109136004803603602081101561087057600080fd5b810190808035906020019064010000000081111561088d57600080fd5b82018360208201111561089f57600080fd5b803590602001918460018302840111640100000000831117156108c157600080fd5b91908080601f016020809104026020016040519081016040528093929190818152602001838380828437600081840152601f19601f820116905080830192505050505050509192919290505050610ef2565b6040518080602001828103825283818151815260200191508051906020019080838360005b83811015610953578082015181840152602081019050610938565b50505050905090810190601f1680156109805780820380516001836020036101000a031916815260200191505b509250505060405180910390f35b610a47600480360360208110156109a457600080fd5b81019080803590602001906401000000008111156109c157600080fd5b8201836020820111156109d357600080fd5b803590602001918460018302840111640100000000831117156109f557600080fd5b91908080601f016020809104026020016040519081016040528093929190818152602001838380828437600081840152601f19601f820116905080830192505050505050509192919290505050611000565b6040518080602001828103825283818151815260200191508051906020019080838360005b83811015610a87578082015181840152602081019050610a6c565b50505050905090810190601f168015610ab45780820380516001836020036101000a031916815260200191505b509250505060405180910390f35b806000836040518082805190602001908083835b60208310610af95780518252602082019150602081019050602083039250610ad6565b6001836020036101000a03801982511681845116808217855250505050505090500191505090815260200160405180910390206002019080519060200190610b4292919061110e565b505050565b806000836040518082805190602001908083835b60208310610b7e5780518252602082019150602081019050602083039250610b5b565b6001836020036101000a03801982511681845116808217855250505050505090500191505090815260200160405180910390206000019080519060200190610bc792919061110e565b505050565b60606000826040518082805190602001908083835b60208310610c045780518252602082019150602081019050602083039250610be1565b6001836020036101000a03801982511681845116808217855250505050505090500191505090815260200160405180910390206000018054600181600116156101000203166002900480601f016020809104026020016040519081016040528092919081815260200182805460018160011615610100020316600290048015610cce5780601f10610ca357610100808354040283529160200191610cce565b820191906000526020600020905b815481529060010190602001808311610cb157829003601f168201915b50505050509050919050565b60606000826040518082805190602001908083835b60208310610d125780518252602082019150602081019050602083039250610cef565b6001836020036101000a03801982511681845116808217855250505050505090500191505090815260200160405180910390206001018054600181600116156101000203166002900480601f016020809104026020016040519081016040528092919081815260200182805460018160011615610100020316600290048015610ddc5780601f10610db157610100808354040283529160200191610ddc565b820191906000526020600020905b815481529060010190602001808311610dbf57829003601f168201915b50505050509050919050565b806000836040518082805190602001908083835b60208310610e1f5780518252602082019150602081019050602083039250610dfc565b6001836020036101000a03801982511681845116808217855250505050505090500191505090815260200160405180910390206001019080519060200190610e6892919061110e565b505050565b806000836040518082805190602001908083835b60208310610ea45780518252602082019150602081019050602083039250610e81565b6001836020036101000a03801982511681845116808217855250505050505090500191505090815260200160405180910390206003019080519060200190610eed92919061110e565b505050565b60606000826040518082805190602001908083835b60208310610f2a5780518252602082019150602081019050602083039250610f07565b6001836020036101000a03801982511681845116808217855250505050505090500191505090815260200160405180910390206002018054600181600116156101000203166002900480601f016020809104026020016040519081016040528092919081815260200182805460018160011615610100020316600290048015610ff45780601f10610fc957610100808354040283529160200191610ff4565b820191906000526020600020905b815481529060010190602001808311610fd757829003601f168201915b50505050509050919050565b60606000826040518082805190602001908083835b602083106110385780518252602082019150602081019050602083039250611015565b6001836020036101000a03801982511681845116808217855250505050505090500191505090815260200160405180910390206003018054600181600116156101000203166002900480601f0160208091040260200160405190810160405280929190818152602001828054600181600116156101000203166002900480156111025780601f106110d757610100808354040283529160200191611102565b820191906000526020600020905b8154815290600101906020018083116110e557829003601f168201915b50505050509050919050565b828054600181600116156101000203166002900490600052602060002090601f016020900481019282601f1061114f57805160ff191683800117855561117d565b8280016001018555821561117d579182015b8281111561117c578251825591602001919060010190611161565b5b50905061118a919061118e565b5090565b6111b091905b808211156111ac576000816000905550600101611194565b5090565b9056fea265627a7a723158209b4b860c1f3ef64a3d031a4715c3ec649ca6df380c4b6856dc09e0aff0afd79b64736f6c63430005110032",
  "source": "// SPDX-License-Identifier: GPL-3.0\r\n\r\n// pragma solidity >=0.7.0 <0.9.0;\r\npragma solidity 0.5.17;\r\ncontract Doctors{\r\n    struct doctorInfo{\r\n        string doctorName;\r\n        // string doctorId;\r\n        string doctorSpeciality;\r\n        string doctorHospital;\r\n        string doctorGender;\r\n    }\r\n\r\n    mapping(string=>doctorInfo) doctorIdInformation;\r\n\r\n\r\n    /****\r\n    This function adds the doctors Names \r\n    params _name -  doctor name\r\n    params _doctorId - doctor'a generated Id.\r\n    ****/\r\n    function addDoctorName(string memory _doctorId, string memory _name) public{\r\n        doctorIdInformation[_doctorId].doctorName = _name;\r\n    }\r\n\r\n    /****\r\n    This function returns the doctors Name\r\n    params _doctorId -  doctor name\r\n    ****/\r\n    function getDoctorName(string memory _doctorId) public view returns(string memory){\r\n        return doctorIdInformation[_doctorId].doctorName;\r\n    }\r\n\r\n    /****\r\n    This function adds the doctors Names \r\n    params _name -  doctor name\r\n    params _doctorId - doctor'a generated Id.\r\n    ****/\r\n    function addDoctorSpeciality(string memory _doctorId, string memory _speciality) public{\r\n        doctorIdInformation[_doctorId].doctorSpeciality = _speciality;\r\n    }\r\n\r\n    /****\r\n    This function returns the doctors Name\r\n    params _doctorId -  doctor name\r\n    ****/\r\n    function getDoctorSpeciality(string memory _doctorId) public view returns(string memory){\r\n        return doctorIdInformation[_doctorId].doctorSpeciality;\r\n    }\r\n    \r\n\r\n    /****\r\n    This function adds the doctors Names \r\n    params _name -  doctor name\r\n    params _doctorId - doctor'a generated Id.\r\n    ****/\r\n    function addDoctorHospital(string memory _doctorId, string memory _hospital) public{\r\n        doctorIdInformation[_doctorId].doctorHospital = _hospital;\r\n    }\r\n\r\n    /****\r\n    This function returns the doctors Name\r\n    params _doctorId -  doctor name\r\n    ****/\r\n    function getDoctorHospital(string memory _doctorId) public view returns(string memory){\r\n        return doctorIdInformation[_doctorId].doctorHospital;\r\n    }\r\n    \r\n    /****\r\n    This function adds the doctors Names \r\n    params _name -  doctor name\r\n    params _doctorId - doctor'a generated Id.\r\n    ****/\r\n    function addDoctorGender(string memory _doctorId, string memory _gender) public{\r\n        doctorIdInformation[_doctorId].doctorGender = _gender;\r\n    }\r\n\r\n    /****\r\n    This function returns the doctors Name\r\n    params _doctorId -  doctor name\r\n    ****/\r\n    function getDoctorGender(string memory _doctorId) public view returns(string memory){\r\n        return doctorIdInformation[_doctorId].doctorGender;\r\n    }\r\n\r\n}",
  "sourcePath": "C:\\Users\\Neeraj\\Desktop\\Meidcal Health Records\\src\\contracts\\Doctors.sol",
  "compiler": {
    "name": "solc",
    "version": "0.5.17+commit.d19bba13.Emscripten.clang"
  },
  "schemaVersion": "3.0.1",
  "updatedAt": "2022-06-13T03:59:18.536Z",
  "devdoc": {
    "methods": {}
  },
  "userdoc": {
    "methods": {
      "addDoctorGender(string,string)": {
        "notice": "** This function adds the doctors Names  params _name -  doctor name params _doctorId - doctor'a generated Id.***"
      },
      "addDoctorHospital(string,string)": {
        "notice": "** This function adds the doctors Names  params _name -  doctor name params _doctorId - doctor'a generated Id.***"
      },
      "addDoctorName(string,string)": {
        "notice": "** This function adds the doctors Names  params _name -  doctor name params _doctorId - doctor'a generated Id.***"
      },
      "addDoctorSpeciality(string,string)": {
        "notice": "** This function adds the doctors Names  params _name -  doctor name params _doctorId - doctor'a generated Id.***"
      },
      "getDoctorGender(string)": {
        "notice": "** This function returns the doctors Name params _doctorId -  doctor name***"
      },
      "getDoctorHospital(string)": {
        "notice": "** This function returns the doctors Name params _doctorId -  doctor name***"
      },
      "getDoctorName(string)": {
        "notice": "** This function returns the doctors Name params _doctorId -  doctor name***"
      },
      "getDoctorSpeciality(string)": {
        "notice": "** This function returns the doctors Name params _doctorId -  doctor name***"
      }
    }
  }
}