{
  "contractName": "Doctors",
  "abi": [
    {
      "constant": false,
      "inputs": [
        {
          "name": "_doctorId",
          "type": "string"
        },
        {
          "name": "_name",
          "type": "string"
        }
      ],
      "name": "addDoctorName",
      "outputs": [],
      "payable": false,
      "stateMutability": "nonpayable",
      "type": "function",
      "signature": "0x2e3b2250"
    },
    {
      "constant": true,
      "inputs": [
        {
          "name": "_doctorId",
          "type": "string"
        }
      ],
      "name": "getDoctorName",
      "outputs": [
        {
          "name": "",
          "type": "string"
        }
      ],
      "payable": false,
      "stateMutability": "view",
      "type": "function",
      "signature": "0x451644ba"
    },
    {
      "constant": false,
      "inputs": [
        {
          "name": "_doctorId",
          "type": "string"
        },
        {
          "name": "_speciality",
          "type": "string"
        }
      ],
      "name": "addDoctorSpeciality",
      "outputs": [],
      "payable": false,
      "stateMutability": "nonpayable",
      "type": "function",
      "signature": "0x86e383e4"
    },
    {
      "constant": true,
      "inputs": [
        {
          "name": "_doctorId",
          "type": "string"
        }
      ],
      "name": "getDoctorSpeciality",
      "outputs": [
        {
          "name": "",
          "type": "string"
        }
      ],
      "payable": false,
      "stateMutability": "view",
      "type": "function",
      "signature": "0x45824eff"
    },
    {
      "constant": false,
      "inputs": [
        {
          "name": "_doctorId",
          "type": "string"
        },
        {
          "name": "_hospital",
          "type": "string"
        }
      ],
      "name": "addDoctorHospital",
      "outputs": [],
      "payable": false,
      "stateMutability": "nonpayable",
      "type": "function",
      "signature": "0x0dd75978"
    },
    {
      "constant": true,
      "inputs": [
        {
          "name": "_doctorId",
          "type": "string"
        }
      ],
      "name": "getDoctorHospital",
      "outputs": [
        {
          "name": "",
          "type": "string"
        }
      ],
      "payable": false,
      "stateMutability": "view",
      "type": "function",
      "signature": "0xb4d31147"
    },
    {
      "constant": false,
      "inputs": [
        {
          "name": "_doctorId",
          "type": "string"
        },
        {
          "name": "_gender",
          "type": "string"
        }
      ],
      "name": "addDoctorGender",
      "outputs": [],
      "payable": false,
      "stateMutability": "nonpayable",
      "type": "function",
      "signature": "0x9e92b791"
    },
    {
      "constant": true,
      "inputs": [
        {
          "name": "_doctorId",
          "type": "string"
        }
      ],
      "name": "getDoctorGender",
      "outputs": [
        {
          "name": "",
          "type": "string"
        }
      ],
      "payable": false,
      "stateMutability": "view",
      "type": "function",
      "signature": "0xb85390be"
    }
  ],
  "bytecode": "0x608060405234801561001057600080fd5b5061123a806100206000396000f3fe608060405260043610610088576000357c0100000000000000000000000000000000000000000000000000000000900480630dd759781461008d5780632e3b2250146101ec578063451644ba1461034b57806345824eff1461048c57806386e383e4146105cd5780639e92b7911461072c578063b4d311471461088b578063b85390be146109cc575b600080fd5b34801561009957600080fd5b506101ea600480360360408110156100b057600080fd5b81019080803590602001906401000000008111156100cd57600080fd5b8201836020820111156100df57600080fd5b8035906020019184600183028401116401000000008311171561010157600080fd5b91908080601f016020809104026020016040519081016040528093929190818152602001838380828437600081840152601f19601f8201169050808301925050505050505091929192908035906020019064010000000081111561016457600080fd5b82018360208201111561017657600080fd5b8035906020019184600183028401116401000000008311171561019857600080fd5b91908080601f016020809104026020016040519081016040528093929190818152602001838380828437600081840152601f19601f820116905080830192505050505050509192919290505050610b0d565b005b3480156101f857600080fd5b506103496004803603604081101561020f57600080fd5b810190808035906020019064010000000081111561022c57600080fd5b82018360208201111561023e57600080fd5b8035906020019184600183028401116401000000008311171561026057600080fd5b91908080601f016020809104026020016040519081016040528093929190818152602001838380828437600081840152601f19601f820116905080830192505050505050509192919290803590602001906401000000008111156102c357600080fd5b8201836020820111156102d557600080fd5b803590602001918460018302840111640100000000831117156102f757600080fd5b91908080601f016020809104026020016040519081016040528093929190818152602001838380828437600081840152601f19601f820116905080830192505050505050509192919290505050610b94565b005b34801561035757600080fd5b506104116004803603602081101561036e57600080fd5b810190808035906020019064010000000081111561038b57600080fd5b82018360208201111561039d57600080fd5b803590602001918460018302840111640100000000831117156103bf57600080fd5b91908080601f016020809104026020016040519081016040528093929190818152602001838380828437600081840152601f19601f820116905080830192505050505050509192919290505050610c1b565b6040518080602001828103825283818151815260200191508051906020019080838360005b83811015610451578082015181840152602081019050610436565b50505050905090810190601f16801561047e5780820380516001836020036101000a031916815260200191505b509250505060405180910390f35b34801561049857600080fd5b50610552600480360360208110156104af57600080fd5b81019080803590602001906401000000008111156104cc57600080fd5b8201836020820111156104de57600080fd5b8035906020019184600183028401116401000000008311171561050057600080fd5b91908080601f016020809104026020016040519081016040528093929190818152602001838380828437600081840152601f19601f820116905080830192505050505050509192919290505050610d2b565b6040518080602001828103825283818151815260200191508051906020019080838360005b83811015610592578082015181840152602081019050610577565b50505050905090810190601f1680156105bf5780820380516001836020036101000a031916815260200191505b509250505060405180910390f35b3480156105d957600080fd5b5061072a600480360360408110156105f057600080fd5b810190808035906020019064010000000081111561060d57600080fd5b82018360208201111561061f57600080fd5b8035906020019184600183028401116401000000008311171561064157600080fd5b91908080601f016020809104026020016040519081016040528093929190818152602001838380828437600081840152601f19601f820116905080830192505050505050509192919290803590602001906401000000008111156106a457600080fd5b8201836020820111156106b657600080fd5b803590602001918460018302840111640100000000831117156106d857600080fd5b91908080601f016020809104026020016040519081016040528093929190818152602001838380828437600081840152601f19601f820116905080830192505050505050509192919290505050610e3b565b005b34801561073857600080fd5b506108896004803603604081101561074f57600080fd5b810190808035906020019064010000000081111561076c57600080fd5b82018360208201111561077e57600080fd5b803590602001918460018302840111640100000000831117156107a057600080fd5b91908080601f016020809104026020016040519081016040528093929190818152602001838380828437600081840152601f19601f8201169050808301925050505050505091929192908035906020019064010000000081111561080357600080fd5b82018360208201111561081557600080fd5b8035906020019184600183028401116401000000008311171561083757600080fd5b91908080601f016020809104026020016040519081016040528093929190818152602001838380828437600081840152601f19601f820116905080830192505050505050509192919290505050610ec2565b005b34801561089757600080fd5b50610951600480360360208110156108ae57600080fd5b81019080803590602001906401000000008111156108cb57600080fd5b8201836020820111156108dd57600080fd5b803590602001918460018302840111640100000000831117156108ff57600080fd5b91908080601f016020809104026020016040519081016040528093929190818152602001838380828437600081840152601f19601f820116905080830192505050505050509192919290505050610f49565b6040518080602001828103825283818151815260200191508051906020019080838360005b83811015610991578082015181840152602081019050610976565b50505050905090810190601f1680156109be5780820380516001836020036101000a031916815260200191505b509250505060405180910390f35b3480156109d857600080fd5b50610a92600480360360208110156109ef57600080fd5b8101908080359060200190640100000000811115610a0c57600080fd5b820183602082011115610a1e57600080fd5b80359060200191846001830284011164010000000083111715610a4057600080fd5b91908080601f016020809104026020016040519081016040528093929190818152602001838380828437600081840152601f19601f820116905080830192505050505050509192919290505050611059565b6040518080602001828103825283818151815260200191508051906020019080838360005b83811015610ad2578082015181840152602081019050610ab7565b50505050905090810190601f168015610aff5780820380516001836020036101000a031916815260200191505b509250505060405180910390f35b806000836040518082805190602001908083835b602083101515610b465780518252602082019150602081019050602083039250610b21565b6001836020036101000a03801982511681845116808217855250505050505090500191505090815260200160405180910390206003019080519060200190610b8f929190611169565b505050565b806000836040518082805190602001908083835b602083101515610bcd5780518252602082019150602081019050602083039250610ba8565b6001836020036101000a03801982511681845116808217855250505050505090500191505090815260200160405180910390206000019080519060200190610c16929190611169565b505050565b60606000826040518082805190602001908083835b602083101515610c555780518252602082019150602081019050602083039250610c30565b6001836020036101000a03801982511681845116808217855250505050505090500191505090815260200160405180910390206000018054600181600116156101000203166002900480601f016020809104026020016040519081016040528092919081815260200182805460018160011615610100020316600290048015610d1f5780601f10610cf457610100808354040283529160200191610d1f565b820191906000526020600020905b815481529060010190602001808311610d0257829003601f168201915b50505050509050919050565b60606000826040518082805190602001908083835b602083101515610d655780518252602082019150602081019050602083039250610d40565b6001836020036101000a03801982511681845116808217855250505050505090500191505090815260200160405180910390206002018054600181600116156101000203166002900480601f016020809104026020016040519081016040528092919081815260200182805460018160011615610100020316600290048015610e2f5780601f10610e0457610100808354040283529160200191610e2f565b820191906000526020600020905b815481529060010190602001808311610e1257829003601f168201915b50505050509050919050565b806000836040518082805190602001908083835b602083101515610e745780518252602082019150602081019050602083039250610e4f565b6001836020036101000a03801982511681845116808217855250505050505090500191505090815260200160405180910390206002019080519060200190610ebd929190611169565b505050565b806000836040518082805190602001908083835b602083101515610efb5780518252602082019150602081019050602083039250610ed6565b6001836020036101000a03801982511681845116808217855250505050505090500191505090815260200160405180910390206004019080519060200190610f44929190611169565b505050565b60606000826040518082805190602001908083835b602083101515610f835780518252602082019150602081019050602083039250610f5e565b6001836020036101000a03801982511681845116808217855250505050505090500191505090815260200160405180910390206003018054600181600116156101000203166002900480601f01602080910402602001604051908101604052809291908181526020018280546001816001161561010002031660029004801561104d5780601f106110225761010080835404028352916020019161104d565b820191906000526020600020905b81548152906001019060200180831161103057829003601f168201915b50505050509050919050565b60606000826040518082805190602001908083835b602083101515611093578051825260208201915060208101905060208303925061106e565b6001836020036101000a03801982511681845116808217855250505050505090500191505090815260200160405180910390206004018054600181600116156101000203166002900480601f01602080910402602001604051908101604052809291908181526020018280546001816001161561010002031660029004801561115d5780601f106111325761010080835404028352916020019161115d565b820191906000526020600020905b81548152906001019060200180831161114057829003601f168201915b50505050509050919050565b828054600181600116156101000203166002900490600052602060002090601f016020900481019282601f106111aa57805160ff19168380011785556111d8565b828001600101855582156111d8579182015b828111156111d75782518255916020019190600101906111bc565b5b5090506111e591906111e9565b5090565b61120b91905b808211156112075760008160009055506001016111ef565b5090565b9056fea165627a7a72305820f202b33d674fb8ac0b8ca9cb39c458288d40407547816848830b8a10e037d5fa0029",
  "source": "// SPDX-License-Identifier: GPL-3.0\r\n\r\n// pragma solidity >=0.7.0 <0.9.0;\r\n// pragma solidity ^0.8.4;\r\npragma solidity >=0.5.1;\r\n\r\ncontract Doctors{\r\n    struct doctorInfo{\r\n        string doctorName;\r\n        string doctorId;\r\n        string doctorSpeciality;\r\n        string doctorHospital;\r\n        string doctorGender;\r\n    }\r\n\r\n    mapping(string=>doctorInfo) doctorIdInformation;\r\n\r\n\r\n    /****\r\n    This function adds the doctors Names \r\n    params _name -  doctor name\r\n    params _doctorId - doctor'a generated Id.\r\n    ****/\r\n    function addDoctorName(string memory _doctorId, string memory _name) public{\r\n        doctorIdInformation[_doctorId].doctorName = _name;\r\n    }\r\n\r\n    /****\r\n    This function returns the doctors Name\r\n    params _doctorId -  doctor name\r\n    ****/\r\n    function getDoctorName(string memory _doctorId) public view returns(string memory){\r\n        return doctorIdInformation[_doctorId].doctorName;\r\n    }\r\n\r\n    /****\r\n    This function adds the doctors Names \r\n    params _name -  doctor name\r\n    params _doctorId - doctor'a generated Id.\r\n    ****/\r\n    function addDoctorSpeciality(string memory _doctorId, string memory _speciality) public{\r\n        doctorIdInformation[_doctorId].doctorSpeciality = _speciality;\r\n    }\r\n\r\n    /****\r\n    This function returns the doctors Name\r\n    params _doctorId -  doctor name\r\n    ****/\r\n    function getDoctorSpeciality(string memory _doctorId) public view returns(string memory){\r\n        return doctorIdInformation[_doctorId].doctorSpeciality;\r\n    }\r\n    \r\n\r\n    /****\r\n    This function adds the doctors Names \r\n    params _name -  doctor name\r\n    params _doctorId - doctor'a generated Id.\r\n    ****/\r\n    function addDoctorHospital(string memory _doctorId, string memory _hospital) public{\r\n        doctorIdInformation[_doctorId].doctorHospital = _hospital;\r\n    }\r\n\r\n    /****\r\n    This function returns the doctors Name\r\n    params _doctorId -  doctor name\r\n    ****/\r\n    function getDoctorHospital(string memory _doctorId) public view returns(string memory){\r\n        return doctorIdInformation[_doctorId].doctorHospital;\r\n    }\r\n    \r\n    /****\r\n    This function adds the doctors Names \r\n    params _name -  doctor name\r\n    params _doctorId - doctor'a generated Id.\r\n    ****/\r\n    function addDoctorGender(string memory _doctorId, string memory _gender) public{\r\n        doctorIdInformation[_doctorId].doctorGender = _gender;\r\n    }\r\n\r\n    /****\r\n    This function returns the doctors Name\r\n    params _doctorId -  doctor name\r\n    ****/\r\n    function getDoctorGender(string memory _doctorId) public view returns(string memory){\r\n        return doctorIdInformation[_doctorId].doctorGender;\r\n    }\r\n\r\n}",
  "sourcePath": "C:/Users/Neeraj/Desktop/Meidcal Health Records/src/contracts/Doctors.sol",
  "compiler": {
    "name": "solc",
    "version": "0.5.1+commit.c8a2cb62.Emscripten.clang"
  },
  "schemaVersion": "3.0.1",
  "updatedAt": "2022-05-21T17:22:12.431Z",
  "devdoc": {
    "methods": {}
  },
  "userdoc": {
    "methods": {
      "addDoctorGender(string,string)": {
        "notice": "**\r This function adds the doctors Names \r params _name -  doctor name\r params _doctorId - doctor'a generated Id.\r***"
      },
      "addDoctorHospital(string,string)": {
        "notice": "**\r This function adds the doctors Names \r params _name -  doctor name\r params _doctorId - doctor'a generated Id.\r***"
      },
      "addDoctorName(string,string)": {
        "notice": "**\r This function adds the doctors Names \r params _name -  doctor name\r params _doctorId - doctor'a generated Id.\r***"
      },
      "addDoctorSpeciality(string,string)": {
        "notice": "**\r This function adds the doctors Names \r params _name -  doctor name\r params _doctorId - doctor'a generated Id.\r***"
      },
      "getDoctorGender(string)": {
        "notice": "**\r This function returns the doctors Name\r params _doctorId -  doctor name\r***"
      },
      "getDoctorHospital(string)": {
        "notice": "**\r This function returns the doctors Name\r params _doctorId -  doctor name\r***"
      },
      "getDoctorName(string)": {
        "notice": "**\r This function returns the doctors Name\r params _doctorId -  doctor name\r***"
      },
      "getDoctorSpeciality(string)": {
        "notice": "**\r This function returns the doctors Name\r params _doctorId -  doctor name\r***"
      }
    }
  }
}