{
  "contractName": "GetMedicalInfo",
  "abi": [
    {
      "inputs": [
        {
          "internalType": "contract Patients",
          "name": "_patientsContractAddress",
          "type": "address"
        },
        {
          "internalType": "contract Doctors",
          "name": "_doctorsContractAddress",
          "type": "address"
        },
        {
          "internalType": "contract Records",
          "name": "_recordsContractAddress",
          "type": "address"
        }
      ],
      "payable": false,
      "stateMutability": "nonpayable",
      "type": "constructor",
      "signature": "constructor"
    },
    {
      "constant": false,
      "inputs": [
        {
          "internalType": "address",
          "name": "_doctorAddress",
          "type": "address"
        }
      ],
      "name": "addAuthorisedDoctor",
      "outputs": [],
      "payable": false,
      "stateMutability": "nonpayable",
      "type": "function",
      "signature": "0x25da1c77"
    },
    {
      "constant": true,
      "inputs": [],
      "name": "owner",
      "outputs": [
        {
          "internalType": "address",
          "name": "",
          "type": "address"
        }
      ],
      "payable": false,
      "stateMutability": "view",
      "type": "function",
      "signature": "0x8da5cb5b"
    },
    {
      "constant": true,
      "inputs": [
        {
          "internalType": "string",
          "name": "_patientId",
          "type": "string"
        }
      ],
      "name": "getMedicalInfoPatient",
      "outputs": [
        {
          "internalType": "string",
          "name": "",
          "type": "string"
        },
        {
          "internalType": "string",
          "name": "",
          "type": "string"
        },
        {
          "internalType": "string",
          "name": "",
          "type": "string"
        },
        {
          "internalType": "string",
          "name": "",
          "type": "string"
        },
        {
          "internalType": "string",
          "name": "",
          "type": "string"
        },
        {
          "internalType": "string",
          "name": "",
          "type": "string"
        }
      ],
      "payable": false,
      "stateMutability": "view",
      "type": "function",
      "signature": "0x22ae8cef"
    },
    {
      "constant": true,
      "inputs": [
        {
          "internalType": "string",
          "name": "_doctorId",
          "type": "string"
        }
      ],
      "name": "getMedicalInfoDoctor",
      "outputs": [
        {
          "internalType": "string",
          "name": "",
          "type": "string"
        },
        {
          "internalType": "string",
          "name": "",
          "type": "string"
        },
        {
          "internalType": "string",
          "name": "",
          "type": "string"
        },
        {
          "internalType": "string",
          "name": "",
          "type": "string"
        }
      ],
      "payable": false,
      "stateMutability": "view",
      "type": "function",
      "signature": "0x9b781210"
    },
    {
      "constant": true,
      "inputs": [
        {
          "internalType": "string",
          "name": "_patientId",
          "type": "string"
        }
      ],
      "name": "getMedicalRecords",
      "outputs": [
        {
          "internalType": "string",
          "name": "",
          "type": "string"
        },
        {
          "internalType": "string",
          "name": "",
          "type": "string"
        },
        {
          "internalType": "string",
          "name": "",
          "type": "string"
        },
        {
          "internalType": "string",
          "name": "",
          "type": "string"
        },
        {
          "internalType": "string",
          "name": "",
          "type": "string"
        },
        {
          "internalType": "string",
          "name": "",
          "type": "string"
        }
      ],
      "payable": false,
      "stateMutability": "view",
      "type": "function",
      "signature": "0xca08b7d1"
    }
  ],
  "bytecode": "0x608060405234801561001057600080fd5b50604051612fbf380380612fbf8339818101604052606081101561003357600080fd5b81019080805190602001909291908051906020019092919080519060200190929190505050336000806101000a81548173ffffffffffffffffffffffffffffffffffffffff021916908373ffffffffffffffffffffffffffffffffffffffff16021790555060016000809054906101000a900473ffffffffffffffffffffffffffffffffffffffff1690806001815401808255809150509060018203906000526020600020016000909192909190916101000a81548173ffffffffffffffffffffffffffffffffffffffff021916908373ffffffffffffffffffffffffffffffffffffffff160217905550506001600260008060009054906101000a900473ffffffffffffffffffffffffffffffffffffffff1673ffffffffffffffffffffffffffffffffffffffff1673ffffffffffffffffffffffffffffffffffffffff16815260200190815260200160002060006101000a81548160ff02191690831515021790555082600360006101000a81548173ffffffffffffffffffffffffffffffffffffffff021916908373ffffffffffffffffffffffffffffffffffffffff16021790555081600460006101000a81548173ffffffffffffffffffffffffffffffffffffffff021916908373ffffffffffffffffffffffffffffffffffffffff16021790555080600560006101000a81548173ffffffffffffffffffffffffffffffffffffffff021916908373ffffffffffffffffffffffffffffffffffffffff160217905550505050612d528061026d6000396000f3fe608060405234801561001057600080fd5b5060043610610074576000357c01000000000000000000000000000000000000000000000000000000009004806322ae8cef1461007957806325da1c77146103c95780638da5cb5b1461040d5780639b78121014610457578063ca08b7d1146106cf575b600080fd5b6101326004803603602081101561008f57600080fd5b81019080803590602001906401000000008111156100ac57600080fd5b8201836020820111156100be57600080fd5b803590602001918460018302840111640100000000831117156100e057600080fd5b91908080601f016020809104026020016040519081016040528093929190818152602001838380828437600081840152601f19601f820116905080830192505050505050509192919290505050610a1f565b6040518080602001806020018060200180602001806020018060200187810387528d818151815260200191508051906020019080838360005b8381101561018657808201518184015260208101905061016b565b50505050905090810190601f1680156101b35780820380516001836020036101000a031916815260200191505b5087810386528c818151815260200191508051906020019080838360005b838110156101ec5780820151818401526020810190506101d1565b50505050905090810190601f1680156102195780820380516001836020036101000a031916815260200191505b5087810385528b818151815260200191508051906020019080838360005b83811015610252578082015181840152602081019050610237565b50505050905090810190601f16801561027f5780820380516001836020036101000a031916815260200191505b5087810384528a818151815260200191508051906020019080838360005b838110156102b857808201518184015260208101905061029d565b50505050905090810190601f1680156102e55780820380516001836020036101000a031916815260200191505b50878103835289818151815260200191508051906020019080838360005b8381101561031e578082015181840152602081019050610303565b50505050905090810190601f16801561034b5780820380516001836020036101000a031916815260200191505b50878103825288818151815260200191508051906020019080838360005b83811015610384578082015181840152602081019050610369565b50505050905090810190601f1680156103b15780820380516001836020036101000a031916815260200191505b509c5050505050505050505050505060405180910390f35b61040b600480360360208110156103df57600080fd5b81019080803573ffffffffffffffffffffffffffffffffffffffff169060200190929190505050611676565b005b6104156117dc565b604051808273ffffffffffffffffffffffffffffffffffffffff1673ffffffffffffffffffffffffffffffffffffffff16815260200191505060405180910390f35b6105106004803603602081101561046d57600080fd5b810190808035906020019064010000000081111561048a57600080fd5b82018360208201111561049c57600080fd5b803590602001918460018302840111640100000000831117156104be57600080fd5b91908080601f016020809104026020016040519081016040528093929190818152602001838380828437600081840152601f19601f820116905080830192505050505050509192919290505050611801565b6040518080602001806020018060200180602001858103855289818151815260200191508051906020019080838360005b8381101561055c578082015181840152602081019050610541565b50505050905090810190601f1680156105895780820380516001836020036101000a031916815260200191505b50858103845288818151815260200191508051906020019080838360005b838110156105c25780820151818401526020810190506105a7565b50505050905090810190601f1680156105ef5780820380516001836020036101000a031916815260200191505b50858103835287818151815260200191508051906020019080838360005b8381101561062857808201518184015260208101905061060d565b50505050905090810190601f1680156106555780820380516001836020036101000a031916815260200191505b50858103825286818151815260200191508051906020019080838360005b8381101561068e578082015181840152602081019050610673565b50505050905090810190601f1680156106bb5780820380516001836020036101000a031916815260200191505b509850505050505050505060405180910390f35b610788600480360360208110156106e557600080fd5b810190808035906020019064010000000081111561070257600080fd5b82018360208201111561071457600080fd5b8035906020019184600183028401116401000000008311171561073657600080fd5b91908080601f016020809104026020016040519081016040528093929190818152602001838380828437600081840152601f19601f820116905080830192505050505050509192919290505050612075565b6040518080602001806020018060200180602001806020018060200187810387528d818151815260200191508051906020019080838360005b838110156107dc5780820151818401526020810190506107c1565b50505050905090810190601f1680156108095780820380516001836020036101000a031916815260200191505b5087810386528c818151815260200191508051906020019080838360005b83811015610842578082015181840152602081019050610827565b50505050905090810190601f16801561086f5780820380516001836020036101000a031916815260200191505b5087810385528b818151815260200191508051906020019080838360005b838110156108a857808201518184015260208101905061088d565b50505050905090810190601f1680156108d55780820380516001836020036101000a031916815260200191505b5087810384528a818151815260200191508051906020019080838360005b8381101561090e5780820151818401526020810190506108f3565b50505050905090810190601f16801561093b5780820380516001836020036101000a031916815260200191505b50878103835289818151815260200191508051906020019080838360005b83811015610974578082015181840152602081019050610959565b50505050905090810190601f1680156109a15780820380516001836020036101000a031916815260200191505b50878103825288818151815260200191508051906020019080838360005b838110156109da5780820151818401526020810190506109bf565b50505050905090810190601f168015610a075780820380516001836020036101000a031916815260200191505b509c5050505050505050505050505060405180910390f35b6060806060806060803360011515600260003373ffffffffffffffffffffffffffffffffffffffff1673ffffffffffffffffffffffffffffffffffffffff16815260200190815260200160002060009054906101000a900460ff16151514610ad2576040517f08c379a0000000000000000000000000000000000000000000000000000000008152600401808060200182810382526029815260200180612ccd6029913960400191505060405180910390fd5b600360009054906101000a900473ffffffffffffffffffffffffffffffffffffffff1673ffffffffffffffffffffffffffffffffffffffff166395e587f5896040518263ffffffff167c01000000000000000000000000000000000000000000000000000000000281526004018080602001828103825283818151815260200191508051906020019080838360005b83811015610b7c578082015181840152602081019050610b61565b50505050905090810190601f168015610ba95780820380516001836020036101000a031916815260200191505b509250505060006040518083038186803b158015610bc657600080fd5b505afa158015610bda573d6000803e3d6000fd5b505050506040513d6000823e3d601f19601f820116820180604052506020811015610c0457600080fd5b8101908080516040519392919084640100000000821115610c2457600080fd5b83820191506020820185811115610c3a57600080fd5b8251866001820283011164010000000082111715610c5757600080fd5b8083526020830192505050908051906020019080838360005b83811015610c8b578082015181840152602081019050610c70565b50505050905090810190601f168015610cb85780820380516001836020036101000a031916815260200191505b50604052505050600360009054906101000a900473ffffffffffffffffffffffffffffffffffffffff1673ffffffffffffffffffffffffffffffffffffffff1663a0d48fad8a6040518263ffffffff167c01000000000000000000000000000000000000000000000000000000000281526004018080602001828103825283818151815260200191508051906020019080838360005b83811015610d69578082015181840152602081019050610d4e565b50505050905090810190601f168015610d965780820380516001836020036101000a031916815260200191505b509250505060006040518083038186803b158015610db357600080fd5b505afa158015610dc7573d6000803e3d6000fd5b505050506040513d6000823e3d601f19601f820116820180604052506020811015610df157600080fd5b8101908080516040519392919084640100000000821115610e1157600080fd5b83820191506020820185811115610e2757600080fd5b8251866001820283011164010000000082111715610e4457600080fd5b8083526020830192505050908051906020019080838360005b83811015610e78578082015181840152602081019050610e5d565b50505050905090810190601f168015610ea55780820380516001836020036101000a031916815260200191505b50604052505050600360009054906101000a900473ffffffffffffffffffffffffffffffffffffffff1673ffffffffffffffffffffffffffffffffffffffff166325c723d38b6040518263ffffffff167c01000000000000000000000000000000000000000000000000000000000281526004018080602001828103825283818151815260200191508051906020019080838360005b83811015610f56578082015181840152602081019050610f3b565b50505050905090810190601f168015610f835780820380516001836020036101000a031916815260200191505b509250505060006040518083038186803b158015610fa057600080fd5b505afa158015610fb4573d6000803e3d6000fd5b505050506040513d6000823e3d601f19601f820116820180604052506020811015610fde57600080fd5b8101908080516040519392919084640100000000821115610ffe57600080fd5b8382019150602082018581111561101457600080fd5b825186600182028301116401000000008211171561103157600080fd5b8083526020830192505050908051906020019080838360005b8381101561106557808201518184015260208101905061104a565b50505050905090810190601f1680156110925780820380516001836020036101000a031916815260200191505b50604052505050600360009054906101000a900473ffffffffffffffffffffffffffffffffffffffff1673ffffffffffffffffffffffffffffffffffffffff1663ca987a308c6040518263ffffffff167c01000000000000000000000000000000000000000000000000000000000281526004018080602001828103825283818151815260200191508051906020019080838360005b83811015611143578082015181840152602081019050611128565b50505050905090810190601f1680156111705780820380516001836020036101000a031916815260200191505b509250505060006040518083038186803b15801561118d57600080fd5b505afa1580156111a1573d6000803e3d6000fd5b505050506040513d6000823e3d601f19601f8201168201806040525060208110156111cb57600080fd5b81019080805160405193929190846401000000008211156111eb57600080fd5b8382019150602082018581111561120157600080fd5b825186600182028301116401000000008211171561121e57600080fd5b8083526020830192505050908051906020019080838360005b83811015611252578082015181840152602081019050611237565b50505050905090810190601f16801561127f5780820380516001836020036101000a031916815260200191505b50604052505050600360009054906101000a900473ffffffffffffffffffffffffffffffffffffffff1673ffffffffffffffffffffffffffffffffffffffff1663d19d5b838d6040518263ffffffff167c01000000000000000000000000000000000000000000000000000000000281526004018080602001828103825283818151815260200191508051906020019080838360005b83811015611330578082015181840152602081019050611315565b50505050905090810190601f16801561135d5780820380516001836020036101000a031916815260200191505b509250505060006040518083038186803b15801561137a57600080fd5b505afa15801561138e573d6000803e3d6000fd5b505050506040513d6000823e3d601f19601f8201168201806040525060208110156113b857600080fd5b81019080805160405193929190846401000000008211156113d857600080fd5b838201915060208201858111156113ee57600080fd5b825186600182028301116401000000008211171561140b57600080fd5b8083526020830192505050908051906020019080838360005b8381101561143f578082015181840152602081019050611424565b50505050905090810190601f16801561146c5780820380516001836020036101000a031916815260200191505b50604052505050600360009054906101000a900473ffffffffffffffffffffffffffffffffffffffff1673ffffffffffffffffffffffffffffffffffffffff16636df36bc68e6040518263ffffffff167c01000000000000000000000000000000000000000000000000000000000281526004018080602001828103825283818151815260200191508051906020019080838360005b8381101561151d578082015181840152602081019050611502565b50505050905090810190601f16801561154a5780820380516001836020036101000a031916815260200191505b509250505060006040518083038186803b15801561156757600080fd5b505afa15801561157b573d6000803e3d6000fd5b505050506040513d6000823e3d601f19601f8201168201806040525060208110156115a557600080fd5b81019080805160405193929190846401000000008211156115c557600080fd5b838201915060208201858111156115db57600080fd5b82518660018202830111640100000000821117156115f857600080fd5b8083526020830192505050908051906020019080838360005b8381101561162c578082015181840152602081019050611611565b50505050905090810190601f1680156116595780820380516001836020036101000a031916815260200191505b506040525050509650965096509650965096505091939550919395565b6000809054906101000a900473ffffffffffffffffffffffffffffffffffffffff1673ffffffffffffffffffffffffffffffffffffffff163373ffffffffffffffffffffffffffffffffffffffff161461171b576040517f08c379a0000000000000000000000000000000000000000000000000000000008152600401808060200182810382526028815260200180612cf66028913960400191505060405180910390fd5b60018190806001815401808255809150509060018203906000526020600020016000909192909190916101000a81548173ffffffffffffffffffffffffffffffffffffffff021916908373ffffffffffffffffffffffffffffffffffffffff160217905550506001600260008373ffffffffffffffffffffffffffffffffffffffff1673ffffffffffffffffffffffffffffffffffffffff16815260200190815260200160002060006101000a81548160ff02191690831515021790555050565b6000809054906101000a900473ffffffffffffffffffffffffffffffffffffffff1681565b6060806060803360011515600260003373ffffffffffffffffffffffffffffffffffffffff1673ffffffffffffffffffffffffffffffffffffffff16815260200190815260200160002060009054906101000a900460ff161515146118b1576040517f08c379a0000000000000000000000000000000000000000000000000000000008152600401808060200182810382526029815260200180612ccd6029913960400191505060405180910390fd5b600460009054906101000a900473ffffffffffffffffffffffffffffffffffffffff1673ffffffffffffffffffffffffffffffffffffffff1663451644ba876040518263ffffffff167c01000000000000000000000000000000000000000000000000000000000281526004018080602001828103825283818151815260200191508051906020019080838360005b8381101561195b578082015181840152602081019050611940565b50505050905090810190601f1680156119885780820380516001836020036101000a031916815260200191505b509250505060006040518083038186803b1580156119a557600080fd5b505afa1580156119b9573d6000803e3d6000fd5b505050506040513d6000823e3d601f19601f8201168201806040525060208110156119e357600080fd5b8101908080516040519392919084640100000000821115611a0357600080fd5b83820191506020820185811115611a1957600080fd5b8251866001820283011164010000000082111715611a3657600080fd5b8083526020830192505050908051906020019080838360005b83811015611a6a578082015181840152602081019050611a4f565b50505050905090810190601f168015611a975780820380516001836020036101000a031916815260200191505b50604052505050600460009054906101000a900473ffffffffffffffffffffffffffffffffffffffff1673ffffffffffffffffffffffffffffffffffffffff166345824eff886040518263ffffffff167c01000000000000000000000000000000000000000000000000000000000281526004018080602001828103825283818151815260200191508051906020019080838360005b83811015611b48578082015181840152602081019050611b2d565b50505050905090810190601f168015611b755780820380516001836020036101000a031916815260200191505b509250505060006040518083038186803b158015611b9257600080fd5b505afa158015611ba6573d6000803e3d6000fd5b505050506040513d6000823e3d601f19601f820116820180604052506020811015611bd057600080fd5b8101908080516040519392919084640100000000821115611bf057600080fd5b83820191506020820185811115611c0657600080fd5b8251866001820283011164010000000082111715611c2357600080fd5b8083526020830192505050908051906020019080838360005b83811015611c57578082015181840152602081019050611c3c565b50505050905090810190601f168015611c845780820380516001836020036101000a031916815260200191505b50604052505050600460009054906101000a900473ffffffffffffffffffffffffffffffffffffffff1673ffffffffffffffffffffffffffffffffffffffff1663b4d31147896040518263ffffffff167c01000000000000000000000000000000000000000000000000000000000281526004018080602001828103825283818151815260200191508051906020019080838360005b83811015611d35578082015181840152602081019050611d1a565b50505050905090810190601f168015611d625780820380516001836020036101000a031916815260200191505b509250505060006040518083038186803b158015611d7f57600080fd5b505afa158015611d93573d6000803e3d6000fd5b505050506040513d6000823e3d601f19601f820116820180604052506020811015611dbd57600080fd5b8101908080516040519392919084640100000000821115611ddd57600080fd5b83820191506020820185811115611df357600080fd5b8251866001820283011164010000000082111715611e1057600080fd5b8083526020830192505050908051906020019080838360005b83811015611e44578082015181840152602081019050611e29565b50505050905090810190601f168015611e715780820380516001836020036101000a031916815260200191505b50604052505050600460009054906101000a900473ffffffffffffffffffffffffffffffffffffffff1673ffffffffffffffffffffffffffffffffffffffff1663b85390be8a6040518263ffffffff167c01000000000000000000000000000000000000000000000000000000000281526004018080602001828103825283818151815260200191508051906020019080838360005b83811015611f22578082015181840152602081019050611f07565b50505050905090810190601f168015611f4f5780820380516001836020036101000a031916815260200191505b509250505060006040518083038186803b158015611f6c57600080fd5b505afa158015611f80573d6000803e3d6000fd5b505050506040513d6000823e3d601f19601f820116820180604052506020811015611faa57600080fd5b8101908080516040519392919084640100000000821115611fca57600080fd5b83820191506020820185811115611fe057600080fd5b8251866001820283011164010000000082111715611ffd57600080fd5b8083526020830192505050908051906020019080838360005b83811015612031578082015181840152602081019050612016565b50505050905090810190601f16801561205e5780820380516001836020036101000a031916815260200191505b506040525050509450945094509450509193509193565b6060806060806060803360011515600260003373ffffffffffffffffffffffffffffffffffffffff1673ffffffffffffffffffffffffffffffffffffffff16815260200190815260200160002060009054906101000a900460ff16151514612128576040517f08c379a0000000000000000000000000000000000000000000000000000000008152600401808060200182810382526029815260200180612ccd6029913960400191505060405180910390fd5b600560009054906101000a900473ffffffffffffffffffffffffffffffffffffffff1673ffffffffffffffffffffffffffffffffffffffff1663dd1388c2896040518263ffffffff167c01000000000000000000000000000000000000000000000000000000000281526004018080602001828103825283818151815260200191508051906020019080838360005b838110156121d25780820151818401526020810190506121b7565b50505050905090810190601f1680156121ff5780820380516001836020036101000a031916815260200191505b509250505060006040518083038186803b15801561221c57600080fd5b505afa158015612230573d6000803e3d6000fd5b505050506040513d6000823e3d601f19601f82011682018060405250602081101561225a57600080fd5b810190808051604051939291908464010000000082111561227a57600080fd5b8382019150602082018581111561229057600080fd5b82518660018202830111640100000000821117156122ad57600080fd5b8083526020830192505050908051906020019080838360005b838110156122e15780820151818401526020810190506122c6565b50505050905090810190601f16801561230e5780820380516001836020036101000a031916815260200191505b50604052505050600560009054906101000a900473ffffffffffffffffffffffffffffffffffffffff1673ffffffffffffffffffffffffffffffffffffffff16637c7b5ee88a6040518263ffffffff167c01000000000000000000000000000000000000000000000000000000000281526004018080602001828103825283818151815260200191508051906020019080838360005b838110156123bf5780820151818401526020810190506123a4565b50505050905090810190601f1680156123ec5780820380516001836020036101000a031916815260200191505b509250505060006040518083038186803b15801561240957600080fd5b505afa15801561241d573d6000803e3d6000fd5b505050506040513d6000823e3d601f19601f82011682018060405250602081101561244757600080fd5b810190808051604051939291908464010000000082111561246757600080fd5b8382019150602082018581111561247d57600080fd5b825186600182028301116401000000008211171561249a57600080fd5b8083526020830192505050908051906020019080838360005b838110156124ce5780820151818401526020810190506124b3565b50505050905090810190601f1680156124fb5780820380516001836020036101000a031916815260200191505b50604052505050600560009054906101000a900473ffffffffffffffffffffffffffffffffffffffff1673ffffffffffffffffffffffffffffffffffffffff1663f2c6d3cc8b6040518263ffffffff167c01000000000000000000000000000000000000000000000000000000000281526004018080602001828103825283818151815260200191508051906020019080838360005b838110156125ac578082015181840152602081019050612591565b50505050905090810190601f1680156125d95780820380516001836020036101000a031916815260200191505b509250505060006040518083038186803b1580156125f657600080fd5b505afa15801561260a573d6000803e3d6000fd5b505050506040513d6000823e3d601f19601f82011682018060405250602081101561263457600080fd5b810190808051604051939291908464010000000082111561265457600080fd5b8382019150602082018581111561266a57600080fd5b825186600182028301116401000000008211171561268757600080fd5b8083526020830192505050908051906020019080838360005b838110156126bb5780820151818401526020810190506126a0565b50505050905090810190601f1680156126e85780820380516001836020036101000a031916815260200191505b50604052505050600560009054906101000a900473ffffffffffffffffffffffffffffffffffffffff1673ffffffffffffffffffffffffffffffffffffffff166335cbe12c8c6040518263ffffffff167c01000000000000000000000000000000000000000000000000000000000281526004018080602001828103825283818151815260200191508051906020019080838360005b8381101561279957808201518184015260208101905061277e565b50505050905090810190601f1680156127c65780820380516001836020036101000a031916815260200191505b509250505060006040518083038186803b1580156127e357600080fd5b505afa1580156127f7573d6000803e3d6000fd5b505050506040513d6000823e3d601f19601f82011682018060405250602081101561282157600080fd5b810190808051604051939291908464010000000082111561284157600080fd5b8382019150602082018581111561285757600080fd5b825186600182028301116401000000008211171561287457600080fd5b8083526020830192505050908051906020019080838360005b838110156128a857808201518184015260208101905061288d565b50505050905090810190601f1680156128d55780820380516001836020036101000a031916815260200191505b50604052505050600560009054906101000a900473ffffffffffffffffffffffffffffffffffffffff1673ffffffffffffffffffffffffffffffffffffffff1663a0595e898d6040518263ffffffff167c01000000000000000000000000000000000000000000000000000000000281526004018080602001828103825283818151815260200191508051906020019080838360005b8381101561298657808201518184015260208101905061296b565b50505050905090810190601f1680156129b35780820380516001836020036101000a031916815260200191505b509250505060006040518083038186803b1580156129d057600080fd5b505afa1580156129e4573d6000803e3d6000fd5b505050506040513d6000823e3d601f19601f820116820180604052506020811015612a0e57600080fd5b8101908080516040519392919084640100000000821115612a2e57600080fd5b83820191506020820185811115612a4457600080fd5b8251866001820283011164010000000082111715612a6157600080fd5b8083526020830192505050908051906020019080838360005b83811015612a95578082015181840152602081019050612a7a565b50505050905090810190601f168015612ac25780820380516001836020036101000a031916815260200191505b50604052505050600560009054906101000a900473ffffffffffffffffffffffffffffffffffffffff1673ffffffffffffffffffffffffffffffffffffffff16632324d5208e6040518263ffffffff167c01000000000000000000000000000000000000000000000000000000000281526004018080602001828103825283818151815260200191508051906020019080838360005b83811015612b73578082015181840152602081019050612b58565b50505050905090810190601f168015612ba05780820380516001836020036101000a031916815260200191505b509250505060006040518083038186803b158015612bbd57600080fd5b505afa158015612bd1573d6000803e3d6000fd5b505050506040513d6000823e3d601f19601f820116820180604052506020811015612bfb57600080fd5b8101908080516040519392919084640100000000821115612c1b57600080fd5b83820191506020820185811115612c3157600080fd5b8251866001820283011164010000000082111715612c4e57600080fd5b8083526020830192505050908051906020019080838360005b83811015612c82578082015181840152602081019050612c67565b50505050905090810190601f168015612caf5780820380516001836020036101000a031916815260200191505b50604052505050965096509650965096509650509193955091939556fe596f7520617265204e6f7420617574686f726973656420746f204163636573732074686520646174614f7070732c20596f752077696c6c206e65656420746f20636f6e7461637420746865206f776e6572a265627a7a72315820a712ed203050cebe0d3f1e21d6e026aac3f54d3bb783bb15ebdec302a39fcbf464736f6c63430005110032",
  "source": "// SPDX-License-Identifier: GPL-3.0\r\n\r\n// pragma solidity >=0.7.0 <0.9.0;\r\npragma solidity 0.5.17;\r\nimport './Patients.sol';\r\nimport './Doctors.sol';\r\nimport './AccessControl.sol';\r\nimport './Records.sol';\r\n//all the information will be sent here to get the Information from the blockchain..\r\n\r\ncontract GetMedicalInfo is AccessControl{\r\n\r\n    //Creating the Contracts instances of Doctor and Patient.\r\n    Patients patient_;\r\n    Doctors doctor_;\r\n    Records record_;\r\n\r\n    // constructor(address _patientsContractAddress, address _doctorsContractAddress, address _recordsContractAddress) public {\r\n    constructor(Patients _patientsContractAddress, Doctors _doctorsContractAddress, Records _recordsContractAddress) public {\r\n        //updating the contracts instances with the addresses of the constructor\r\n        patient_ = Patients(_patientsContractAddress);\r\n        doctor_ = Doctors(_doctorsContractAddress);\r\n        record_ = Records(_recordsContractAddress);\r\n    }\r\n\r\n    /****\r\n        Function getMedicalInfoPatient gets the information of the patient in the patient contract.\r\n        parameters passed are:\r\n        string patientId\r\n    ****/\r\n\r\n    //The information in Patient Contract is get using: patientContractInstance.FunctionName(Parameters);\r\n    //the address in OnlyDoctor will be sent from the metamsk....\r\n    // \r\n    function getMedicalInfoPatient(string memory _patientId) public view onlyDoctor(msg.sender) returns(string memory, string memory, string memory, string memory, string memory, string memory){\r\n        return(\r\n        patient_.getPatientName(_patientId),\r\n        patient_.getPatientMobileNumber(_patientId),\r\n        patient_.getPatientGender(_patientId),\r\n        patient_.getPatientAddress(_patientId),\r\n        patient_.getPatientDateOfBirth(_patientId),\r\n        patient_.getPatientAllergies(_patientId)\r\n        );\r\n    } \r\n\r\n    /****\r\n        Function getMedicalInfoDoctor gets the information of the Doctor in the Doctor contract.\r\n        parameters passed are:\r\n        string doctorId;\r\n    ****/\r\n\r\n    //The information in Doctor Contract is retrieved using: doctorContractInstance.FunctionName(Parameters);\r\n    \r\n    function getMedicalInfoDoctor(string memory _doctorId) public view onlyDoctor(msg.sender) returns(string memory , string memory , string memory , string memory){\r\n        \r\n        return (doctor_.getDoctorName(_doctorId),\r\n        doctor_.getDoctorSpeciality(_doctorId),\r\n        doctor_.getDoctorHospital(_doctorId),\r\n        doctor_.getDoctorGender(_doctorId));\r\n    }\r\n\r\n    /****\r\n        Function getMedicalRecords gets the information of the Patients Medical record from the Records contract.\r\n        parameters passed are:\r\n        string patientId;\r\n    ****/\r\n    \r\n    function getMedicalRecords(string memory _patientId) public view onlyDoctor(msg.sender) returns(string memory, string memory, string memory , string memory , string memory , string memory) {\r\n        return(\r\n        record_.getLastUpdated(_patientId),\r\n        record_.getCurrentMedicalDosage(_patientId),\r\n        record_.getUpdatedBy(_patientId),\r\n        record_.getCurrentDiagnosis(_patientId),\r\n        record_.getPDFreport(_patientId),\r\n        record_.getAllPDFReports(_patientId)\r\n        );\r\n    }\r\n\r\n}\r\n",
  "sourcePath": "C:/Users/Neeraj/Desktop/Meidcal Health Records/src/contracts/GetMedicalInfo.sol",
  "compiler": {
    "name": "solc",
    "version": "0.5.17+commit.d19bba13.Emscripten.clang"
  },
  "schemaVersion": "3.0.1",
  "updatedAt": "2022-05-28T12:40:19.623Z",
  "devdoc": {
    "methods": {}
  },
  "userdoc": {
    "methods": {
      "addAuthorisedDoctor(address)": {
        "notice": "**  Updates the doctorsAddress in the database of authorised doctors. Along with this, check for the isOwner, if the caller is owner, then only it is allowed to Add the address. Parameter passed - _doctorAddress***"
      },
      "getMedicalInfoDoctor(string)": {
        "notice": "** Function getMedicalInfoDoctor gets the information of the Doctor in the Doctor contract. parameters passed are: string doctorId;***"
      },
      "getMedicalInfoPatient(string)": {
        "notice": "** Function getMedicalInfoPatient gets the information of the patient in the patient contract. parameters passed are: string patientId***"
      },
      "getMedicalRecords(string)": {
        "notice": "** Function getMedicalRecords gets the information of the Patients Medical record from the Records contract. parameters passed are: string patientId;***"
      }
    }
  }
}