{
  "contractName": "GetMedicalInfo",
  "abi": [
    {
      "inputs": [
        {
          "internalType": "contract Patients",
          "name": "_patientsContractAddress",
          "type": "address"
        },
        {
          "internalType": "contract Doctors",
          "name": "_doctorsContractAddress",
          "type": "address"
        },
        {
          "internalType": "contract Records",
          "name": "_recordsContractAddress",
          "type": "address"
        }
      ],
      "payable": false,
      "stateMutability": "nonpayable",
      "type": "constructor",
      "signature": "constructor"
    },
    {
      "constant": false,
      "inputs": [
        {
          "internalType": "address",
          "name": "_doctorAddress",
          "type": "address"
        }
      ],
      "name": "addAuthorisedDoctor",
      "outputs": [],
      "payable": false,
      "stateMutability": "nonpayable",
      "type": "function",
      "signature": "0x25da1c77"
    },
    {
      "constant": true,
      "inputs": [],
      "name": "owner",
      "outputs": [
        {
          "internalType": "address",
          "name": "",
          "type": "address"
        }
      ],
      "payable": false,
      "stateMutability": "view",
      "type": "function",
      "signature": "0x8da5cb5b"
    },
    {
      "constant": false,
      "inputs": [
        {
          "internalType": "address",
          "name": "_doctorAddress",
          "type": "address"
        }
      ],
      "name": "removeAuthorisedDoctor",
      "outputs": [],
      "payable": false,
      "stateMutability": "nonpayable",
      "type": "function",
      "signature": "0x42d68838"
    },
    {
      "constant": true,
      "inputs": [
        {
          "internalType": "string",
          "name": "_patientId",
          "type": "string"
        }
      ],
      "name": "getMedicalInfoPatient",
      "outputs": [
        {
          "internalType": "string",
          "name": "",
          "type": "string"
        },
        {
          "internalType": "string",
          "name": "",
          "type": "string"
        },
        {
          "internalType": "string",
          "name": "",
          "type": "string"
        },
        {
          "internalType": "string",
          "name": "",
          "type": "string"
        },
        {
          "internalType": "string",
          "name": "",
          "type": "string"
        },
        {
          "internalType": "string",
          "name": "",
          "type": "string"
        }
      ],
      "payable": false,
      "stateMutability": "view",
      "type": "function",
      "signature": "0x22ae8cef"
    },
    {
      "constant": true,
      "inputs": [
        {
          "internalType": "string",
          "name": "_doctorId",
          "type": "string"
        }
      ],
      "name": "getMedicalInfoDoctor",
      "outputs": [
        {
          "internalType": "string",
          "name": "",
          "type": "string"
        },
        {
          "internalType": "string",
          "name": "",
          "type": "string"
        },
        {
          "internalType": "string",
          "name": "",
          "type": "string"
        },
        {
          "internalType": "string",
          "name": "",
          "type": "string"
        }
      ],
      "payable": false,
      "stateMutability": "view",
      "type": "function",
      "signature": "0x9b781210"
    },
    {
      "constant": true,
      "inputs": [
        {
          "internalType": "string",
          "name": "_patientId",
          "type": "string"
        }
      ],
      "name": "getMedicalRecords",
      "outputs": [
        {
          "internalType": "string",
          "name": "",
          "type": "string"
        },
        {
          "internalType": "string",
          "name": "",
          "type": "string"
        },
        {
          "internalType": "string",
          "name": "",
          "type": "string"
        },
        {
          "internalType": "string",
          "name": "",
          "type": "string"
        },
        {
          "internalType": "string",
          "name": "",
          "type": "string"
        },
        {
          "internalType": "string",
          "name": "",
          "type": "string"
        }
      ],
      "payable": false,
      "stateMutability": "view",
      "type": "function",
      "signature": "0xca08b7d1"
    }
  ],
  "bytecode": "0x608060405234801561001057600080fd5b5060405161301f38038061301f8339818101604052606081101561003357600080fd5b81019080805190602001909291908051906020019092919080519060200190929190505050336000806101000a81548173ffffffffffffffffffffffffffffffffffffffff021916908373ffffffffffffffffffffffffffffffffffffffff16021790555060018060008060009054906101000a900473ffffffffffffffffffffffffffffffffffffffff1673ffffffffffffffffffffffffffffffffffffffff1673ffffffffffffffffffffffffffffffffffffffff16815260200190815260200160002060006101000a81548160ff02191690831515021790555082600260006101000a81548173ffffffffffffffffffffffffffffffffffffffff021916908373ffffffffffffffffffffffffffffffffffffffff16021790555081600360006101000a81548173ffffffffffffffffffffffffffffffffffffffff021916908373ffffffffffffffffffffffffffffffffffffffff16021790555080600460006101000a81548173ffffffffffffffffffffffffffffffffffffffff021916908373ffffffffffffffffffffffffffffffffffffffff160217905550505050612e3a806101e56000396000f3fe608060405234801561001057600080fd5b506004361061007f576000357c01000000000000000000000000000000000000000000000000000000009004806322ae8cef1461008457806325da1c77146103d457806342d68838146104185780638da5cb5b1461045c5780639b781210146104a6578063ca08b7d11461071e575b600080fd5b61013d6004803603602081101561009a57600080fd5b81019080803590602001906401000000008111156100b757600080fd5b8201836020820111156100c957600080fd5b803590602001918460018302840111640100000000831117156100eb57600080fd5b91908080601f016020809104026020016040519081016040528093929190818152602001838380828437600081840152601f19601f820116905080830192505050505050509192919290505050610a6e565b6040518080602001806020018060200180602001806020018060200187810387528d818151815260200191508051906020019080838360005b83811015610191578082015181840152602081019050610176565b50505050905090810190601f1680156101be5780820380516001836020036101000a031916815260200191505b5087810386528c818151815260200191508051906020019080838360005b838110156101f75780820151818401526020810190506101dc565b50505050905090810190601f1680156102245780820380516001836020036101000a031916815260200191505b5087810385528b818151815260200191508051906020019080838360005b8381101561025d578082015181840152602081019050610242565b50505050905090810190601f16801561028a5780820380516001836020036101000a031916815260200191505b5087810384528a818151815260200191508051906020019080838360005b838110156102c35780820151818401526020810190506102a8565b50505050905090810190601f1680156102f05780820380516001836020036101000a031916815260200191505b50878103835289818151815260200191508051906020019080838360005b8381101561032957808201518184015260208101905061030e565b50505050905090810190601f1680156103565780820380516001836020036101000a031916815260200191505b50878103825288818151815260200191508051906020019080838360005b8381101561038f578082015181840152602081019050610374565b50505050905090810190601f1680156103bc5780820380516001836020036101000a031916815260200191505b509c5050505050505050505050505060405180910390f35b610416600480360360208110156103ea57600080fd5b81019080803573ffffffffffffffffffffffffffffffffffffffff1690602001909291905050506116c5565b005b61045a6004803603602081101561042e57600080fd5b81019080803573ffffffffffffffffffffffffffffffffffffffff1690602001909291905050506117c4565b005b6104646118c4565b604051808273ffffffffffffffffffffffffffffffffffffffff1673ffffffffffffffffffffffffffffffffffffffff16815260200191505060405180910390f35b61055f600480360360208110156104bc57600080fd5b81019080803590602001906401000000008111156104d957600080fd5b8201836020820111156104eb57600080fd5b8035906020019184600183028401116401000000008311171561050d57600080fd5b91908080601f016020809104026020016040519081016040528093929190818152602001838380828437600081840152601f19601f8201169050808301925050505050505091929192905050506118e9565b6040518080602001806020018060200180602001858103855289818151815260200191508051906020019080838360005b838110156105ab578082015181840152602081019050610590565b50505050905090810190601f1680156105d85780820380516001836020036101000a031916815260200191505b50858103845288818151815260200191508051906020019080838360005b838110156106115780820151818401526020810190506105f6565b50505050905090810190601f16801561063e5780820380516001836020036101000a031916815260200191505b50858103835287818151815260200191508051906020019080838360005b8381101561067757808201518184015260208101905061065c565b50505050905090810190601f1680156106a45780820380516001836020036101000a031916815260200191505b50858103825286818151815260200191508051906020019080838360005b838110156106dd5780820151818401526020810190506106c2565b50505050905090810190601f16801561070a5780820380516001836020036101000a031916815260200191505b509850505050505050505060405180910390f35b6107d76004803603602081101561073457600080fd5b810190808035906020019064010000000081111561075157600080fd5b82018360208201111561076357600080fd5b8035906020019184600183028401116401000000008311171561078557600080fd5b91908080601f016020809104026020016040519081016040528093929190818152602001838380828437600081840152601f19601f82011690508083019250505050505050919291929050505061215d565b6040518080602001806020018060200180602001806020018060200187810387528d818151815260200191508051906020019080838360005b8381101561082b578082015181840152602081019050610810565b50505050905090810190601f1680156108585780820380516001836020036101000a031916815260200191505b5087810386528c818151815260200191508051906020019080838360005b83811015610891578082015181840152602081019050610876565b50505050905090810190601f1680156108be5780820380516001836020036101000a031916815260200191505b5087810385528b818151815260200191508051906020019080838360005b838110156108f75780820151818401526020810190506108dc565b50505050905090810190601f1680156109245780820380516001836020036101000a031916815260200191505b5087810384528a818151815260200191508051906020019080838360005b8381101561095d578082015181840152602081019050610942565b50505050905090810190601f16801561098a5780820380516001836020036101000a031916815260200191505b50878103835289818151815260200191508051906020019080838360005b838110156109c35780820151818401526020810190506109a8565b50505050905090810190601f1680156109f05780820380516001836020036101000a031916815260200191505b50878103825288818151815260200191508051906020019080838360005b83811015610a29578082015181840152602081019050610a0e565b50505050905090810190601f168015610a565780820380516001836020036101000a031916815260200191505b509c5050505050505050505050505060405180910390f35b6060806060806060803360011515600160003373ffffffffffffffffffffffffffffffffffffffff1673ffffffffffffffffffffffffffffffffffffffff16815260200190815260200160002060009054906101000a900460ff16151514610b21576040517f08c379a0000000000000000000000000000000000000000000000000000000008152600401808060200182810382526029815260200180612db56029913960400191505060405180910390fd5b600260009054906101000a900473ffffffffffffffffffffffffffffffffffffffff1673ffffffffffffffffffffffffffffffffffffffff166395e587f5896040518263ffffffff167c01000000000000000000000000000000000000000000000000000000000281526004018080602001828103825283818151815260200191508051906020019080838360005b83811015610bcb578082015181840152602081019050610bb0565b50505050905090810190601f168015610bf85780820380516001836020036101000a031916815260200191505b509250505060006040518083038186803b158015610c1557600080fd5b505afa158015610c29573d6000803e3d6000fd5b505050506040513d6000823e3d601f19601f820116820180604052506020811015610c5357600080fd5b8101908080516040519392919084640100000000821115610c7357600080fd5b83820191506020820185811115610c8957600080fd5b8251866001820283011164010000000082111715610ca657600080fd5b8083526020830192505050908051906020019080838360005b83811015610cda578082015181840152602081019050610cbf565b50505050905090810190601f168015610d075780820380516001836020036101000a031916815260200191505b50604052505050600260009054906101000a900473ffffffffffffffffffffffffffffffffffffffff1673ffffffffffffffffffffffffffffffffffffffff1663a0d48fad8a6040518263ffffffff167c01000000000000000000000000000000000000000000000000000000000281526004018080602001828103825283818151815260200191508051906020019080838360005b83811015610db8578082015181840152602081019050610d9d565b50505050905090810190601f168015610de55780820380516001836020036101000a031916815260200191505b509250505060006040518083038186803b158015610e0257600080fd5b505afa158015610e16573d6000803e3d6000fd5b505050506040513d6000823e3d601f19601f820116820180604052506020811015610e4057600080fd5b8101908080516040519392919084640100000000821115610e6057600080fd5b83820191506020820185811115610e7657600080fd5b8251866001820283011164010000000082111715610e9357600080fd5b8083526020830192505050908051906020019080838360005b83811015610ec7578082015181840152602081019050610eac565b50505050905090810190601f168015610ef45780820380516001836020036101000a031916815260200191505b50604052505050600260009054906101000a900473ffffffffffffffffffffffffffffffffffffffff1673ffffffffffffffffffffffffffffffffffffffff166325c723d38b6040518263ffffffff167c01000000000000000000000000000000000000000000000000000000000281526004018080602001828103825283818151815260200191508051906020019080838360005b83811015610fa5578082015181840152602081019050610f8a565b50505050905090810190601f168015610fd25780820380516001836020036101000a031916815260200191505b509250505060006040518083038186803b158015610fef57600080fd5b505afa158015611003573d6000803e3d6000fd5b505050506040513d6000823e3d601f19601f82011682018060405250602081101561102d57600080fd5b810190808051604051939291908464010000000082111561104d57600080fd5b8382019150602082018581111561106357600080fd5b825186600182028301116401000000008211171561108057600080fd5b8083526020830192505050908051906020019080838360005b838110156110b4578082015181840152602081019050611099565b50505050905090810190601f1680156110e15780820380516001836020036101000a031916815260200191505b50604052505050600260009054906101000a900473ffffffffffffffffffffffffffffffffffffffff1673ffffffffffffffffffffffffffffffffffffffff1663ca987a308c6040518263ffffffff167c01000000000000000000000000000000000000000000000000000000000281526004018080602001828103825283818151815260200191508051906020019080838360005b83811015611192578082015181840152602081019050611177565b50505050905090810190601f1680156111bf5780820380516001836020036101000a031916815260200191505b509250505060006040518083038186803b1580156111dc57600080fd5b505afa1580156111f0573d6000803e3d6000fd5b505050506040513d6000823e3d601f19601f82011682018060405250602081101561121a57600080fd5b810190808051604051939291908464010000000082111561123a57600080fd5b8382019150602082018581111561125057600080fd5b825186600182028301116401000000008211171561126d57600080fd5b8083526020830192505050908051906020019080838360005b838110156112a1578082015181840152602081019050611286565b50505050905090810190601f1680156112ce5780820380516001836020036101000a031916815260200191505b50604052505050600260009054906101000a900473ffffffffffffffffffffffffffffffffffffffff1673ffffffffffffffffffffffffffffffffffffffff1663d19d5b838d6040518263ffffffff167c01000000000000000000000000000000000000000000000000000000000281526004018080602001828103825283818151815260200191508051906020019080838360005b8381101561137f578082015181840152602081019050611364565b50505050905090810190601f1680156113ac5780820380516001836020036101000a031916815260200191505b509250505060006040518083038186803b1580156113c957600080fd5b505afa1580156113dd573d6000803e3d6000fd5b505050506040513d6000823e3d601f19601f82011682018060405250602081101561140757600080fd5b810190808051604051939291908464010000000082111561142757600080fd5b8382019150602082018581111561143d57600080fd5b825186600182028301116401000000008211171561145a57600080fd5b8083526020830192505050908051906020019080838360005b8381101561148e578082015181840152602081019050611473565b50505050905090810190601f1680156114bb5780820380516001836020036101000a031916815260200191505b50604052505050600260009054906101000a900473ffffffffffffffffffffffffffffffffffffffff1673ffffffffffffffffffffffffffffffffffffffff16636df36bc68e6040518263ffffffff167c01000000000000000000000000000000000000000000000000000000000281526004018080602001828103825283818151815260200191508051906020019080838360005b8381101561156c578082015181840152602081019050611551565b50505050905090810190601f1680156115995780820380516001836020036101000a031916815260200191505b509250505060006040518083038186803b1580156115b657600080fd5b505afa1580156115ca573d6000803e3d6000fd5b505050506040513d6000823e3d601f19601f8201168201806040525060208110156115f457600080fd5b810190808051604051939291908464010000000082111561161457600080fd5b8382019150602082018581111561162a57600080fd5b825186600182028301116401000000008211171561164757600080fd5b8083526020830192505050908051906020019080838360005b8381101561167b578082015181840152602081019050611660565b50505050905090810190601f1680156116a85780820380516001836020036101000a031916815260200191505b506040525050509650965096509650965096505091939550919395565b6000809054906101000a900473ffffffffffffffffffffffffffffffffffffffff1673ffffffffffffffffffffffffffffffffffffffff163373ffffffffffffffffffffffffffffffffffffffff161461176a576040517f08c379a0000000000000000000000000000000000000000000000000000000008152600401808060200182810382526028815260200180612dde6028913960400191505060405180910390fd5b60018060008373ffffffffffffffffffffffffffffffffffffffff1673ffffffffffffffffffffffffffffffffffffffff16815260200190815260200160002060006101000a81548160ff02191690831515021790555050565b6000809054906101000a900473ffffffffffffffffffffffffffffffffffffffff1673ffffffffffffffffffffffffffffffffffffffff163373ffffffffffffffffffffffffffffffffffffffff1614611869576040517f08c379a0000000000000000000000000000000000000000000000000000000008152600401808060200182810382526028815260200180612dde6028913960400191505060405180910390fd5b6000600160008373ffffffffffffffffffffffffffffffffffffffff1673ffffffffffffffffffffffffffffffffffffffff16815260200190815260200160002060006101000a81548160ff02191690831515021790555050565b6000809054906101000a900473ffffffffffffffffffffffffffffffffffffffff1681565b6060806060803360011515600160003373ffffffffffffffffffffffffffffffffffffffff1673ffffffffffffffffffffffffffffffffffffffff16815260200190815260200160002060009054906101000a900460ff16151514611999576040517f08c379a0000000000000000000000000000000000000000000000000000000008152600401808060200182810382526029815260200180612db56029913960400191505060405180910390fd5b600360009054906101000a900473ffffffffffffffffffffffffffffffffffffffff1673ffffffffffffffffffffffffffffffffffffffff1663451644ba876040518263ffffffff167c01000000000000000000000000000000000000000000000000000000000281526004018080602001828103825283818151815260200191508051906020019080838360005b83811015611a43578082015181840152602081019050611a28565b50505050905090810190601f168015611a705780820380516001836020036101000a031916815260200191505b509250505060006040518083038186803b158015611a8d57600080fd5b505afa158015611aa1573d6000803e3d6000fd5b505050506040513d6000823e3d601f19601f820116820180604052506020811015611acb57600080fd5b8101908080516040519392919084640100000000821115611aeb57600080fd5b83820191506020820185811115611b0157600080fd5b8251866001820283011164010000000082111715611b1e57600080fd5b8083526020830192505050908051906020019080838360005b83811015611b52578082015181840152602081019050611b37565b50505050905090810190601f168015611b7f5780820380516001836020036101000a031916815260200191505b50604052505050600360009054906101000a900473ffffffffffffffffffffffffffffffffffffffff1673ffffffffffffffffffffffffffffffffffffffff166345824eff886040518263ffffffff167c01000000000000000000000000000000000000000000000000000000000281526004018080602001828103825283818151815260200191508051906020019080838360005b83811015611c30578082015181840152602081019050611c15565b50505050905090810190601f168015611c5d5780820380516001836020036101000a031916815260200191505b509250505060006040518083038186803b158015611c7a57600080fd5b505afa158015611c8e573d6000803e3d6000fd5b505050506040513d6000823e3d601f19601f820116820180604052506020811015611cb857600080fd5b8101908080516040519392919084640100000000821115611cd857600080fd5b83820191506020820185811115611cee57600080fd5b8251866001820283011164010000000082111715611d0b57600080fd5b8083526020830192505050908051906020019080838360005b83811015611d3f578082015181840152602081019050611d24565b50505050905090810190601f168015611d6c5780820380516001836020036101000a031916815260200191505b50604052505050600360009054906101000a900473ffffffffffffffffffffffffffffffffffffffff1673ffffffffffffffffffffffffffffffffffffffff1663b4d31147896040518263ffffffff167c01000000000000000000000000000000000000000000000000000000000281526004018080602001828103825283818151815260200191508051906020019080838360005b83811015611e1d578082015181840152602081019050611e02565b50505050905090810190601f168015611e4a5780820380516001836020036101000a031916815260200191505b509250505060006040518083038186803b158015611e6757600080fd5b505afa158015611e7b573d6000803e3d6000fd5b505050506040513d6000823e3d601f19601f820116820180604052506020811015611ea557600080fd5b8101908080516040519392919084640100000000821115611ec557600080fd5b83820191506020820185811115611edb57600080fd5b8251866001820283011164010000000082111715611ef857600080fd5b8083526020830192505050908051906020019080838360005b83811015611f2c578082015181840152602081019050611f11565b50505050905090810190601f168015611f595780820380516001836020036101000a031916815260200191505b50604052505050600360009054906101000a900473ffffffffffffffffffffffffffffffffffffffff1673ffffffffffffffffffffffffffffffffffffffff1663b85390be8a6040518263ffffffff167c01000000000000000000000000000000000000000000000000000000000281526004018080602001828103825283818151815260200191508051906020019080838360005b8381101561200a578082015181840152602081019050611fef565b50505050905090810190601f1680156120375780820380516001836020036101000a031916815260200191505b509250505060006040518083038186803b15801561205457600080fd5b505afa158015612068573d6000803e3d6000fd5b505050506040513d6000823e3d601f19601f82011682018060405250602081101561209257600080fd5b81019080805160405193929190846401000000008211156120b257600080fd5b838201915060208201858111156120c857600080fd5b82518660018202830111640100000000821117156120e557600080fd5b8083526020830192505050908051906020019080838360005b838110156121195780820151818401526020810190506120fe565b50505050905090810190601f1680156121465780820380516001836020036101000a031916815260200191505b506040525050509450945094509450509193509193565b6060806060806060803360011515600160003373ffffffffffffffffffffffffffffffffffffffff1673ffffffffffffffffffffffffffffffffffffffff16815260200190815260200160002060009054906101000a900460ff16151514612210576040517f08c379a0000000000000000000000000000000000000000000000000000000008152600401808060200182810382526029815260200180612db56029913960400191505060405180910390fd5b600460009054906101000a900473ffffffffffffffffffffffffffffffffffffffff1673ffffffffffffffffffffffffffffffffffffffff1663dd1388c2896040518263ffffffff167c01000000000000000000000000000000000000000000000000000000000281526004018080602001828103825283818151815260200191508051906020019080838360005b838110156122ba57808201518184015260208101905061229f565b50505050905090810190601f1680156122e75780820380516001836020036101000a031916815260200191505b509250505060006040518083038186803b15801561230457600080fd5b505afa158015612318573d6000803e3d6000fd5b505050506040513d6000823e3d601f19601f82011682018060405250602081101561234257600080fd5b810190808051604051939291908464010000000082111561236257600080fd5b8382019150602082018581111561237857600080fd5b825186600182028301116401000000008211171561239557600080fd5b8083526020830192505050908051906020019080838360005b838110156123c95780820151818401526020810190506123ae565b50505050905090810190601f1680156123f65780820380516001836020036101000a031916815260200191505b50604052505050600460009054906101000a900473ffffffffffffffffffffffffffffffffffffffff1673ffffffffffffffffffffffffffffffffffffffff16637c7b5ee88a6040518263ffffffff167c01000000000000000000000000000000000000000000000000000000000281526004018080602001828103825283818151815260200191508051906020019080838360005b838110156124a757808201518184015260208101905061248c565b50505050905090810190601f1680156124d45780820380516001836020036101000a031916815260200191505b509250505060006040518083038186803b1580156124f157600080fd5b505afa158015612505573d6000803e3d6000fd5b505050506040513d6000823e3d601f19601f82011682018060405250602081101561252f57600080fd5b810190808051604051939291908464010000000082111561254f57600080fd5b8382019150602082018581111561256557600080fd5b825186600182028301116401000000008211171561258257600080fd5b8083526020830192505050908051906020019080838360005b838110156125b657808201518184015260208101905061259b565b50505050905090810190601f1680156125e35780820380516001836020036101000a031916815260200191505b50604052505050600460009054906101000a900473ffffffffffffffffffffffffffffffffffffffff1673ffffffffffffffffffffffffffffffffffffffff1663f2c6d3cc8b6040518263ffffffff167c01000000000000000000000000000000000000000000000000000000000281526004018080602001828103825283818151815260200191508051906020019080838360005b83811015612694578082015181840152602081019050612679565b50505050905090810190601f1680156126c15780820380516001836020036101000a031916815260200191505b509250505060006040518083038186803b1580156126de57600080fd5b505afa1580156126f2573d6000803e3d6000fd5b505050506040513d6000823e3d601f19601f82011682018060405250602081101561271c57600080fd5b810190808051604051939291908464010000000082111561273c57600080fd5b8382019150602082018581111561275257600080fd5b825186600182028301116401000000008211171561276f57600080fd5b8083526020830192505050908051906020019080838360005b838110156127a3578082015181840152602081019050612788565b50505050905090810190601f1680156127d05780820380516001836020036101000a031916815260200191505b50604052505050600460009054906101000a900473ffffffffffffffffffffffffffffffffffffffff1673ffffffffffffffffffffffffffffffffffffffff166335cbe12c8c6040518263ffffffff167c01000000000000000000000000000000000000000000000000000000000281526004018080602001828103825283818151815260200191508051906020019080838360005b83811015612881578082015181840152602081019050612866565b50505050905090810190601f1680156128ae5780820380516001836020036101000a031916815260200191505b509250505060006040518083038186803b1580156128cb57600080fd5b505afa1580156128df573d6000803e3d6000fd5b505050506040513d6000823e3d601f19601f82011682018060405250602081101561290957600080fd5b810190808051604051939291908464010000000082111561292957600080fd5b8382019150602082018581111561293f57600080fd5b825186600182028301116401000000008211171561295c57600080fd5b8083526020830192505050908051906020019080838360005b83811015612990578082015181840152602081019050612975565b50505050905090810190601f1680156129bd5780820380516001836020036101000a031916815260200191505b50604052505050600460009054906101000a900473ffffffffffffffffffffffffffffffffffffffff1673ffffffffffffffffffffffffffffffffffffffff1663a0595e898d6040518263ffffffff167c01000000000000000000000000000000000000000000000000000000000281526004018080602001828103825283818151815260200191508051906020019080838360005b83811015612a6e578082015181840152602081019050612a53565b50505050905090810190601f168015612a9b5780820380516001836020036101000a031916815260200191505b509250505060006040518083038186803b158015612ab857600080fd5b505afa158015612acc573d6000803e3d6000fd5b505050506040513d6000823e3d601f19601f820116820180604052506020811015612af657600080fd5b8101908080516040519392919084640100000000821115612b1657600080fd5b83820191506020820185811115612b2c57600080fd5b8251866001820283011164010000000082111715612b4957600080fd5b8083526020830192505050908051906020019080838360005b83811015612b7d578082015181840152602081019050612b62565b50505050905090810190601f168015612baa5780820380516001836020036101000a031916815260200191505b50604052505050600460009054906101000a900473ffffffffffffffffffffffffffffffffffffffff1673ffffffffffffffffffffffffffffffffffffffff16632324d5208e6040518263ffffffff167c01000000000000000000000000000000000000000000000000000000000281526004018080602001828103825283818151815260200191508051906020019080838360005b83811015612c5b578082015181840152602081019050612c40565b50505050905090810190601f168015612c885780820380516001836020036101000a031916815260200191505b509250505060006040518083038186803b158015612ca557600080fd5b505afa158015612cb9573d6000803e3d6000fd5b505050506040513d6000823e3d601f19601f820116820180604052506020811015612ce357600080fd5b8101908080516040519392919084640100000000821115612d0357600080fd5b83820191506020820185811115612d1957600080fd5b8251866001820283011164010000000082111715612d3657600080fd5b8083526020830192505050908051906020019080838360005b83811015612d6a578082015181840152602081019050612d4f565b50505050905090810190601f168015612d975780820380516001836020036101000a031916815260200191505b50604052505050965096509650965096509650509193955091939556fe596f7520617265204e6f7420617574686f726973656420746f204163636573732074686520646174614f7070732c20596f752077696c6c206e65656420746f20636f6e7461637420746865206f776e6572a265627a7a72315820930f0a8d0291187bffaa27f670b84a59dc3e733e0d3896575e2e1da5f71768f364736f6c63430005110032",
  "source": "// SPDX-License-Identifier: GPL-3.0\r\n\r\n// pragma solidity >=0.7.0 <0.9.0;\r\npragma solidity 0.5.17;\r\nimport './Patients.sol';\r\nimport './Doctors.sol';\r\nimport './AccessControl.sol';\r\nimport './Records.sol';\r\n//all the information will be sent here to get the Information from the blockchain..\r\n\r\ncontract GetMedicalInfo is AccessControl{\r\n\r\n    //Creating the Contracts instances of Doctor and Patient.\r\n    Patients patient_;\r\n    Doctors doctor_;\r\n    Records record_;\r\n\r\n    // constructor(address _patientsContractAddress, address _doctorsContractAddress, address _recordsContractAddress) public {\r\n    constructor(Patients _patientsContractAddress, Doctors _doctorsContractAddress, Records _recordsContractAddress) public {\r\n        //updating the contracts instances with the addresses of the constructor\r\n        patient_ = Patients(_patientsContractAddress);\r\n        doctor_ = Doctors(_doctorsContractAddress);\r\n        record_ = Records(_recordsContractAddress);\r\n    }\r\n\r\n    /****\r\n        Function getMedicalInfoPatient gets the information of the patient in the patient contract.\r\n        parameters passed are:\r\n        string patientId\r\n    ****/\r\n\r\n    //The information in Patient Contract is get using: patientContractInstance.FunctionName(Parameters);\r\n    //the address in OnlyDoctor will be sent from the metamsk....\r\n    // \r\n    function getMedicalInfoPatient(string memory _patientId) public view onlyDoctor(msg.sender) returns(string memory, string memory, string memory, string memory, string memory, string memory){\r\n        return(\r\n        patient_.getPatientName(_patientId),\r\n        patient_.getPatientMobileNumber(_patientId),\r\n        patient_.getPatientGender(_patientId),\r\n        patient_.getPatientAddress(_patientId),\r\n        patient_.getPatientDateOfBirth(_patientId),\r\n        patient_.getPatientAllergies(_patientId)\r\n        );\r\n    } \r\n\r\n    /****\r\n        Function getMedicalInfoDoctor gets the information of the Doctor in the Doctor contract.\r\n        parameters passed are:\r\n        string doctorId;\r\n    ****/\r\n\r\n    //The information in Doctor Contract is retrieved using: doctorContractInstance.FunctionName(Parameters);\r\n    \r\n    function getMedicalInfoDoctor(string memory _doctorId) public view onlyDoctor(msg.sender) returns(string memory , string memory , string memory , string memory){\r\n        \r\n        return (doctor_.getDoctorName(_doctorId),\r\n        doctor_.getDoctorSpeciality(_doctorId),\r\n        doctor_.getDoctorHospital(_doctorId),\r\n        doctor_.getDoctorGender(_doctorId));\r\n    }\r\n\r\n    /****\r\n        Function getMedicalRecords gets the information of the Patients Medical record from the Records contract.\r\n        parameters passed are:\r\n        string patientId;\r\n    ****/\r\n    \r\n    function getMedicalRecords(string memory _patientId) public view onlyDoctor(msg.sender) returns(string memory, string memory, string memory , string memory , string memory , string memory) {\r\n        return(\r\n        record_.getLastUpdated(_patientId),\r\n        record_.getCurrentMedicalDosage(_patientId),\r\n        record_.getUpdatedBy(_patientId),\r\n        record_.getCurrentDiagnosis(_patientId),\r\n        record_.getPDFreport(_patientId),\r\n        record_.getAllPDFReports(_patientId)\r\n        );\r\n    }\r\n\r\n}\r\n",
  "sourcePath": "C:/Users/Neeraj/Desktop/deploy/src/contracts/GetMedicalInfo.sol",
  "compiler": {
    "name": "solc",
    "version": "0.5.17+commit.d19bba13.Emscripten.clang"
  },
  "schemaVersion": "3.0.1",
  "updatedAt": "2022-06-13T17:10:02.924Z",
  "devdoc": {
    "methods": {}
  },
  "userdoc": {
    "methods": {
      "addAuthorisedDoctor(address)": {
        "notice": "**  Updates the doctorsAddress in the database of authorised doctors. Along with this, check for the isOwner, if the caller is owner, then only it is allowed to Add the address. Parameter passed - _doctorAddress***"
      },
      "getMedicalInfoDoctor(string)": {
        "notice": "** Function getMedicalInfoDoctor gets the information of the Doctor in the Doctor contract. parameters passed are: string doctorId;***"
      },
      "getMedicalInfoPatient(string)": {
        "notice": "** Function getMedicalInfoPatient gets the information of the patient in the patient contract. parameters passed are: string patientId***"
      },
      "getMedicalRecords(string)": {
        "notice": "** Function getMedicalRecords gets the information of the Patients Medical record from the Records contract. parameters passed are: string patientId;***"
      },
      "removeAuthorisedDoctor(address)": {
        "notice": "*** RemoveAuthorisedDoctor - Removes the permission of the doctor that was previously assigned the permissions. Parameter Passes -  _doctorAddress****"
      }
    }
  }
}