{
  "contractName": "MedicalInfoAddGet",
  "abi": [
    {
      "inputs": [
        {
          "internalType": "contract Patients",
          "name": "_patientsContractAddress",
          "type": "address"
        },
        {
          "internalType": "contract Doctors",
          "name": "_doctorsContractAddress",
          "type": "address"
        },
        {
          "internalType": "contract Records",
          "name": "_recordsContractAddress",
          "type": "address"
        }
      ],
      "payable": false,
      "stateMutability": "nonpayable",
      "type": "constructor",
      "signature": "constructor"
    },
    {
      "constant": false,
      "inputs": [
        {
          "internalType": "address",
          "name": "_doctorAddress",
          "type": "address"
        }
      ],
      "name": "addAuthorisedDoctor",
      "outputs": [],
      "payable": false,
      "stateMutability": "nonpayable",
      "type": "function",
      "signature": "0x25da1c77"
    },
    {
      "constant": true,
      "inputs": [
        {
          "internalType": "address",
          "name": "",
          "type": "address"
        }
      ],
      "name": "authorisedDoctor",
      "outputs": [
        {
          "internalType": "bool",
          "name": "",
          "type": "bool"
        }
      ],
      "payable": false,
      "stateMutability": "view",
      "type": "function",
      "signature": "0xc75caf10"
    },
    {
      "constant": true,
      "inputs": [
        {
          "internalType": "string",
          "name": "",
          "type": "string"
        }
      ],
      "name": "authorisedPatient",
      "outputs": [
        {
          "internalType": "address",
          "name": "",
          "type": "address"
        }
      ],
      "payable": false,
      "stateMutability": "view",
      "type": "function",
      "signature": "0x5ea9de6c"
    },
    {
      "constant": true,
      "inputs": [],
      "name": "owner",
      "outputs": [
        {
          "internalType": "address",
          "name": "",
          "type": "address"
        }
      ],
      "payable": false,
      "stateMutability": "view",
      "type": "function",
      "signature": "0x8da5cb5b"
    },
    {
      "constant": false,
      "inputs": [
        {
          "internalType": "address",
          "name": "_doctorAddress",
          "type": "address"
        }
      ],
      "name": "removeAuthorisedDoctor",
      "outputs": [],
      "payable": false,
      "stateMutability": "nonpayable",
      "type": "function",
      "signature": "0x42d68838"
    },
    {
      "constant": false,
      "inputs": [
        {
          "internalType": "string",
          "name": "_patientName",
          "type": "string"
        },
        {
          "internalType": "string",
          "name": "_patientId",
          "type": "string"
        },
        {
          "internalType": "string",
          "name": "_patientMobileNumber",
          "type": "string"
        },
        {
          "internalType": "string",
          "name": "_patientGender",
          "type": "string"
        },
        {
          "internalType": "string",
          "name": "_patientAddress",
          "type": "string"
        },
        {
          "internalType": "string",
          "name": "_patientDateOfBirth",
          "type": "string"
        },
        {
          "internalType": "string",
          "name": "_allergiesKnown",
          "type": "string"
        },
        {
          "internalType": "address",
          "name": "_patientWalletAddress",
          "type": "address"
        }
      ],
      "name": "addMedicalInfoPatient",
      "outputs": [],
      "payable": false,
      "stateMutability": "nonpayable",
      "type": "function",
      "signature": "0x1fb1f998"
    },
    {
      "constant": false,
      "inputs": [
        {
          "internalType": "string",
          "name": "_doctorName",
          "type": "string"
        },
        {
          "internalType": "string",
          "name": "_doctorId",
          "type": "string"
        },
        {
          "internalType": "string",
          "name": "_doctorSpeciality",
          "type": "string"
        },
        {
          "internalType": "string",
          "name": "_doctorHospital",
          "type": "string"
        },
        {
          "internalType": "string",
          "name": "_doctorGender",
          "type": "string"
        }
      ],
      "name": "addMedicalInfoDoctor",
      "outputs": [],
      "payable": false,
      "stateMutability": "nonpayable",
      "type": "function",
      "signature": "0x9b602be6"
    },
    {
      "constant": false,
      "inputs": [
        {
          "internalType": "string",
          "name": "_patientId",
          "type": "string"
        },
        {
          "internalType": "string",
          "name": "_lastUpdated",
          "type": "string"
        },
        {
          "internalType": "string",
          "name": "_currentMedicalDosage",
          "type": "string"
        },
        {
          "internalType": "string",
          "name": "_updatedBy",
          "type": "string"
        },
        {
          "internalType": "string",
          "name": "_currentDiagnosis",
          "type": "string"
        },
        {
          "internalType": "string",
          "name": "_PDFreport",
          "type": "string"
        }
      ],
      "name": "addMedicalRecords",
      "outputs": [],
      "payable": false,
      "stateMutability": "nonpayable",
      "type": "function",
      "signature": "0x2b3df31d"
    },
    {
      "constant": true,
      "inputs": [
        {
          "internalType": "string",
          "name": "_patientId",
          "type": "string"
        }
      ],
      "name": "getMedicalInfoPatient",
      "outputs": [
        {
          "internalType": "string",
          "name": "",
          "type": "string"
        },
        {
          "internalType": "string",
          "name": "",
          "type": "string"
        },
        {
          "internalType": "string",
          "name": "",
          "type": "string"
        },
        {
          "internalType": "string",
          "name": "",
          "type": "string"
        },
        {
          "internalType": "string",
          "name": "",
          "type": "string"
        },
        {
          "internalType": "string",
          "name": "",
          "type": "string"
        }
      ],
      "payable": false,
      "stateMutability": "view",
      "type": "function",
      "signature": "0x22ae8cef"
    },
    {
      "constant": true,
      "inputs": [
        {
          "internalType": "string",
          "name": "_doctorId",
          "type": "string"
        }
      ],
      "name": "getMedicalInfoDoctor",
      "outputs": [
        {
          "internalType": "string",
          "name": "",
          "type": "string"
        },
        {
          "internalType": "string",
          "name": "",
          "type": "string"
        },
        {
          "internalType": "string",
          "name": "",
          "type": "string"
        },
        {
          "internalType": "string",
          "name": "",
          "type": "string"
        }
      ],
      "payable": false,
      "stateMutability": "view",
      "type": "function",
      "signature": "0x9b781210"
    },
    {
      "constant": true,
      "inputs": [
        {
          "internalType": "string",
          "name": "_patientId",
          "type": "string"
        }
      ],
      "name": "getMedicalRecords",
      "outputs": [
        {
          "internalType": "string",
          "name": "",
          "type": "string"
        },
        {
          "internalType": "string",
          "name": "",
          "type": "string"
        },
        {
          "internalType": "string",
          "name": "",
          "type": "string"
        },
        {
          "internalType": "string",
          "name": "",
          "type": "string"
        },
        {
          "internalType": "string",
          "name": "",
          "type": "string"
        },
        {
          "internalType": "string",
          "name": "",
          "type": "string"
        }
      ],
      "payable": false,
      "stateMutability": "view",
      "type": "function",
      "signature": "0xca08b7d1"
    }
  ],
  "bytecode": "0x60806040523480156200001157600080fd5b506040516200582038038062005820833981810160405260608110156200003757600080fd5b81019080805190602001909291908051906020019092919080519060200190929190505050336000806101000a81548173ffffffffffffffffffffffffffffffffffffffff021916908373ffffffffffffffffffffffffffffffffffffffff16021790555060018060008060009054906101000a900473ffffffffffffffffffffffffffffffffffffffff1673ffffffffffffffffffffffffffffffffffffffff1673ffffffffffffffffffffffffffffffffffffffff16815260200190815260200160002060006101000a81548160ff02191690831515021790555082600360006101000a81548173ffffffffffffffffffffffffffffffffffffffff021916908373ffffffffffffffffffffffffffffffffffffffff16021790555081600460006101000a81548173ffffffffffffffffffffffffffffffffffffffff021916908373ffffffffffffffffffffffffffffffffffffffff16021790555080600560006101000a81548173ffffffffffffffffffffffffffffffffffffffff021916908373ffffffffffffffffffffffffffffffffffffffff16021790555050505061563680620001ea6000396000f3fe608060405234801561001057600080fd5b50600436106100c6576000357c0100000000000000000000000000000000000000000000000000000000900480635ea9de6c1161008e5780635ea9de6c14610cb75780638da5cb5b14610db25780639b602be614610dfc5780639b78121014611113578063c75caf101461138b578063ca08b7d1146113e7576100c6565b80631fb1f998146100cb57806322ae8cef1461053157806325da1c77146108815780632b3df31d146108c557806342d6883814610c73575b600080fd5b61052f60048036036101008110156100e257600080fd5b81019080803590602001906401000000008111156100ff57600080fd5b82018360208201111561011157600080fd5b8035906020019184600183028401116401000000008311171561013357600080fd5b91908080601f016020809104026020016040519081016040528093929190818152602001838380828437600081840152601f19601f8201169050808301925050505050505091929192908035906020019064010000000081111561019657600080fd5b8201836020820111156101a857600080fd5b803590602001918460018302840111640100000000831117156101ca57600080fd5b91908080601f016020809104026020016040519081016040528093929190818152602001838380828437600081840152601f19601f8201169050808301925050505050505091929192908035906020019064010000000081111561022d57600080fd5b82018360208201111561023f57600080fd5b8035906020019184600183028401116401000000008311171561026157600080fd5b91908080601f016020809104026020016040519081016040528093929190818152602001838380828437600081840152601f19601f820116905080830192505050505050509192919290803590602001906401000000008111156102c457600080fd5b8201836020820111156102d657600080fd5b803590602001918460018302840111640100000000831117156102f857600080fd5b91908080601f016020809104026020016040519081016040528093929190818152602001838380828437600081840152601f19601f8201169050808301925050505050505091929192908035906020019064010000000081111561035b57600080fd5b82018360208201111561036d57600080fd5b8035906020019184600183028401116401000000008311171561038f57600080fd5b91908080601f016020809104026020016040519081016040528093929190818152602001838380828437600081840152601f19601f820116905080830192505050505050509192919290803590602001906401000000008111156103f257600080fd5b82018360208201111561040457600080fd5b8035906020019184600183028401116401000000008311171561042657600080fd5b91908080601f016020809104026020016040519081016040528093929190818152602001838380828437600081840152601f19601f8201169050808301925050505050505091929192908035906020019064010000000081111561048957600080fd5b82018360208201111561049b57600080fd5b803590602001918460018302840111640100000000831117156104bd57600080fd5b91908080601f016020809104026020016040519081016040528093929190818152602001838380828437600081840152601f19601f820116905080830192505050505050509192919290803573ffffffffffffffffffffffffffffffffffffffff169060200190929190505050611737565b005b6105ea6004803603602081101561054757600080fd5b810190808035906020019064010000000081111561056457600080fd5b82018360208201111561057657600080fd5b8035906020019184600183028401116401000000008311171561059857600080fd5b91908080601f016020809104026020016040519081016040528093929190818152602001838380828437600081840152601f19601f820116905080830192505050505050509192919290505050612174565b6040518080602001806020018060200180602001806020018060200187810387528d818151815260200191508051906020019080838360005b8381101561063e578082015181840152602081019050610623565b50505050905090810190601f16801561066b5780820380516001836020036101000a031916815260200191505b5087810386528c818151815260200191508051906020019080838360005b838110156106a4578082015181840152602081019050610689565b50505050905090810190601f1680156106d15780820380516001836020036101000a031916815260200191505b5087810385528b818151815260200191508051906020019080838360005b8381101561070a5780820151818401526020810190506106ef565b50505050905090810190601f1680156107375780820380516001836020036101000a031916815260200191505b5087810384528a818151815260200191508051906020019080838360005b83811015610770578082015181840152602081019050610755565b50505050905090810190601f16801561079d5780820380516001836020036101000a031916815260200191505b50878103835289818151815260200191508051906020019080838360005b838110156107d65780820151818401526020810190506107bb565b50505050905090810190601f1680156108035780820380516001836020036101000a031916815260200191505b50878103825288818151815260200191508051906020019080838360005b8381101561083c578082015181840152602081019050610821565b50505050905090810190601f1680156108695780820380516001836020036101000a031916815260200191505b509c5050505050505050505050505060405180910390f35b6108c36004803603602081101561089757600080fd5b81019080803573ffffffffffffffffffffffffffffffffffffffff169060200190929190505050612e8a565b005b610c71600480360360c08110156108db57600080fd5b81019080803590602001906401000000008111156108f857600080fd5b82018360208201111561090a57600080fd5b8035906020019184600183028401116401000000008311171561092c57600080fd5b91908080601f016020809104026020016040519081016040528093929190818152602001838380828437600081840152601f19601f8201169050808301925050505050505091929192908035906020019064010000000081111561098f57600080fd5b8201836020820111156109a157600080fd5b803590602001918460018302840111640100000000831117156109c357600080fd5b91908080601f016020809104026020016040519081016040528093929190818152602001838380828437600081840152601f19601f82011690508083019250505050505050919291929080359060200190640100000000811115610a2657600080fd5b820183602082011115610a3857600080fd5b80359060200191846001830284011164010000000083111715610a5a57600080fd5b91908080601f016020809104026020016040519081016040528093929190818152602001838380828437600081840152601f19601f82011690508083019250505050505050919291929080359060200190640100000000811115610abd57600080fd5b820183602082011115610acf57600080fd5b80359060200191846001830284011164010000000083111715610af157600080fd5b91908080601f016020809104026020016040519081016040528093929190818152602001838380828437600081840152601f19601f82011690508083019250505050505050919291929080359060200190640100000000811115610b5457600080fd5b820183602082011115610b6657600080fd5b80359060200191846001830284011164010000000083111715610b8857600080fd5b91908080601f016020809104026020016040519081016040528093929190818152602001838380828437600081840152601f19601f82011690508083019250505050505050919291929080359060200190640100000000811115610beb57600080fd5b820183602082011115610bfd57600080fd5b80359060200191846001830284011164010000000083111715610c1f57600080fd5b91908080601f016020809104026020016040519081016040528093929190818152602001838380828437600081840152601f19601f820116905080830192505050505050509192919290505050612f8d565b005b610cb560048036036020811015610c8957600080fd5b81019080803573ffffffffffffffffffffffffffffffffffffffff1690602001909291905050506137a5565b005b610d7060048036036020811015610ccd57600080fd5b8101908080359060200190640100000000811115610cea57600080fd5b820183602082011115610cfc57600080fd5b80359060200191846001830284011164010000000083111715610d1e57600080fd5b91908080601f016020809104026020016040519081016040528093929190818152602001838380828437600081840152601f19601f8201169050808301925050505050505091929192905050506138a5565b604051808273ffffffffffffffffffffffffffffffffffffffff1673ffffffffffffffffffffffffffffffffffffffff16815260200191505060405180910390f35b610dba6138ee565b604051808273ffffffffffffffffffffffffffffffffffffffff1673ffffffffffffffffffffffffffffffffffffffff16815260200191505060405180910390f35b611111600480360360a0811015610e1257600080fd5b8101908080359060200190640100000000811115610e2f57600080fd5b820183602082011115610e4157600080fd5b80359060200191846001830284011164010000000083111715610e6357600080fd5b91908080601f016020809104026020016040519081016040528093929190818152602001838380828437600081840152601f19601f82011690508083019250505050505050919291929080359060200190640100000000811115610ec657600080fd5b820183602082011115610ed857600080fd5b80359060200191846001830284011164010000000083111715610efa57600080fd5b91908080601f016020809104026020016040519081016040528093929190818152602001838380828437600081840152601f19601f82011690508083019250505050505050919291929080359060200190640100000000811115610f5d57600080fd5b820183602082011115610f6f57600080fd5b80359060200191846001830284011164010000000083111715610f9157600080fd5b91908080601f016020809104026020016040519081016040528093929190818152602001838380828437600081840152601f19601f82011690508083019250505050505050919291929080359060200190640100000000811115610ff457600080fd5b82018360208201111561100657600080fd5b8035906020019184600183028401116401000000008311171561102857600080fd5b91908080601f016020809104026020016040519081016040528093929190818152602001838380828437600081840152601f19601f8201169050808301925050505050505091929192908035906020019064010000000081111561108b57600080fd5b82018360208201111561109d57600080fd5b803590602001918460018302840111640100000000831117156110bf57600080fd5b91908080601f016020809104026020016040519081016040528093929190818152602001838380828437600081840152601f19601f820116905080830192505050505050509192919290505050613913565b005b6111cc6004803603602081101561112957600080fd5b810190808035906020019064010000000081111561114657600080fd5b82018360208201111561115857600080fd5b8035906020019184600183028401116401000000008311171561117a57600080fd5b91908080601f016020809104026020016040519081016040528093929190818152602001838380828437600081840152601f19601f820116905080830192505050505050509192919290505050613faf565b6040518080602001806020018060200180602001858103855289818151815260200191508051906020019080838360005b838110156112185780820151818401526020810190506111fd565b50505050905090810190601f1680156112455780820380516001836020036101000a031916815260200191505b50858103845288818151815260200191508051906020019080838360005b8381101561127e578082015181840152602081019050611263565b50505050905090810190601f1680156112ab5780820380516001836020036101000a031916815260200191505b50858103835287818151815260200191508051906020019080838360005b838110156112e45780820151818401526020810190506112c9565b50505050905090810190601f1680156113115780820380516001836020036101000a031916815260200191505b50858103825286818151815260200191508051906020019080838360005b8381101561134a57808201518184015260208101905061132f565b50505050905090810190601f1680156113775780820380516001836020036101000a031916815260200191505b509850505050505050505060405180910390f35b6113cd600480360360208110156113a157600080fd5b81019080803573ffffffffffffffffffffffffffffffffffffffff169060200190929190505050614821565b604051808215151515815260200191505060405180910390f35b6114a0600480360360208110156113fd57600080fd5b810190808035906020019064010000000081111561141a57600080fd5b82018360208201111561142c57600080fd5b8035906020019184600183028401116401000000008311171561144e57600080fd5b91908080601f016020809104026020016040519081016040528093929190818152602001838380828437600081840152601f19601f820116905080830192505050505050509192919290505050614841565b6040518080602001806020018060200180602001806020018060200187810387528d818151815260200191508051906020019080838360005b838110156114f45780820151818401526020810190506114d9565b50505050905090810190601f1680156115215780820380516001836020036101000a031916815260200191505b5087810386528c818151815260200191508051906020019080838360005b8381101561155a57808201518184015260208101905061153f565b50505050905090810190601f1680156115875780820380516001836020036101000a031916815260200191505b5087810385528b818151815260200191508051906020019080838360005b838110156115c05780820151818401526020810190506115a5565b50505050905090810190601f1680156115ed5780820380516001836020036101000a031916815260200191505b5087810384528a818151815260200191508051906020019080838360005b8381101561162657808201518184015260208101905061160b565b50505050905090810190601f1680156116535780820380516001836020036101000a031916815260200191505b50878103835289818151815260200191508051906020019080838360005b8381101561168c578082015181840152602081019050611671565b50505050905090810190601f1680156116b95780820380516001836020036101000a031916815260200191505b50878103825288818151815260200191508051906020019080838360005b838110156116f25780820151818401526020810190506116d7565b50505050905090810190601f16801561171f5780820380516001836020036101000a031916815260200191505b509c5050505050505050505050505060405180910390f35b60011515600160003373ffffffffffffffffffffffffffffffffffffffff1673ffffffffffffffffffffffffffffffffffffffff16815260200190815260200160002060009054906101000a900460ff161515146117e0576040517f08c379a00000000000000000000000000000000000000000000000000000000081526004018080602001828103825260298152602001806155586029913960400191505060405180910390fd5b600360009054906101000a900473ffffffffffffffffffffffffffffffffffffffff1673ffffffffffffffffffffffffffffffffffffffff1663ffdbc055888a6040518363ffffffff167c0100000000000000000000000000000000000000000000000000000000028152600401808060200180602001838103835285818151815260200191508051906020019080838360005b8381101561188f578082015181840152602081019050611874565b50505050905090810190601f1680156118bc5780820380516001836020036101000a031916815260200191505b50838103825284818151815260200191508051906020019080838360005b838110156118f55780820151818401526020810190506118da565b50505050905090810190601f1680156119225780820380516001836020036101000a031916815260200191505b50945050505050600060405180830381600087803b15801561194357600080fd5b505af1158015611957573d6000803e3d6000fd5b50505050600360009054906101000a900473ffffffffffffffffffffffffffffffffffffffff1673ffffffffffffffffffffffffffffffffffffffff166366c9868e88886040518363ffffffff167c0100000000000000000000000000000000000000000000000000000000028152600401808060200180602001838103835285818151815260200191508051906020019080838360005b83811015611a0a5780820151818401526020810190506119ef565b50505050905090810190601f168015611a375780820380516001836020036101000a031916815260200191505b50838103825284818151815260200191508051906020019080838360005b83811015611a70578082015181840152602081019050611a55565b50505050905090810190601f168015611a9d5780820380516001836020036101000a031916815260200191505b50945050505050600060405180830381600087803b158015611abe57600080fd5b505af1158015611ad2573d6000803e3d6000fd5b50505050600360009054906101000a900473ffffffffffffffffffffffffffffffffffffffff1673ffffffffffffffffffffffffffffffffffffffff16633ba1e7fe88876040518363ffffffff167c0100000000000000000000000000000000000000000000000000000000028152600401808060200180602001838103835285818151815260200191508051906020019080838360005b83811015611b85578082015181840152602081019050611b6a565b50505050905090810190601f168015611bb25780820380516001836020036101000a031916815260200191505b50838103825284818151815260200191508051906020019080838360005b83811015611beb578082015181840152602081019050611bd0565b50505050905090810190601f168015611c185780820380516001836020036101000a031916815260200191505b50945050505050600060405180830381600087803b158015611c3957600080fd5b505af1158015611c4d573d6000803e3d6000fd5b50505050600360009054906101000a900473ffffffffffffffffffffffffffffffffffffffff1673ffffffffffffffffffffffffffffffffffffffff1663c38571a588866040518363ffffffff167c0100000000000000000000000000000000000000000000000000000000028152600401808060200180602001838103835285818151815260200191508051906020019080838360005b83811015611d00578082015181840152602081019050611ce5565b50505050905090810190601f168015611d2d5780820380516001836020036101000a031916815260200191505b50838103825284818151815260200191508051906020019080838360005b83811015611d66578082015181840152602081019050611d4b565b50505050905090810190601f168015611d935780820380516001836020036101000a031916815260200191505b50945050505050600060405180830381600087803b158015611db457600080fd5b505af1158015611dc8573d6000803e3d6000fd5b50505050600360009054906101000a900473ffffffffffffffffffffffffffffffffffffffff1673ffffffffffffffffffffffffffffffffffffffff1663a1f058c788856040518363ffffffff167c0100000000000000000000000000000000000000000000000000000000028152600401808060200180602001838103835285818151815260200191508051906020019080838360005b83811015611e7b578082015181840152602081019050611e60565b50505050905090810190601f168015611ea85780820380516001836020036101000a031916815260200191505b50838103825284818151815260200191508051906020019080838360005b83811015611ee1578082015181840152602081019050611ec6565b50505050905090810190601f168015611f0e5780820380516001836020036101000a031916815260200191505b50945050505050600060405180830381600087803b158015611f2f57600080fd5b505af1158015611f43573d6000803e3d6000fd5b50505050600360009054906101000a900473ffffffffffffffffffffffffffffffffffffffff1673ffffffffffffffffffffffffffffffffffffffff1663153474b988846040518363ffffffff167c0100000000000000000000000000000000000000000000000000000000028152600401808060200180602001838103835285818151815260200191508051906020019080838360005b83811015611ff6578082015181840152602081019050611fdb565b50505050905090810190601f1680156120235780820380516001836020036101000a031916815260200191505b50838103825284818151815260200191508051906020019080838360005b8381101561205c578082015181840152602081019050612041565b50505050905090810190601f1680156120895780820380516001836020036101000a031916815260200191505b50945050505050600060405180830381600087803b1580156120aa57600080fd5b505af11580156120be573d6000803e3d6000fd5b50505050806002886040518082805190602001908083835b602083106120f957805182526020820191506020810190506020830392506120d6565b6001836020036101000a038019825116818451168082178552505050505050905001915050908152602001604051809103902060006101000a81548173ffffffffffffffffffffffffffffffffffffffff021916908373ffffffffffffffffffffffffffffffffffffffff1602179055505050505050505050565b6060806060806060808660011515600160003373ffffffffffffffffffffffffffffffffffffffff1673ffffffffffffffffffffffffffffffffffffffff16815260200190815260200160002060009054906101000a900460ff161515148061229157503373ffffffffffffffffffffffffffffffffffffffff166002826040518082805190602001908083835b602083106122255780518252602082019150602081019050602083039250612202565b6001836020036101000a038019825116818451168082178552505050505050905001915050908152602001604051809103902060009054906101000a900473ffffffffffffffffffffffffffffffffffffffff1673ffffffffffffffffffffffffffffffffffffffff16145b6122e6576040517f08c379a00000000000000000000000000000000000000000000000000000000081526004018080602001828103825260598152602001806155a96059913960600191505060405180910390fd5b600360009054906101000a900473ffffffffffffffffffffffffffffffffffffffff1673ffffffffffffffffffffffffffffffffffffffff166395e587f5896040518263ffffffff167c01000000000000000000000000000000000000000000000000000000000281526004018080602001828103825283818151815260200191508051906020019080838360005b83811015612390578082015181840152602081019050612375565b50505050905090810190601f1680156123bd5780820380516001836020036101000a031916815260200191505b509250505060006040518083038186803b1580156123da57600080fd5b505afa1580156123ee573d6000803e3d6000fd5b505050506040513d6000823e3d601f19601f82011682018060405250602081101561241857600080fd5b810190808051604051939291908464010000000082111561243857600080fd5b8382019150602082018581111561244e57600080fd5b825186600182028301116401000000008211171561246b57600080fd5b8083526020830192505050908051906020019080838360005b8381101561249f578082015181840152602081019050612484565b50505050905090810190601f1680156124cc5780820380516001836020036101000a031916815260200191505b50604052505050600360009054906101000a900473ffffffffffffffffffffffffffffffffffffffff1673ffffffffffffffffffffffffffffffffffffffff1663a0d48fad8a6040518263ffffffff167c01000000000000000000000000000000000000000000000000000000000281526004018080602001828103825283818151815260200191508051906020019080838360005b8381101561257d578082015181840152602081019050612562565b50505050905090810190601f1680156125aa5780820380516001836020036101000a031916815260200191505b509250505060006040518083038186803b1580156125c757600080fd5b505afa1580156125db573d6000803e3d6000fd5b505050506040513d6000823e3d601f19601f82011682018060405250602081101561260557600080fd5b810190808051604051939291908464010000000082111561262557600080fd5b8382019150602082018581111561263b57600080fd5b825186600182028301116401000000008211171561265857600080fd5b8083526020830192505050908051906020019080838360005b8381101561268c578082015181840152602081019050612671565b50505050905090810190601f1680156126b95780820380516001836020036101000a031916815260200191505b50604052505050600360009054906101000a900473ffffffffffffffffffffffffffffffffffffffff1673ffffffffffffffffffffffffffffffffffffffff166325c723d38b6040518263ffffffff167c01000000000000000000000000000000000000000000000000000000000281526004018080602001828103825283818151815260200191508051906020019080838360005b8381101561276a57808201518184015260208101905061274f565b50505050905090810190601f1680156127975780820380516001836020036101000a031916815260200191505b509250505060006040518083038186803b1580156127b457600080fd5b505afa1580156127c8573d6000803e3d6000fd5b505050506040513d6000823e3d601f19601f8201168201806040525060208110156127f257600080fd5b810190808051604051939291908464010000000082111561281257600080fd5b8382019150602082018581111561282857600080fd5b825186600182028301116401000000008211171561284557600080fd5b8083526020830192505050908051906020019080838360005b8381101561287957808201518184015260208101905061285e565b50505050905090810190601f1680156128a65780820380516001836020036101000a031916815260200191505b50604052505050600360009054906101000a900473ffffffffffffffffffffffffffffffffffffffff1673ffffffffffffffffffffffffffffffffffffffff1663ca987a308c6040518263ffffffff167c01000000000000000000000000000000000000000000000000000000000281526004018080602001828103825283818151815260200191508051906020019080838360005b8381101561295757808201518184015260208101905061293c565b50505050905090810190601f1680156129845780820380516001836020036101000a031916815260200191505b509250505060006040518083038186803b1580156129a157600080fd5b505afa1580156129b5573d6000803e3d6000fd5b505050506040513d6000823e3d601f19601f8201168201806040525060208110156129df57600080fd5b81019080805160405193929190846401000000008211156129ff57600080fd5b83820191506020820185811115612a1557600080fd5b8251866001820283011164010000000082111715612a3257600080fd5b8083526020830192505050908051906020019080838360005b83811015612a66578082015181840152602081019050612a4b565b50505050905090810190601f168015612a935780820380516001836020036101000a031916815260200191505b50604052505050600360009054906101000a900473ffffffffffffffffffffffffffffffffffffffff1673ffffffffffffffffffffffffffffffffffffffff1663d19d5b838d6040518263ffffffff167c01000000000000000000000000000000000000000000000000000000000281526004018080602001828103825283818151815260200191508051906020019080838360005b83811015612b44578082015181840152602081019050612b29565b50505050905090810190601f168015612b715780820380516001836020036101000a031916815260200191505b509250505060006040518083038186803b158015612b8e57600080fd5b505afa158015612ba2573d6000803e3d6000fd5b505050506040513d6000823e3d601f19601f820116820180604052506020811015612bcc57600080fd5b8101908080516040519392919084640100000000821115612bec57600080fd5b83820191506020820185811115612c0257600080fd5b8251866001820283011164010000000082111715612c1f57600080fd5b8083526020830192505050908051906020019080838360005b83811015612c53578082015181840152602081019050612c38565b50505050905090810190601f168015612c805780820380516001836020036101000a031916815260200191505b50604052505050600360009054906101000a900473ffffffffffffffffffffffffffffffffffffffff1673ffffffffffffffffffffffffffffffffffffffff16636df36bc68e6040518263ffffffff167c01000000000000000000000000000000000000000000000000000000000281526004018080602001828103825283818151815260200191508051906020019080838360005b83811015612d31578082015181840152602081019050612d16565b50505050905090810190601f168015612d5e5780820380516001836020036101000a031916815260200191505b509250505060006040518083038186803b158015612d7b57600080fd5b505afa158015612d8f573d6000803e3d6000fd5b505050506040513d6000823e3d601f19601f820116820180604052506020811015612db957600080fd5b8101908080516040519392919084640100000000821115612dd957600080fd5b83820191506020820185811115612def57600080fd5b8251866001820283011164010000000082111715612e0c57600080fd5b8083526020830192505050908051906020019080838360005b83811015612e40578082015181840152602081019050612e25565b50505050905090810190601f168015612e6d5780820380516001836020036101000a031916815260200191505b506040525050509650965096509650965096505091939550919395565b60011515600160003373ffffffffffffffffffffffffffffffffffffffff1673ffffffffffffffffffffffffffffffffffffffff16815260200190815260200160002060009054906101000a900460ff16151514612f33576040517f08c379a00000000000000000000000000000000000000000000000000000000081526004018080602001828103825260298152602001806155586029913960400191505060405180910390fd5b60018060008373ffffffffffffffffffffffffffffffffffffffff1673ffffffffffffffffffffffffffffffffffffffff16815260200190815260200160002060006101000a81548160ff02191690831515021790555050565b60011515600160003373ffffffffffffffffffffffffffffffffffffffff1673ffffffffffffffffffffffffffffffffffffffff16815260200190815260200160002060009054906101000a900460ff16151514613036576040517f08c379a00000000000000000000000000000000000000000000000000000000081526004018080602001828103825260298152602001806155586029913960400191505060405180910390fd5b600560009054906101000a900473ffffffffffffffffffffffffffffffffffffffff1673ffffffffffffffffffffffffffffffffffffffff16630e4b889f87876040518363ffffffff167c0100000000000000000000000000000000000000000000000000000000028152600401808060200180602001838103835285818151815260200191508051906020019080838360005b838110156130e55780820151818401526020810190506130ca565b50505050905090810190601f1680156131125780820380516001836020036101000a031916815260200191505b50838103825284818151815260200191508051906020019080838360005b8381101561314b578082015181840152602081019050613130565b50505050905090810190601f1680156131785780820380516001836020036101000a031916815260200191505b50945050505050600060405180830381600087803b15801561319957600080fd5b505af11580156131ad573d6000803e3d6000fd5b50505050600560009054906101000a900473ffffffffffffffffffffffffffffffffffffffff1673ffffffffffffffffffffffffffffffffffffffff1663a6c6608b87866040518363ffffffff167c0100000000000000000000000000000000000000000000000000000000028152600401808060200180602001838103835285818151815260200191508051906020019080838360005b83811015613260578082015181840152602081019050613245565b50505050905090810190601f16801561328d5780820380516001836020036101000a031916815260200191505b50838103825284818151815260200191508051906020019080838360005b838110156132c65780820151818401526020810190506132ab565b50505050905090810190601f1680156132f35780820380516001836020036101000a031916815260200191505b50945050505050600060405180830381600087803b15801561331457600080fd5b505af1158015613328573d6000803e3d6000fd5b50505050600560009054906101000a900473ffffffffffffffffffffffffffffffffffffffff1673ffffffffffffffffffffffffffffffffffffffff166380a2ca0f87856040518363ffffffff167c0100000000000000000000000000000000000000000000000000000000028152600401808060200180602001838103835285818151815260200191508051906020019080838360005b838110156133db5780820151818401526020810190506133c0565b50505050905090810190601f1680156134085780820380516001836020036101000a031916815260200191505b50838103825284818151815260200191508051906020019080838360005b83811015613441578082015181840152602081019050613426565b50505050905090810190601f16801561346e5780820380516001836020036101000a031916815260200191505b50945050505050600060405180830381600087803b15801561348f57600080fd5b505af11580156134a3573d6000803e3d6000fd5b50505050600560009054906101000a900473ffffffffffffffffffffffffffffffffffffffff1673ffffffffffffffffffffffffffffffffffffffff1663acd0afc987846040518363ffffffff167c0100000000000000000000000000000000000000000000000000000000028152600401808060200180602001838103835285818151815260200191508051906020019080838360005b8381101561355657808201518184015260208101905061353b565b50505050905090810190601f1680156135835780820380516001836020036101000a031916815260200191505b50838103825284818151815260200191508051906020019080838360005b838110156135bc5780820151818401526020810190506135a1565b50505050905090810190601f1680156135e95780820380516001836020036101000a031916815260200191505b50945050505050600060405180830381600087803b15801561360a57600080fd5b505af115801561361e573d6000803e3d6000fd5b50505050600560009054906101000a900473ffffffffffffffffffffffffffffffffffffffff1673ffffffffffffffffffffffffffffffffffffffff1663ea7a757a87836040518363ffffffff167c0100000000000000000000000000000000000000000000000000000000028152600401808060200180602001838103835285818151815260200191508051906020019080838360005b838110156136d15780820151818401526020810190506136b6565b50505050905090810190601f1680156136fe5780820380516001836020036101000a031916815260200191505b50838103825284818151815260200191508051906020019080838360005b8381101561373757808201518184015260208101905061371c565b50505050905090810190601f1680156137645780820380516001836020036101000a031916815260200191505b50945050505050600060405180830381600087803b15801561378557600080fd5b505af1158015613799573d6000803e3d6000fd5b50505050505050505050565b6000809054906101000a900473ffffffffffffffffffffffffffffffffffffffff1673ffffffffffffffffffffffffffffffffffffffff163373ffffffffffffffffffffffffffffffffffffffff161461384a576040517f08c379a00000000000000000000000000000000000000000000000000000000081526004018080602001828103825260288152602001806155816028913960400191505060405180910390fd5b6000600160008373ffffffffffffffffffffffffffffffffffffffff1673ffffffffffffffffffffffffffffffffffffffff16815260200190815260200160002060006101000a81548160ff02191690831515021790555050565b6002818051602081018201805184825260208301602085012081835280955050505050506000915054906101000a900473ffffffffffffffffffffffffffffffffffffffff1681565b6000809054906101000a900473ffffffffffffffffffffffffffffffffffffffff1681565b60011515600160003373ffffffffffffffffffffffffffffffffffffffff1673ffffffffffffffffffffffffffffffffffffffff16815260200190815260200160002060009054906101000a900460ff161515146139bc576040517f08c379a00000000000000000000000000000000000000000000000000000000081526004018080602001828103825260298152602001806155586029913960400191505060405180910390fd5b600460009054906101000a900473ffffffffffffffffffffffffffffffffffffffff1673ffffffffffffffffffffffffffffffffffffffff16632e3b225085876040518363ffffffff167c0100000000000000000000000000000000000000000000000000000000028152600401808060200180602001838103835285818151815260200191508051906020019080838360005b83811015613a6b578082015181840152602081019050613a50565b50505050905090810190601f168015613a985780820380516001836020036101000a031916815260200191505b50838103825284818151815260200191508051906020019080838360005b83811015613ad1578082015181840152602081019050613ab6565b50505050905090810190601f168015613afe5780820380516001836020036101000a031916815260200191505b50945050505050600060405180830381600087803b158015613b1f57600080fd5b505af1158015613b33573d6000803e3d6000fd5b50505050600460009054906101000a900473ffffffffffffffffffffffffffffffffffffffff1673ffffffffffffffffffffffffffffffffffffffff166386e383e485856040518363ffffffff167c0100000000000000000000000000000000000000000000000000000000028152600401808060200180602001838103835285818151815260200191508051906020019080838360005b83811015613be6578082015181840152602081019050613bcb565b50505050905090810190601f168015613c135780820380516001836020036101000a031916815260200191505b50838103825284818151815260200191508051906020019080838360005b83811015613c4c578082015181840152602081019050613c31565b50505050905090810190601f168015613c795780820380516001836020036101000a031916815260200191505b50945050505050600060405180830381600087803b158015613c9a57600080fd5b505af1158015613cae573d6000803e3d6000fd5b50505050600460009054906101000a900473ffffffffffffffffffffffffffffffffffffffff1673ffffffffffffffffffffffffffffffffffffffff16630dd7597885846040518363ffffffff167c0100000000000000000000000000000000000000000000000000000000028152600401808060200180602001838103835285818151815260200191508051906020019080838360005b83811015613d61578082015181840152602081019050613d46565b50505050905090810190601f168015613d8e5780820380516001836020036101000a031916815260200191505b50838103825284818151815260200191508051906020019080838360005b83811015613dc7578082015181840152602081019050613dac565b50505050905090810190601f168015613df45780820380516001836020036101000a031916815260200191505b50945050505050600060405180830381600087803b158015613e1557600080fd5b505af1158015613e29573d6000803e3d6000fd5b50505050600460009054906101000a900473ffffffffffffffffffffffffffffffffffffffff1673ffffffffffffffffffffffffffffffffffffffff16639e92b79185836040518363ffffffff167c0100000000000000000000000000000000000000000000000000000000028152600401808060200180602001838103835285818151815260200191508051906020019080838360005b83811015613edc578082015181840152602081019050613ec1565b50505050905090810190601f168015613f095780820380516001836020036101000a031916815260200191505b50838103825284818151815260200191508051906020019080838360005b83811015613f42578082015181840152602081019050613f27565b50505050905090810190601f168015613f6f5780820380516001836020036101000a031916815260200191505b50945050505050600060405180830381600087803b158015613f9057600080fd5b505af1158015613fa4573d6000803e3d6000fd5b505050505050505050565b60608060608060011515600160003373ffffffffffffffffffffffffffffffffffffffff1673ffffffffffffffffffffffffffffffffffffffff16815260200190815260200160002060009054906101000a900460ff1615151461405e576040517f08c379a00000000000000000000000000000000000000000000000000000000081526004018080602001828103825260298152602001806155586029913960400191505060405180910390fd5b600460009054906101000a900473ffffffffffffffffffffffffffffffffffffffff1673ffffffffffffffffffffffffffffffffffffffff1663451644ba866040518263ffffffff167c01000000000000000000000000000000000000000000000000000000000281526004018080602001828103825283818151815260200191508051906020019080838360005b838110156141085780820151818401526020810190506140ed565b50505050905090810190601f1680156141355780820380516001836020036101000a031916815260200191505b509250505060006040518083038186803b15801561415257600080fd5b505afa158015614166573d6000803e3d6000fd5b505050506040513d6000823e3d601f19601f82011682018060405250602081101561419057600080fd5b81019080805160405193929190846401000000008211156141b057600080fd5b838201915060208201858111156141c657600080fd5b82518660018202830111640100000000821117156141e357600080fd5b8083526020830192505050908051906020019080838360005b838110156142175780820151818401526020810190506141fc565b50505050905090810190601f1680156142445780820380516001836020036101000a031916815260200191505b50604052505050600460009054906101000a900473ffffffffffffffffffffffffffffffffffffffff1673ffffffffffffffffffffffffffffffffffffffff166345824eff876040518263ffffffff167c01000000000000000000000000000000000000000000000000000000000281526004018080602001828103825283818151815260200191508051906020019080838360005b838110156142f55780820151818401526020810190506142da565b50505050905090810190601f1680156143225780820380516001836020036101000a031916815260200191505b509250505060006040518083038186803b15801561433f57600080fd5b505afa158015614353573d6000803e3d6000fd5b505050506040513d6000823e3d601f19601f82011682018060405250602081101561437d57600080fd5b810190808051604051939291908464010000000082111561439d57600080fd5b838201915060208201858111156143b357600080fd5b82518660018202830111640100000000821117156143d057600080fd5b8083526020830192505050908051906020019080838360005b838110156144045780820151818401526020810190506143e9565b50505050905090810190601f1680156144315780820380516001836020036101000a031916815260200191505b50604052505050600460009054906101000a900473ffffffffffffffffffffffffffffffffffffffff1673ffffffffffffffffffffffffffffffffffffffff1663b4d31147886040518263ffffffff167c01000000000000000000000000000000000000000000000000000000000281526004018080602001828103825283818151815260200191508051906020019080838360005b838110156144e25780820151818401526020810190506144c7565b50505050905090810190601f16801561450f5780820380516001836020036101000a031916815260200191505b509250505060006040518083038186803b15801561452c57600080fd5b505afa158015614540573d6000803e3d6000fd5b505050506040513d6000823e3d601f19601f82011682018060405250602081101561456a57600080fd5b810190808051604051939291908464010000000082111561458a57600080fd5b838201915060208201858111156145a057600080fd5b82518660018202830111640100000000821117156145bd57600080fd5b8083526020830192505050908051906020019080838360005b838110156145f15780820151818401526020810190506145d6565b50505050905090810190601f16801561461e5780820380516001836020036101000a031916815260200191505b50604052505050600460009054906101000a900473ffffffffffffffffffffffffffffffffffffffff1673ffffffffffffffffffffffffffffffffffffffff1663b85390be896040518263ffffffff167c01000000000000000000000000000000000000000000000000000000000281526004018080602001828103825283818151815260200191508051906020019080838360005b838110156146cf5780820151818401526020810190506146b4565b50505050905090810190601f1680156146fc5780820380516001836020036101000a031916815260200191505b509250505060006040518083038186803b15801561471957600080fd5b505afa15801561472d573d6000803e3d6000fd5b505050506040513d6000823e3d601f19601f82011682018060405250602081101561475757600080fd5b810190808051604051939291908464010000000082111561477757600080fd5b8382019150602082018581111561478d57600080fd5b82518660018202830111640100000000821117156147aa57600080fd5b8083526020830192505050908051906020019080838360005b838110156147de5780820151818401526020810190506147c3565b50505050905090810190601f16801561480b5780820380516001836020036101000a031916815260200191505b5060405250505093509350935093509193509193565b60016020528060005260406000206000915054906101000a900460ff1681565b6060806060806060808660011515600160003373ffffffffffffffffffffffffffffffffffffffff1673ffffffffffffffffffffffffffffffffffffffff16815260200190815260200160002060009054906101000a900460ff161515148061495e57503373ffffffffffffffffffffffffffffffffffffffff166002826040518082805190602001908083835b602083106148f257805182526020820191506020810190506020830392506148cf565b6001836020036101000a038019825116818451168082178552505050505050905001915050908152602001604051809103902060009054906101000a900473ffffffffffffffffffffffffffffffffffffffff1673ffffffffffffffffffffffffffffffffffffffff16145b6149b3576040517f08c379a00000000000000000000000000000000000000000000000000000000081526004018080602001828103825260598152602001806155a96059913960600191505060405180910390fd5b600560009054906101000a900473ffffffffffffffffffffffffffffffffffffffff1673ffffffffffffffffffffffffffffffffffffffff1663dd1388c2896040518263ffffffff167c01000000000000000000000000000000000000000000000000000000000281526004018080602001828103825283818151815260200191508051906020019080838360005b83811015614a5d578082015181840152602081019050614a42565b50505050905090810190601f168015614a8a5780820380516001836020036101000a031916815260200191505b509250505060006040518083038186803b158015614aa757600080fd5b505afa158015614abb573d6000803e3d6000fd5b505050506040513d6000823e3d601f19601f820116820180604052506020811015614ae557600080fd5b8101908080516040519392919084640100000000821115614b0557600080fd5b83820191506020820185811115614b1b57600080fd5b8251866001820283011164010000000082111715614b3857600080fd5b8083526020830192505050908051906020019080838360005b83811015614b6c578082015181840152602081019050614b51565b50505050905090810190601f168015614b995780820380516001836020036101000a031916815260200191505b50604052505050600560009054906101000a900473ffffffffffffffffffffffffffffffffffffffff1673ffffffffffffffffffffffffffffffffffffffff16637c7b5ee88a6040518263ffffffff167c01000000000000000000000000000000000000000000000000000000000281526004018080602001828103825283818151815260200191508051906020019080838360005b83811015614c4a578082015181840152602081019050614c2f565b50505050905090810190601f168015614c775780820380516001836020036101000a031916815260200191505b509250505060006040518083038186803b158015614c9457600080fd5b505afa158015614ca8573d6000803e3d6000fd5b505050506040513d6000823e3d601f19601f820116820180604052506020811015614cd257600080fd5b8101908080516040519392919084640100000000821115614cf257600080fd5b83820191506020820185811115614d0857600080fd5b8251866001820283011164010000000082111715614d2557600080fd5b8083526020830192505050908051906020019080838360005b83811015614d59578082015181840152602081019050614d3e565b50505050905090810190601f168015614d865780820380516001836020036101000a031916815260200191505b50604052505050600560009054906101000a900473ffffffffffffffffffffffffffffffffffffffff1673ffffffffffffffffffffffffffffffffffffffff1663f2c6d3cc8b6040518263ffffffff167c01000000000000000000000000000000000000000000000000000000000281526004018080602001828103825283818151815260200191508051906020019080838360005b83811015614e37578082015181840152602081019050614e1c565b50505050905090810190601f168015614e645780820380516001836020036101000a031916815260200191505b509250505060006040518083038186803b158015614e8157600080fd5b505afa158015614e95573d6000803e3d6000fd5b505050506040513d6000823e3d601f19601f820116820180604052506020811015614ebf57600080fd5b8101908080516040519392919084640100000000821115614edf57600080fd5b83820191506020820185811115614ef557600080fd5b8251866001820283011164010000000082111715614f1257600080fd5b8083526020830192505050908051906020019080838360005b83811015614f46578082015181840152602081019050614f2b565b50505050905090810190601f168015614f735780820380516001836020036101000a031916815260200191505b50604052505050600560009054906101000a900473ffffffffffffffffffffffffffffffffffffffff1673ffffffffffffffffffffffffffffffffffffffff166335cbe12c8c6040518263ffffffff167c01000000000000000000000000000000000000000000000000000000000281526004018080602001828103825283818151815260200191508051906020019080838360005b83811015615024578082015181840152602081019050615009565b50505050905090810190601f1680156150515780820380516001836020036101000a031916815260200191505b509250505060006040518083038186803b15801561506e57600080fd5b505afa158015615082573d6000803e3d6000fd5b505050506040513d6000823e3d601f19601f8201168201806040525060208110156150ac57600080fd5b81019080805160405193929190846401000000008211156150cc57600080fd5b838201915060208201858111156150e257600080fd5b82518660018202830111640100000000821117156150ff57600080fd5b8083526020830192505050908051906020019080838360005b83811015615133578082015181840152602081019050615118565b50505050905090810190601f1680156151605780820380516001836020036101000a031916815260200191505b50604052505050600560009054906101000a900473ffffffffffffffffffffffffffffffffffffffff1673ffffffffffffffffffffffffffffffffffffffff1663a0595e898d6040518263ffffffff167c01000000000000000000000000000000000000000000000000000000000281526004018080602001828103825283818151815260200191508051906020019080838360005b838110156152115780820151818401526020810190506151f6565b50505050905090810190601f16801561523e5780820380516001836020036101000a031916815260200191505b509250505060006040518083038186803b15801561525b57600080fd5b505afa15801561526f573d6000803e3d6000fd5b505050506040513d6000823e3d601f19601f82011682018060405250602081101561529957600080fd5b81019080805160405193929190846401000000008211156152b957600080fd5b838201915060208201858111156152cf57600080fd5b82518660018202830111640100000000821117156152ec57600080fd5b8083526020830192505050908051906020019080838360005b83811015615320578082015181840152602081019050615305565b50505050905090810190601f16801561534d5780820380516001836020036101000a031916815260200191505b50604052505050600560009054906101000a900473ffffffffffffffffffffffffffffffffffffffff1673ffffffffffffffffffffffffffffffffffffffff16632324d5208e6040518263ffffffff167c01000000000000000000000000000000000000000000000000000000000281526004018080602001828103825283818151815260200191508051906020019080838360005b838110156153fe5780820151818401526020810190506153e3565b50505050905090810190601f16801561542b5780820380516001836020036101000a031916815260200191505b509250505060006040518083038186803b15801561544857600080fd5b505afa15801561545c573d6000803e3d6000fd5b505050506040513d6000823e3d601f19601f82011682018060405250602081101561548657600080fd5b81019080805160405193929190846401000000008211156154a657600080fd5b838201915060208201858111156154bc57600080fd5b82518660018202830111640100000000821117156154d957600080fd5b8083526020830192505050908051906020019080838360005b8381101561550d5780820151818401526020810190506154f2565b50505050905090810190601f16801561553a5780820380516001836020036101000a031916815260200191505b50604052505050965096509650965096509650509193955091939556fe596f7520617265204e6f7420617574686f726973656420746f204163636573732074686520646174614f7070732c20596f752077696c6c206e65656420746f20636f6e7461637420746865206f776e6572596f752043616e6e6f7420546865205265636f7264732c20596f752063616e206f6e6c792061636365737320796f7572206f776e207265636f726473206f722c20596f75206e65656420746f206265206120646f63746f722ea265627a7a7231582048dc41ced50736799c364dfbc36a2a40db7af929eada8db974200888e3fc026264736f6c63430005110032",
  "source": "// SPDX-License-Identifier: GPL-3.0\r\n// pragma solidity >=0.7.0;\r\npragma solidity 0.5.17;\r\nimport \"./Patients.sol\";\r\nimport \"./Doctors.sol\";\r\nimport \"./AccessControl.sol\";\r\nimport \"./Records.sol\";\r\n\r\ncontract MedicalInfoAddGet is AccessControl {\r\n    //Creating the Contracts instances of Doctor and Patient.\r\n    Patients patient_;\r\n    Doctors doctor_;\r\n    Records record_;\r\n\r\n    // constructor(address _patientsContractAddress, address _doctorsContractAddress, address _recordsContractAddress) public {\r\n    constructor(\r\n        Patients _patientsContractAddress,\r\n        Doctors _doctorsContractAddress,\r\n        Records _recordsContractAddress\r\n    ) public {\r\n        //updating the contracts instances with the addresses of the constructor\r\n        patient_ = Patients(_patientsContractAddress);\r\n        doctor_ = Doctors(_doctorsContractAddress);\r\n        record_ = Records(_recordsContractAddress);\r\n    }\r\n\r\n    /****\r\n        Function addMedicalInfoPatient Updates the information of the patient in the patient contract.\r\n        parameters passed are:\r\n        string patientName\r\n        string patientId\r\n        string patientMobileNumber\r\n        string patientGender\r\n        string patientAddress\r\n        string patientDateOfBirth\r\n        string[] allergiesKnown\r\n        and at last adds this user in the authorisedPatient Map, as ID=>ADDRESS\r\n    ****/\r\n\r\n    //The information in Patient Contract is updated using: patientContractInstance.FunctionName(Parameters);\r\n    function addMedicalInfoPatient(\r\n        string memory _patientName,\r\n        string memory _patientId,\r\n        // string memory _patientBloodGroup,\r\n        string memory _patientMobileNumber,\r\n        string memory _patientGender,\r\n        string memory _patientAddress,\r\n        string memory _patientDateOfBirth,\r\n        string memory _allergiesKnown,\r\n        // string memory _patientInsurance,\r\n        address _patientWalletAddress\r\n    ) public onlyDoctor {\r\n        patient_.addPatientName(_patientId, _patientName);\r\n        // patient_.addPatientBloodGroup(_patientId, _patientBloodGroup);\r\n        // patient_.addPatientInsurance(_patientId, _patientInsurance);\r\n        patient_.addPatientMobileNumber(_patientId, _patientMobileNumber);\r\n        patient_.addPatientGender(_patientId, _patientGender);\r\n        patient_.addPatientAddress(_patientId, _patientAddress);\r\n        patient_.addPatientDateOfBirth(_patientId, _patientDateOfBirth);\r\n        patient_.addPatientAllergies(_patientId, _allergiesKnown);\r\n        authorisedPatient[_patientId] = _patientWalletAddress;\r\n    }\r\n\r\n    /****\r\n        Function addMedicalInfoDoctor Updates the information of the Doctor in the Doctor contract.\r\n        parameters passed are:\r\n        string doctorName;\r\n        string doctorId;\r\n        string doctorSpeciality;\r\n        string doctorHospital;\r\n        string doctorGender;\r\n    ****/\r\n\r\n    //The information in Doctor Contract is updated using: doctorContractInstance.FunctionName(Parameters);\r\n\r\n    function addMedicalInfoDoctor(\r\n        string memory _doctorName,\r\n        string memory _doctorId,\r\n        string memory _doctorSpeciality,\r\n        string memory _doctorHospital,\r\n        string memory _doctorGender\r\n    ) public onlyDoctor {\r\n        doctor_.addDoctorName(_doctorId, _doctorName);\r\n        doctor_.addDoctorSpeciality(_doctorId, _doctorSpeciality);\r\n        doctor_.addDoctorHospital(_doctorId, _doctorHospital);\r\n        doctor_.addDoctorGender(_doctorId, _doctorGender);\r\n    }\r\n\r\n    /****\r\n        Function addMedicalRecords Updates the information of the Patients Medical record in the Records contract.\r\n        parameters passed are:\r\n        string patientId;\r\n        string lastUpdated;\r\n        string currentMedicalDosage;\r\n        string updatedBy; //doctors id\r\n        string currentDiagnosis;\r\n        string PDFreport;\r\n    ****/\r\n\r\n    function addMedicalRecords(\r\n        string memory _patientId,\r\n        string memory _lastUpdated,\r\n        string memory _currentMedicalDosage,\r\n        string memory _updatedBy,\r\n        string memory _currentDiagnosis,\r\n        string memory _PDFreport\r\n    ) public onlyDoctor {\r\n        record_.addLastUpdated(_patientId, _lastUpdated);\r\n        record_.addCurrentMedicalDosage(_patientId, _currentMedicalDosage);\r\n        record_.addUpdatedBy(_patientId, _updatedBy);\r\n        record_.addCurrentDiagnosis(_patientId, _currentDiagnosis);\r\n        record_.addPDFreport(_patientId, _PDFreport);\r\n    }\r\n\r\n    /****\r\n        Function getMedicalInfoPatient gets the information of the patient in the patient contract.\r\n        parameters passed are:\r\n        string patientId\r\n    ****/\r\n\r\n    //The information in Patient Contract is get using: patientContractInstance.FunctionName(Parameters);\r\n    //the address in OnlyDoctor will be sent from the metamsk....\r\n    //\r\n    function getMedicalInfoPatient(string memory _patientId)\r\n        public\r\n        view\r\n        patientModifier(_patientId)\r\n        returns (\r\n            string memory,\r\n            string memory,\r\n            string memory,\r\n            string memory,\r\n            string memory,\r\n            // string memory,\r\n            // string memory,\r\n            string memory\r\n        )\r\n    {\r\n        return (\r\n            patient_.getPatientName(_patientId),\r\n            patient_.getPatientMobileNumber(_patientId),\r\n            patient_.getPatientGender(_patientId),\r\n            patient_.getPatientAddress(_patientId),\r\n            patient_.getPatientDateOfBirth(_patientId),\r\n            // patient_.getPatientBloodGroup(_patientId),\r\n            // patient_.getPatientInsurance(_patientId),\r\n            patient_.getPatientAllergies(_patientId)\r\n        );\r\n    }\r\n\r\n    /****\r\n        Function getMedicalInfoDoctor gets the information of the Doctor in the Doctor contract.\r\n        parameters passed are:\r\n        string doctorId;\r\n    ****/\r\n\r\n    //The information in Doctor Contract is retrieved using: doctorContractInstance.FunctionName(Parameters);\r\n\r\n    function getMedicalInfoDoctor(string memory _doctorId)\r\n        public\r\n        view\r\n        onlyDoctor\r\n        returns (\r\n            string memory,\r\n            string memory,\r\n            string memory,\r\n            string memory\r\n        )\r\n    {\r\n        return (\r\n            doctor_.getDoctorName(_doctorId),\r\n            doctor_.getDoctorSpeciality(_doctorId),\r\n            doctor_.getDoctorHospital(_doctorId),\r\n            doctor_.getDoctorGender(_doctorId)\r\n        );\r\n    }\r\n\r\n    /****\r\n        Function getMedicalRecords gets the information of the Patients Medical record from the Records contract.\r\n        parameters passed are:\r\n        string patientId;\r\n    ****/\r\n\r\n    function getMedicalRecords(string memory _patientId)\r\n        public\r\n        view\r\n        patientModifier(_patientId)\r\n        returns (\r\n            string memory,\r\n            string memory,\r\n            string memory,\r\n            string memory,\r\n            string memory,\r\n            string memory\r\n        )\r\n    {\r\n        return (\r\n            record_.getLastUpdated(_patientId),\r\n            record_.getCurrentMedicalDosage(_patientId),\r\n            record_.getUpdatedBy(_patientId),\r\n            record_.getCurrentDiagnosis(_patientId),\r\n            record_.getPDFreport(_patientId),\r\n            record_.getAllPDFReports(_patientId)\r\n        );\r\n    }\r\n}\r\n",
  "sourcePath": "C:/Users/Neeraj/Desktop/fetch folder/Blockchain-Based-Medical-Health-Records/src/contracts/MedicalInfoAddGet.sol",
  "compiler": {
    "name": "solc",
    "version": "0.5.17+commit.d19bba13.Emscripten.clang"
  },
  "schemaVersion": "3.0.1",
  "updatedAt": "2022-07-22T10:36:33.020Z",
  "devdoc": {
    "methods": {}
  },
  "userdoc": {
    "methods": {
      "addAuthorisedDoctor(address)": {
        "notice": "**  Updates the doctorsAddress in the database of authorised doctors. Along with this, check for the isOwner, if the caller is owner, then only it is allowed to Add the address. Parameter passed - _doctorAddress Any other doctor can add a new doctor.***"
      },
      "addMedicalInfoDoctor(string,string,string,string,string)": {
        "notice": "** Function addMedicalInfoDoctor Updates the information of the Doctor in the Doctor contract. parameters passed are: string doctorName; string doctorId; string doctorSpeciality; string doctorHospital; string doctorGender;***"
      },
      "addMedicalInfoPatient(string,string,string,string,string,string,string,address)": {
        "notice": "** Function addMedicalInfoPatient Updates the information of the patient in the patient contract. parameters passed are: string patientName string patientId string patientMobileNumber string patientGender string patientAddress string patientDateOfBirth string[] allergiesKnown and at last adds this user in the authorisedPatient Map, as ID=>ADDRESS***"
      },
      "addMedicalRecords(string,string,string,string,string,string)": {
        "notice": "** Function addMedicalRecords Updates the information of the Patients Medical record in the Records contract. parameters passed are: string patientId; string lastUpdated; string currentMedicalDosage; string updatedBy; //doctors id string currentDiagnosis; string PDFreport;***"
      },
      "getMedicalInfoDoctor(string)": {
        "notice": "** Function getMedicalInfoDoctor gets the information of the Doctor in the Doctor contract. parameters passed are: string doctorId;***"
      },
      "getMedicalInfoPatient(string)": {
        "notice": "** Function getMedicalInfoPatient gets the information of the patient in the patient contract. parameters passed are: string patientId***"
      },
      "getMedicalRecords(string)": {
        "notice": "** Function getMedicalRecords gets the information of the Patients Medical record from the Records contract. parameters passed are: string patientId;***"
      },
      "removeAuthorisedDoctor(address)": {
        "notice": "*** RemoveAuthorisedDoctor - Removes the permission of the doctor that was previously assigned the permissions. Parameter Passes -  _doctorAddress Can only be removed by the Owner****"
      }
    }
  }
}