{
  "contractName": "Patients",
  "abi": [
    {
      "constant": false,
      "inputs": [
        {
          "internalType": "string",
          "name": "_patientId",
          "type": "string"
        },
        {
          "internalType": "string",
          "name": "_name",
          "type": "string"
        }
      ],
      "name": "addPatientName",
      "outputs": [],
      "payable": false,
      "stateMutability": "nonpayable",
      "type": "function",
      "signature": "0xffdbc055"
    },
    {
      "constant": true,
      "inputs": [
        {
          "internalType": "string",
          "name": "_patientId",
          "type": "string"
        }
      ],
      "name": "getPatientName",
      "outputs": [
        {
          "internalType": "string",
          "name": "",
          "type": "string"
        }
      ],
      "payable": false,
      "stateMutability": "view",
      "type": "function",
      "signature": "0x95e587f5"
    },
    {
      "constant": false,
      "inputs": [
        {
          "internalType": "string",
          "name": "_patientId",
          "type": "string"
        },
        {
          "internalType": "string",
          "name": "_bloodGroup",
          "type": "string"
        }
      ],
      "name": "addPatientBloodGroup",
      "outputs": [],
      "payable": false,
      "stateMutability": "nonpayable",
      "type": "function",
      "signature": "0xd5d38589"
    },
    {
      "constant": true,
      "inputs": [
        {
          "internalType": "string",
          "name": "_patientId",
          "type": "string"
        }
      ],
      "name": "getPatientBloodGroup",
      "outputs": [
        {
          "internalType": "string",
          "name": "",
          "type": "string"
        }
      ],
      "payable": false,
      "stateMutability": "view",
      "type": "function",
      "signature": "0x8e28794b"
    },
    {
      "constant": false,
      "inputs": [
        {
          "internalType": "string",
          "name": "_patientId",
          "type": "string"
        },
        {
          "internalType": "string",
          "name": "_patientMobileNumber",
          "type": "string"
        }
      ],
      "name": "addPatientMobileNumber",
      "outputs": [],
      "payable": false,
      "stateMutability": "nonpayable",
      "type": "function",
      "signature": "0x66c9868e"
    },
    {
      "constant": true,
      "inputs": [
        {
          "internalType": "string",
          "name": "_patientId",
          "type": "string"
        }
      ],
      "name": "getPatientMobileNumber",
      "outputs": [
        {
          "internalType": "string",
          "name": "",
          "type": "string"
        }
      ],
      "payable": false,
      "stateMutability": "view",
      "type": "function",
      "signature": "0xa0d48fad"
    },
    {
      "constant": false,
      "inputs": [
        {
          "internalType": "string",
          "name": "_patientId",
          "type": "string"
        },
        {
          "internalType": "string",
          "name": "_patientGender",
          "type": "string"
        }
      ],
      "name": "addPatientGender",
      "outputs": [],
      "payable": false,
      "stateMutability": "nonpayable",
      "type": "function",
      "signature": "0x3ba1e7fe"
    },
    {
      "constant": true,
      "inputs": [
        {
          "internalType": "string",
          "name": "_patientId",
          "type": "string"
        }
      ],
      "name": "getPatientGender",
      "outputs": [
        {
          "internalType": "string",
          "name": "",
          "type": "string"
        }
      ],
      "payable": false,
      "stateMutability": "view",
      "type": "function",
      "signature": "0x25c723d3"
    },
    {
      "constant": false,
      "inputs": [
        {
          "internalType": "string",
          "name": "_patientId",
          "type": "string"
        },
        {
          "internalType": "string",
          "name": "_patientAddress",
          "type": "string"
        }
      ],
      "name": "addPatientAddress",
      "outputs": [],
      "payable": false,
      "stateMutability": "nonpayable",
      "type": "function",
      "signature": "0xc38571a5"
    },
    {
      "constant": true,
      "inputs": [
        {
          "internalType": "string",
          "name": "_patientId",
          "type": "string"
        }
      ],
      "name": "getPatientAddress",
      "outputs": [
        {
          "internalType": "string",
          "name": "",
          "type": "string"
        }
      ],
      "payable": false,
      "stateMutability": "view",
      "type": "function",
      "signature": "0xca987a30"
    },
    {
      "constant": false,
      "inputs": [
        {
          "internalType": "string",
          "name": "_patientId",
          "type": "string"
        },
        {
          "internalType": "string",
          "name": "_patientDateOfBirth",
          "type": "string"
        }
      ],
      "name": "addPatientDateOfBirth",
      "outputs": [],
      "payable": false,
      "stateMutability": "nonpayable",
      "type": "function",
      "signature": "0xa1f058c7"
    },
    {
      "constant": true,
      "inputs": [
        {
          "internalType": "string",
          "name": "_patientId",
          "type": "string"
        }
      ],
      "name": "getPatientDateOfBirth",
      "outputs": [
        {
          "internalType": "string",
          "name": "",
          "type": "string"
        }
      ],
      "payable": false,
      "stateMutability": "view",
      "type": "function",
      "signature": "0xd19d5b83"
    },
    {
      "constant": false,
      "inputs": [
        {
          "internalType": "string",
          "name": "_patientId",
          "type": "string"
        },
        {
          "internalType": "string",
          "name": "_patientInsurance",
          "type": "string"
        }
      ],
      "name": "addPatientInsurance",
      "outputs": [],
      "payable": false,
      "stateMutability": "nonpayable",
      "type": "function",
      "signature": "0xf996e11d"
    },
    {
      "constant": true,
      "inputs": [
        {
          "internalType": "string",
          "name": "_patientId",
          "type": "string"
        }
      ],
      "name": "getPatientInsurance",
      "outputs": [
        {
          "internalType": "string",
          "name": "",
          "type": "string"
        }
      ],
      "payable": false,
      "stateMutability": "view",
      "type": "function",
      "signature": "0xa27e4df7"
    },
    {
      "constant": false,
      "inputs": [
        {
          "internalType": "string",
          "name": "_patientId",
          "type": "string"
        },
        {
          "internalType": "string",
          "name": "_allergy",
          "type": "string"
        }
      ],
      "name": "addPatientAllergies",
      "outputs": [],
      "payable": false,
      "stateMutability": "nonpayable",
      "type": "function",
      "signature": "0x153474b9"
    },
    {
      "constant": true,
      "inputs": [
        {
          "internalType": "string",
          "name": "_patientId",
          "type": "string"
        }
      ],
      "name": "getPatientAllergies",
      "outputs": [
        {
          "internalType": "string",
          "name": "",
          "type": "string"
        }
      ],
      "payable": false,
      "stateMutability": "view",
      "type": "function",
      "signature": "0x6df36bc6"
    }
  ],
  "bytecode": "0x608060405234801561001057600080fd5b5061241c806100206000396000f3fe608060405234801561001057600080fd5b506004361061011d576000357c010000000000000000000000000000000000000000000000000000000090048063a1f058c7116100b4578063d19d5b8311610083578063d19d5b8314611028578063d5d385891461115c578063f996e11d146112ae578063ffdbc055146114005761011d565b8063a1f058c714610b1c578063a27e4df714610c6e578063c38571a514610da2578063ca987a3014610ef45761011d565b80636df36bc6116100f05780636df36bc61461064c5780638e28794b1461078057806395e587f5146108b4578063a0d48fad146109e85761011d565b8063153474b91461012257806325c723d3146102745780633ba1e7fe146103a857806366c9868e146104fa575b600080fd5b6102726004803603604081101561013857600080fd5b810190808035906020019064010000000081111561015557600080fd5b82018360208201111561016757600080fd5b8035906020019184600183028401116401000000008311171561018957600080fd5b91908080601f016020809104026020016040519081016040528093929190818152602001838380828437600081840152601f19601f820116905080830192505050505050509192919290803590602001906401000000008111156101ec57600080fd5b8201836020820111156101fe57600080fd5b8035906020019184600183028401116401000000008311171561022057600080fd5b91908080601f016020809104026020016040519081016040528093929190818152602001838380828437600081840152601f19601f820116905080830192505050505050509192919290505050611552565b005b61032d6004803603602081101561028a57600080fd5b81019080803590602001906401000000008111156102a757600080fd5b8201836020820111156102b957600080fd5b803590602001918460018302840111640100000000831117156102db57600080fd5b91908080601f016020809104026020016040519081016040528093929190818152602001838380828437600081840152601f19601f82011690508083019250505050505050919291929050505061172f565b6040518080602001828103825283818151815260200191508051906020019080838360005b8381101561036d578082015181840152602081019050610352565b50505050905090810190601f16801561039a5780820380516001836020036101000a031916815260200191505b509250505060405180910390f35b6104f8600480360360408110156103be57600080fd5b81019080803590602001906401000000008111156103db57600080fd5b8201836020820111156103ed57600080fd5b8035906020019184600183028401116401000000008311171561040f57600080fd5b91908080601f016020809104026020016040519081016040528093929190818152602001838380828437600081840152601f19601f8201169050808301925050505050505091929192908035906020019064010000000081111561047257600080fd5b82018360208201111561048457600080fd5b803590602001918460018302840111640100000000831117156104a657600080fd5b91908080601f016020809104026020016040519081016040528093929190818152602001838380828437600081840152601f19601f82011690508083019250505050505050919291929050505061183d565b005b61064a6004803603604081101561051057600080fd5b810190808035906020019064010000000081111561052d57600080fd5b82018360208201111561053f57600080fd5b8035906020019184600183028401116401000000008311171561056157600080fd5b91908080601f016020809104026020016040519081016040528093929190818152602001838380828437600081840152601f19601f820116905080830192505050505050509192919290803590602001906401000000008111156105c457600080fd5b8201836020820111156105d657600080fd5b803590602001918460018302840111640100000000831117156105f857600080fd5b91908080601f016020809104026020016040519081016040528093929190818152602001838380828437600081840152601f19601f8201169050808301925050505050505091929192905050506118c2565b005b6107056004803603602081101561066257600080fd5b810190808035906020019064010000000081111561067f57600080fd5b82018360208201111561069157600080fd5b803590602001918460018302840111640100000000831117156106b357600080fd5b91908080601f016020809104026020016040519081016040528093929190818152602001838380828437600081840152601f19601f820116905080830192505050505050509192919290505050611947565b6040518080602001828103825283818151815260200191508051906020019080838360005b8381101561074557808201518184015260208101905061072a565b50505050905090810190601f1680156107725780820380516001836020036101000a031916815260200191505b509250505060405180910390f35b6108396004803603602081101561079657600080fd5b81019080803590602001906401000000008111156107b357600080fd5b8201836020820111156107c557600080fd5b803590602001918460018302840111640100000000831117156107e757600080fd5b91908080601f016020809104026020016040519081016040528093929190818152602001838380828437600081840152601f19601f820116905080830192505050505050509192919290505050611a55565b6040518080602001828103825283818151815260200191508051906020019080838360005b8381101561087957808201518184015260208101905061085e565b50505050905090810190601f1680156108a65780820380516001836020036101000a031916815260200191505b509250505060405180910390f35b61096d600480360360208110156108ca57600080fd5b81019080803590602001906401000000008111156108e757600080fd5b8201836020820111156108f957600080fd5b8035906020019184600183028401116401000000008311171561091b57600080fd5b91908080601f016020809104026020016040519081016040528093929190818152602001838380828437600081840152601f19601f820116905080830192505050505050509192919290505050611b63565b6040518080602001828103825283818151815260200191508051906020019080838360005b838110156109ad578082015181840152602081019050610992565b50505050905090810190601f1680156109da5780820380516001836020036101000a031916815260200191505b509250505060405180910390f35b610aa1600480360360208110156109fe57600080fd5b8101908080359060200190640100000000811115610a1b57600080fd5b820183602082011115610a2d57600080fd5b80359060200191846001830284011164010000000083111715610a4f57600080fd5b91908080601f016020809104026020016040519081016040528093929190818152602001838380828437600081840152601f19601f820116905080830192505050505050509192919290505050611c71565b6040518080602001828103825283818151815260200191508051906020019080838360005b83811015610ae1578082015181840152602081019050610ac6565b50505050905090810190601f168015610b0e5780820380516001836020036101000a031916815260200191505b509250505060405180910390f35b610c6c60048036036040811015610b3257600080fd5b8101908080359060200190640100000000811115610b4f57600080fd5b820183602082011115610b6157600080fd5b80359060200191846001830284011164010000000083111715610b8357600080fd5b91908080601f016020809104026020016040519081016040528093929190818152602001838380828437600081840152601f19601f82011690508083019250505050505050919291929080359060200190640100000000811115610be657600080fd5b820183602082011115610bf857600080fd5b80359060200191846001830284011164010000000083111715610c1a57600080fd5b91908080601f016020809104026020016040519081016040528093929190818152602001838380828437600081840152601f19601f820116905080830192505050505050509192919290505050611d7f565b005b610d2760048036036020811015610c8457600080fd5b8101908080359060200190640100000000811115610ca157600080fd5b820183602082011115610cb357600080fd5b80359060200191846001830284011164010000000083111715610cd557600080fd5b91908080601f016020809104026020016040519081016040528093929190818152602001838380828437600081840152601f19601f820116905080830192505050505050509192919290505050611e04565b6040518080602001828103825283818151815260200191508051906020019080838360005b83811015610d67578082015181840152602081019050610d4c565b50505050905090810190601f168015610d945780820380516001836020036101000a031916815260200191505b509250505060405180910390f35b610ef260048036036040811015610db857600080fd5b8101908080359060200190640100000000811115610dd557600080fd5b820183602082011115610de757600080fd5b80359060200191846001830284011164010000000083111715610e0957600080fd5b91908080601f016020809104026020016040519081016040528093929190818152602001838380828437600081840152601f19601f82011690508083019250505050505050919291929080359060200190640100000000811115610e6c57600080fd5b820183602082011115610e7e57600080fd5b80359060200191846001830284011164010000000083111715610ea057600080fd5b91908080601f016020809104026020016040519081016040528093929190818152602001838380828437600081840152601f19601f820116905080830192505050505050509192919290505050611f12565b005b610fad60048036036020811015610f0a57600080fd5b8101908080359060200190640100000000811115610f2757600080fd5b820183602082011115610f3957600080fd5b80359060200191846001830284011164010000000083111715610f5b57600080fd5b91908080601f016020809104026020016040519081016040528093929190818152602001838380828437600081840152601f19601f820116905080830192505050505050509192919290505050611f97565b6040518080602001828103825283818151815260200191508051906020019080838360005b83811015610fed578082015181840152602081019050610fd2565b50505050905090810190601f16801561101a5780820380516001836020036101000a031916815260200191505b509250505060405180910390f35b6110e16004803603602081101561103e57600080fd5b810190808035906020019064010000000081111561105b57600080fd5b82018360208201111561106d57600080fd5b8035906020019184600183028401116401000000008311171561108f57600080fd5b91908080601f016020809104026020016040519081016040528093929190818152602001838380828437600081840152601f19601f8201169050808301925050505050505091929192905050506120a5565b6040518080602001828103825283818151815260200191508051906020019080838360005b83811015611121578082015181840152602081019050611106565b50505050905090810190601f16801561114e5780820380516001836020036101000a031916815260200191505b509250505060405180910390f35b6112ac6004803603604081101561117257600080fd5b810190808035906020019064010000000081111561118f57600080fd5b8201836020820111156111a157600080fd5b803590602001918460018302840111640100000000831117156111c357600080fd5b91908080601f016020809104026020016040519081016040528093929190818152602001838380828437600081840152601f19601f8201169050808301925050505050505091929192908035906020019064010000000081111561122657600080fd5b82018360208201111561123857600080fd5b8035906020019184600183028401116401000000008311171561125a57600080fd5b91908080601f016020809104026020016040519081016040528093929190818152602001838380828437600081840152601f19601f8201169050808301925050505050505091929192905050506121b3565b005b6113fe600480360360408110156112c457600080fd5b81019080803590602001906401000000008111156112e157600080fd5b8201836020820111156112f357600080fd5b8035906020019184600183028401116401000000008311171561131557600080fd5b91908080601f016020809104026020016040519081016040528093929190818152602001838380828437600081840152601f19601f8201169050808301925050505050505091929192908035906020019064010000000081111561137857600080fd5b82018360208201111561138a57600080fd5b803590602001918460018302840111640100000000831117156113ac57600080fd5b91908080601f016020809104026020016040519081016040528093929190818152602001838380828437600081840152601f19601f820116905080830192505050505050509192919290505050612238565b005b6115506004803603604081101561141657600080fd5b810190808035906020019064010000000081111561143357600080fd5b82018360208201111561144557600080fd5b8035906020019184600183028401116401000000008311171561146757600080fd5b91908080601f016020809104026020016040519081016040528093929190818152602001838380828437600081840152601f19601f820116905080830192505050505050509192919290803590602001906401000000008111156114ca57600080fd5b8201836020820111156114dc57600080fd5b803590602001918460018302840111640100000000831117156114fe57600080fd5b91908080601f016020809104026020016040519081016040528093929190818152602001838380828437600081840152601f19601f8201169050808301925050505050505091929192905050506122bd565b005b6000826040518082805190602001908083835b602083106115885780518252602082019150602081019050602083039250611565565b6001836020036101000a038019825116818451168082178552505050505050905001915050908152602001604051809103902060020181604051602001808380546001816001161561010002031660029004801561161d5780601f106115fb57610100808354040283529182019161161d565b820191906000526020600020905b815481529060010190602001808311611609575b5050807f2c2000000000000000000000000000000000000000000000000000000000000081525060020182805190602001908083835b602083106116765780518252602082019150602081019050602083039250611653565b6001836020036101000a038019825116818451168082178552505050505050905001925050506040516020818303038152906040526000836040518082805190602001908083835b602083106116e157805182526020820191506020810190506020830392506116be565b6001836020036101000a0380198251168184511680821785525050505050509050019150509081526020016040518091039020600601908051906020019061172a929190612342565b505050565b60606000826040518082805190602001908083835b602083106117675780518252602082019150602081019050602083039250611744565b6001836020036101000a03801982511681845116808217855250505050505090500191505090815260200160405180910390206003018054600181600116156101000203166002900480601f0160208091040260200160405190810160405280929190818152602001828054600181600116156101000203166002900480156118315780601f1061180657610100808354040283529160200191611831565b820191906000526020600020905b81548152906001019060200180831161181457829003601f168201915b50505050509050919050565b806000836040518082805190602001908083835b602083106118745780518252602082019150602081019050602083039250611851565b6001836020036101000a038019825116818451168082178552505050505050905001915050908152602001604051809103902060030190805190602001906118bd929190612342565b505050565b806000836040518082805190602001908083835b602083106118f957805182526020820191506020810190506020830392506118d6565b6001836020036101000a03801982511681845116808217855250505050505090500191505090815260200160405180910390206002019080519060200190611942929190612342565b505050565b60606000826040518082805190602001908083835b6020831061197f578051825260208201915060208101905060208303925061195c565b6001836020036101000a03801982511681845116808217855250505050505090500191505090815260200160405180910390206006018054600181600116156101000203166002900480601f016020809104026020016040519081016040528092919081815260200182805460018160011615610100020316600290048015611a495780601f10611a1e57610100808354040283529160200191611a49565b820191906000526020600020905b815481529060010190602001808311611a2c57829003601f168201915b50505050509050919050565b60606000826040518082805190602001908083835b60208310611a8d5780518252602082019150602081019050602083039250611a6a565b6001836020036101000a03801982511681845116808217855250505050505090500191505090815260200160405180910390206001018054600181600116156101000203166002900480601f016020809104026020016040519081016040528092919081815260200182805460018160011615610100020316600290048015611b575780601f10611b2c57610100808354040283529160200191611b57565b820191906000526020600020905b815481529060010190602001808311611b3a57829003601f168201915b50505050509050919050565b60606000826040518082805190602001908083835b60208310611b9b5780518252602082019150602081019050602083039250611b78565b6001836020036101000a03801982511681845116808217855250505050505090500191505090815260200160405180910390206000018054600181600116156101000203166002900480601f016020809104026020016040519081016040528092919081815260200182805460018160011615610100020316600290048015611c655780601f10611c3a57610100808354040283529160200191611c65565b820191906000526020600020905b815481529060010190602001808311611c4857829003601f168201915b50505050509050919050565b60606000826040518082805190602001908083835b60208310611ca95780518252602082019150602081019050602083039250611c86565b6001836020036101000a03801982511681845116808217855250505050505090500191505090815260200160405180910390206002018054600181600116156101000203166002900480601f016020809104026020016040519081016040528092919081815260200182805460018160011615610100020316600290048015611d735780601f10611d4857610100808354040283529160200191611d73565b820191906000526020600020905b815481529060010190602001808311611d5657829003601f168201915b50505050509050919050565b806000836040518082805190602001908083835b60208310611db65780518252602082019150602081019050602083039250611d93565b6001836020036101000a03801982511681845116808217855250505050505090500191505090815260200160405180910390206005019080519060200190611dff929190612342565b505050565b60606000826040518082805190602001908083835b60208310611e3c5780518252602082019150602081019050602083039250611e19565b6001836020036101000a03801982511681845116808217855250505050505090500191505090815260200160405180910390206007018054600181600116156101000203166002900480601f016020809104026020016040519081016040528092919081815260200182805460018160011615610100020316600290048015611f065780601f10611edb57610100808354040283529160200191611f06565b820191906000526020600020905b815481529060010190602001808311611ee957829003601f168201915b50505050509050919050565b806000836040518082805190602001908083835b60208310611f495780518252602082019150602081019050602083039250611f26565b6001836020036101000a03801982511681845116808217855250505050505090500191505090815260200160405180910390206004019080519060200190611f92929190612342565b505050565b60606000826040518082805190602001908083835b60208310611fcf5780518252602082019150602081019050602083039250611fac565b6001836020036101000a03801982511681845116808217855250505050505090500191505090815260200160405180910390206004018054600181600116156101000203166002900480601f0160208091040260200160405190810160405280929190818152602001828054600181600116156101000203166002900480156120995780601f1061206e57610100808354040283529160200191612099565b820191906000526020600020905b81548152906001019060200180831161207c57829003601f168201915b50505050509050919050565b60606000826040518082805190602001908083835b602083106120dd57805182526020820191506020810190506020830392506120ba565b6001836020036101000a03801982511681845116808217855250505050505090500191505090815260200160405180910390206005018054600181600116156101000203166002900480601f0160208091040260200160405190810160405280929190818152602001828054600181600116156101000203166002900480156121a75780601f1061217c576101008083540402835291602001916121a7565b820191906000526020600020905b81548152906001019060200180831161218a57829003601f168201915b50505050509050919050565b806000836040518082805190602001908083835b602083106121ea57805182526020820191506020810190506020830392506121c7565b6001836020036101000a03801982511681845116808217855250505050505090500191505090815260200160405180910390206001019080519060200190612233929190612342565b505050565b806000836040518082805190602001908083835b6020831061226f578051825260208201915060208101905060208303925061224c565b6001836020036101000a038019825116818451168082178552505050505050905001915050908152602001604051809103902060070190805190602001906122b8929190612342565b505050565b806000836040518082805190602001908083835b602083106122f457805182526020820191506020810190506020830392506122d1565b6001836020036101000a0380198251168184511680821785525050505050509050019150509081526020016040518091039020600001908051906020019061233d929190612342565b505050565b828054600181600116156101000203166002900490600052602060002090601f016020900481019282601f1061238357805160ff19168380011785556123b1565b828001600101855582156123b1579182015b828111156123b0578251825591602001919060010190612395565b5b5090506123be91906123c2565b5090565b6123e491905b808211156123e05760008160009055506001016123c8565b5090565b9056fea265627a7a72315820b47b2ee9cf5fb098b9a9107bd7a8692d1e4259a0c0d4844a1d56fa2a756d3f7664736f6c63430005110032",
  "source": "// SPDX-License-Identifier: GPL-3.0\r\n\r\n// pragma solidity >=0.7.0 <0.9.0;\r\npragma solidity 0.5.17;\r\n\r\n// pragma experimental ABIEncoderV2;\r\n\r\ncontract Patients {\r\n    struct patientsInfo {\r\n        string patientName;\r\n        string patientBloodGroup;\r\n        string patientMobileNumber;\r\n        string patientGender;\r\n        string patientAddress;\r\n        string patientDateOfBirth;\r\n        string allergiesKnown;\r\n        string patientInsurance;\r\n    }\r\n\r\n    //realtionrelation between a patient id and its details...\r\n    mapping(string => patientsInfo) patientIdInformation;\r\n\r\n    /**** \r\n    //can be used as uint64\r\n    //patient id (int) (12 digit number : 10digit phone number + 2 random)\r\n    ****/\r\n\r\n    /****\r\n    This function adds the patients Names \r\n    params _name -  patient name\r\n    params _patientId - patient'a generated Id.\r\n    ****/\r\n    function addPatientName(string memory _patientId, string memory _name)\r\n        public\r\n    {\r\n        // patientIdInformation[_patientId].push(_name);\r\n        patientIdInformation[_patientId].patientName = _name;\r\n    }\r\n\r\n    /****\r\n    This function returns the patients Name\r\n    params _patientId -  patient name\r\n    ****/\r\n    function getPatientName(string memory _patientId)\r\n        public\r\n        view\r\n        returns (string memory)\r\n    {\r\n        return patientIdInformation[_patientId].patientName;\r\n    }\r\n\r\n    /****\r\n    This function adds the patients Blood Group \r\n    params _name -  patient blood group\r\n    params _patientId - patient'a generated Id.\r\n    ****/\r\n    function addPatientBloodGroup(\r\n        string memory _patientId,\r\n        string memory _bloodGroup\r\n    ) public {\r\n        patientIdInformation[_patientId].patientBloodGroup = _bloodGroup;\r\n    }\r\n\r\n    /****\r\n    This function returns the patients blood group\r\n    params _patientId -  patient name\r\n    ****/\r\n    function getPatientBloodGroup(string memory _patientId)\r\n        public\r\n        view\r\n        returns (string memory)\r\n    {\r\n        return patientIdInformation[_patientId].patientBloodGroup;\r\n    }\r\n\r\n    /****\r\n    This function adds the patients Mobile Number\r\n    params _patientMobileNumber -  patient Mobile Number\r\n    params _patientId\r\n    ****/\r\n    function addPatientMobileNumber(\r\n        string memory _patientId,\r\n        string memory _patientMobileNumber\r\n    ) public {\r\n        patientIdInformation[_patientId]\r\n            .patientMobileNumber = _patientMobileNumber;\r\n    }\r\n\r\n    /****\r\n    This function returns the patients Mobile Number\r\n    params _patientId\r\n    ****/\r\n    function getPatientMobileNumber(string memory _patientId)\r\n        public\r\n        view\r\n        returns (string memory)\r\n    {\r\n        return patientIdInformation[_patientId].patientMobileNumber;\r\n    }\r\n\r\n    /****\r\n    This function adds the Gender of the Patient\r\n    params _patientGender -  patient Mobile Number\r\n    params _patientId\r\n    ****/\r\n    function addPatientGender(\r\n        string memory _patientId,\r\n        string memory _patientGender\r\n    ) public {\r\n        patientIdInformation[_patientId].patientGender = _patientGender;\r\n    }\r\n\r\n    /****\r\n    This function returns the patients Gender\r\n    params _patientId\r\n    ****/\r\n    function getPatientGender(string memory _patientId)\r\n        public\r\n        view\r\n        returns (string memory)\r\n    {\r\n        return patientIdInformation[_patientId].patientGender;\r\n    }\r\n\r\n    /****\r\n    This function adds the patients Address\r\n    params _patientAddress -  patient Address\r\n    params _patientId\r\n    ****/\r\n    function addPatientAddress(\r\n        string memory _patientId,\r\n        string memory _patientAddress\r\n    ) public {\r\n        patientIdInformation[_patientId].patientAddress = _patientAddress;\r\n    }\r\n\r\n    /****\r\n    This function returns the patients Mobile Number\r\n    params _patientId\r\n    ****/\r\n    function getPatientAddress(string memory _patientId)\r\n        public\r\n        view\r\n        returns (string memory)\r\n    {\r\n        return patientIdInformation[_patientId].patientAddress;\r\n    }\r\n\r\n    /****\r\n    This function adds the patients date of birth\r\n    params _patientMobileNumber -  patient patient date of birth\r\n    params _patientId\r\n    ****/\r\n    function addPatientDateOfBirth(\r\n        string memory _patientId,\r\n        string memory _patientDateOfBirth\r\n    ) public {\r\n        patientIdInformation[_patientId]\r\n            .patientDateOfBirth = _patientDateOfBirth;\r\n    }\r\n\r\n    /****\r\n    This function returns the patients date of birth\r\n    params _patientId\r\n    ****/\r\n    function getPatientDateOfBirth(string memory _patientId)\r\n        public\r\n        view\r\n        returns (string memory)\r\n    {\r\n        return patientIdInformation[_patientId].patientDateOfBirth;\r\n    }\r\n\r\n    /****\r\n    This function adds the patients insurance\r\n    params _patientMobileNumber -  patient patient insurance\r\n    params _patientId\r\n    ****/\r\n    function addPatientInsurance(\r\n        string memory _patientId,\r\n        string memory _patientInsurance\r\n    ) public {\r\n        patientIdInformation[_patientId].patientInsurance = _patientInsurance;\r\n    }\r\n\r\n    /****\r\n    This function returns the patients insurance\r\n    params _patientId\r\n    ****/\r\n    function getPatientInsurance(string memory _patientId)\r\n        public\r\n        view\r\n        returns (string memory)\r\n    {\r\n        return patientIdInformation[_patientId].patientInsurance;\r\n    }\r\n\r\n    /****\r\n    This function adds the patients allergies \r\n    params _allergy - \r\n    params _patientId\r\n    ****/\r\n\r\n    function addPatientAllergies(\r\n        string memory _patientId,\r\n        string memory _allergy\r\n    ) public {\r\n        // patientIdInformation[_patientId].allergiesKnown.push(_allergy);\r\n        // patientIdInformation[_patientId].allergiesKnown = patientIdInformation[_patientId].allergiesKnown\r\n\r\n        patientIdInformation[_patientId].allergiesKnown = string(\r\n            abi.encodePacked(\r\n                patientIdInformation[_patientId].patientMobileNumber,\r\n                \", \",\r\n                _allergy\r\n            )\r\n        );\r\n    }\r\n\r\n    /****\r\n    This function returns the patients allergies  \r\n    params _patientId\r\n    ****/\r\n    function getPatientAllergies(string memory _patientId)\r\n        public\r\n        view\r\n        returns (string memory)\r\n    {\r\n        return patientIdInformation[_patientId].allergiesKnown;\r\n    }\r\n}\r\n",
  "sourcePath": "C:\\Users\\Neeraj\\Desktop\\fetch folder\\Blockchain-Based-Medical-Health-Records\\src\\contracts\\Patients.sol",
  "compiler": {
    "name": "solc",
    "version": "0.5.17+commit.d19bba13.Emscripten.clang"
  },
  "schemaVersion": "3.0.1",
  "updatedAt": "2022-07-22T10:36:33.003Z",
  "devdoc": {
    "methods": {}
  },
  "userdoc": {
    "methods": {
      "addPatientAddress(string,string)": {
        "notice": "** This function adds the patients Address params _patientAddress -  patient Address params _patientId***"
      },
      "addPatientAllergies(string,string)": {
        "notice": "** This function adds the patients allergies  params _allergy -  params _patientId***"
      },
      "addPatientBloodGroup(string,string)": {
        "notice": "** This function adds the patients Blood Group  params _name -  patient blood group params _patientId - patient'a generated Id.***"
      },
      "addPatientDateOfBirth(string,string)": {
        "notice": "** This function adds the patients date of birth params _patientMobileNumber -  patient patient date of birth params _patientId***"
      },
      "addPatientGender(string,string)": {
        "notice": "** This function adds the Gender of the Patient params _patientGender -  patient Mobile Number params _patientId***"
      },
      "addPatientInsurance(string,string)": {
        "notice": "** This function adds the patients insurance params _patientMobileNumber -  patient patient insurance params _patientId***"
      },
      "addPatientMobileNumber(string,string)": {
        "notice": "** This function adds the patients Mobile Number params _patientMobileNumber -  patient Mobile Number params _patientId***"
      },
      "addPatientName(string,string)": {
        "notice": "** This function adds the patients Names  params _name -  patient name params _patientId - patient'a generated Id.***"
      },
      "getPatientAddress(string)": {
        "notice": "** This function returns the patients Mobile Number params _patientId***"
      },
      "getPatientAllergies(string)": {
        "notice": "** This function returns the patients allergies   params _patientId***"
      },
      "getPatientBloodGroup(string)": {
        "notice": "** This function returns the patients blood group params _patientId -  patient name***"
      },
      "getPatientDateOfBirth(string)": {
        "notice": "** This function returns the patients date of birth params _patientId***"
      },
      "getPatientGender(string)": {
        "notice": "** This function returns the patients Gender params _patientId***"
      },
      "getPatientInsurance(string)": {
        "notice": "** This function returns the patients insurance params _patientId***"
      },
      "getPatientMobileNumber(string)": {
        "notice": "** This function returns the patients Mobile Number params _patientId***"
      },
      "getPatientName(string)": {
        "notice": "** This function returns the patients Name params _patientId -  patient name***"
      }
    }
  }
}