{
  "contractName": "Patients",
  "abi": [
    {
      "constant": false,
      "inputs": [
        {
          "internalType": "string",
          "name": "_patientId",
          "type": "string"
        },
        {
          "internalType": "string",
          "name": "_name",
          "type": "string"
        }
      ],
      "name": "addPatientName",
      "outputs": [],
      "payable": false,
      "stateMutability": "nonpayable",
      "type": "function",
      "signature": "0xffdbc055"
    },
    {
      "constant": true,
      "inputs": [
        {
          "internalType": "string",
          "name": "_patientId",
          "type": "string"
        }
      ],
      "name": "getPatientName",
      "outputs": [
        {
          "internalType": "string",
          "name": "",
          "type": "string"
        }
      ],
      "payable": false,
      "stateMutability": "view",
      "type": "function",
      "signature": "0x95e587f5"
    },
    {
      "constant": false,
      "inputs": [
        {
          "internalType": "string",
          "name": "_patientId",
          "type": "string"
        },
        {
          "internalType": "string",
          "name": "_patientMobileNumber",
          "type": "string"
        }
      ],
      "name": "addPatientMobileNumber",
      "outputs": [],
      "payable": false,
      "stateMutability": "nonpayable",
      "type": "function",
      "signature": "0x66c9868e"
    },
    {
      "constant": true,
      "inputs": [
        {
          "internalType": "string",
          "name": "_patientId",
          "type": "string"
        }
      ],
      "name": "getPatientMobileNumber",
      "outputs": [
        {
          "internalType": "string",
          "name": "",
          "type": "string"
        }
      ],
      "payable": false,
      "stateMutability": "view",
      "type": "function",
      "signature": "0xa0d48fad"
    },
    {
      "constant": false,
      "inputs": [
        {
          "internalType": "string",
          "name": "_patientId",
          "type": "string"
        },
        {
          "internalType": "string",
          "name": "_patientGender",
          "type": "string"
        }
      ],
      "name": "addPatientGender",
      "outputs": [],
      "payable": false,
      "stateMutability": "nonpayable",
      "type": "function",
      "signature": "0x3ba1e7fe"
    },
    {
      "constant": true,
      "inputs": [
        {
          "internalType": "string",
          "name": "_patientId",
          "type": "string"
        }
      ],
      "name": "getPatientGender",
      "outputs": [
        {
          "internalType": "string",
          "name": "",
          "type": "string"
        }
      ],
      "payable": false,
      "stateMutability": "view",
      "type": "function",
      "signature": "0x25c723d3"
    },
    {
      "constant": false,
      "inputs": [
        {
          "internalType": "string",
          "name": "_patientId",
          "type": "string"
        },
        {
          "internalType": "string",
          "name": "_patientAddress",
          "type": "string"
        }
      ],
      "name": "addPatientAddress",
      "outputs": [],
      "payable": false,
      "stateMutability": "nonpayable",
      "type": "function",
      "signature": "0xc38571a5"
    },
    {
      "constant": true,
      "inputs": [
        {
          "internalType": "string",
          "name": "_patientId",
          "type": "string"
        }
      ],
      "name": "getPatientAddress",
      "outputs": [
        {
          "internalType": "string",
          "name": "",
          "type": "string"
        }
      ],
      "payable": false,
      "stateMutability": "view",
      "type": "function",
      "signature": "0xca987a30"
    },
    {
      "constant": false,
      "inputs": [
        {
          "internalType": "string",
          "name": "_patientId",
          "type": "string"
        },
        {
          "internalType": "string",
          "name": "_patientDateOfBirth",
          "type": "string"
        }
      ],
      "name": "addPatientDateOfBirth",
      "outputs": [],
      "payable": false,
      "stateMutability": "nonpayable",
      "type": "function",
      "signature": "0xa1f058c7"
    },
    {
      "constant": true,
      "inputs": [
        {
          "internalType": "string",
          "name": "_patientId",
          "type": "string"
        }
      ],
      "name": "getPatientDateOfBirth",
      "outputs": [
        {
          "internalType": "string",
          "name": "",
          "type": "string"
        }
      ],
      "payable": false,
      "stateMutability": "view",
      "type": "function",
      "signature": "0xd19d5b83"
    },
    {
      "constant": false,
      "inputs": [
        {
          "internalType": "string",
          "name": "_patientId",
          "type": "string"
        },
        {
          "internalType": "string",
          "name": "_allergy",
          "type": "string"
        }
      ],
      "name": "addPatientAllergies",
      "outputs": [],
      "payable": false,
      "stateMutability": "nonpayable",
      "type": "function",
      "signature": "0x153474b9"
    },
    {
      "constant": true,
      "inputs": [
        {
          "internalType": "string",
          "name": "_patientId",
          "type": "string"
        }
      ],
      "name": "getPatientAllergies",
      "outputs": [
        {
          "internalType": "string",
          "name": "",
          "type": "string"
        }
      ],
      "payable": false,
      "stateMutability": "view",
      "type": "function",
      "signature": "0x6df36bc6"
    }
  ],
  "bytecode": "0x608060405234801561001057600080fd5b50611b9e806100206000396000f3fe608060405234801561001057600080fd5b50600436106100d1576000357c010000000000000000000000000000000000000000000000000000000090048063a0d48fad1161008e578063a0d48fad14610868578063a1f058c71461099c578063c38571a514610aee578063ca987a3014610c40578063d19d5b8314610d74578063ffdbc05514610ea8576100d1565b8063153474b9146100d657806325c723d3146102285780633ba1e7fe1461035c57806366c9868e146104ae5780636df36bc61461060057806395e587f514610734575b600080fd5b610226600480360360408110156100ec57600080fd5b810190808035906020019064010000000081111561010957600080fd5b82018360208201111561011b57600080fd5b8035906020019184600183028401116401000000008311171561013d57600080fd5b91908080601f016020809104026020016040519081016040528093929190818152602001838380828437600081840152601f19601f820116905080830192505050505050509192919290803590602001906401000000008111156101a057600080fd5b8201836020820111156101b257600080fd5b803590602001918460018302840111640100000000831117156101d457600080fd5b91908080601f016020809104026020016040519081016040528093929190818152602001838380828437600081840152601f19601f820116905080830192505050505050509192919290505050610ffa565b005b6102e16004803603602081101561023e57600080fd5b810190808035906020019064010000000081111561025b57600080fd5b82018360208201111561026d57600080fd5b8035906020019184600183028401116401000000008311171561028f57600080fd5b91908080601f016020809104026020016040519081016040528093929190818152602001838380828437600081840152601f19601f8201169050808301925050505050505091929192905050506111d7565b6040518080602001828103825283818151815260200191508051906020019080838360005b83811015610321578082015181840152602081019050610306565b50505050905090810190601f16801561034e5780820380516001836020036101000a031916815260200191505b509250505060405180910390f35b6104ac6004803603604081101561037257600080fd5b810190808035906020019064010000000081111561038f57600080fd5b8201836020820111156103a157600080fd5b803590602001918460018302840111640100000000831117156103c357600080fd5b91908080601f016020809104026020016040519081016040528093929190818152602001838380828437600081840152601f19601f8201169050808301925050505050505091929192908035906020019064010000000081111561042657600080fd5b82018360208201111561043857600080fd5b8035906020019184600183028401116401000000008311171561045a57600080fd5b91908080601f016020809104026020016040519081016040528093929190818152602001838380828437600081840152601f19601f8201169050808301925050505050505091929192905050506112e5565b005b6105fe600480360360408110156104c457600080fd5b81019080803590602001906401000000008111156104e157600080fd5b8201836020820111156104f357600080fd5b8035906020019184600183028401116401000000008311171561051557600080fd5b91908080601f016020809104026020016040519081016040528093929190818152602001838380828437600081840152601f19601f8201169050808301925050505050505091929192908035906020019064010000000081111561057857600080fd5b82018360208201111561058a57600080fd5b803590602001918460018302840111640100000000831117156105ac57600080fd5b91908080601f016020809104026020016040519081016040528093929190818152602001838380828437600081840152601f19601f82011690508083019250505050505050919291929050505061136a565b005b6106b96004803603602081101561061657600080fd5b810190808035906020019064010000000081111561063357600080fd5b82018360208201111561064557600080fd5b8035906020019184600183028401116401000000008311171561066757600080fd5b91908080601f016020809104026020016040519081016040528093929190818152602001838380828437600081840152601f19601f8201169050808301925050505050505091929192905050506113ef565b6040518080602001828103825283818151815260200191508051906020019080838360005b838110156106f95780820151818401526020810190506106de565b50505050905090810190601f1680156107265780820380516001836020036101000a031916815260200191505b509250505060405180910390f35b6107ed6004803603602081101561074a57600080fd5b810190808035906020019064010000000081111561076757600080fd5b82018360208201111561077957600080fd5b8035906020019184600183028401116401000000008311171561079b57600080fd5b91908080601f016020809104026020016040519081016040528093929190818152602001838380828437600081840152601f19601f8201169050808301925050505050505091929192905050506114fd565b6040518080602001828103825283818151815260200191508051906020019080838360005b8381101561082d578082015181840152602081019050610812565b50505050905090810190601f16801561085a5780820380516001836020036101000a031916815260200191505b509250505060405180910390f35b6109216004803603602081101561087e57600080fd5b810190808035906020019064010000000081111561089b57600080fd5b8201836020820111156108ad57600080fd5b803590602001918460018302840111640100000000831117156108cf57600080fd5b91908080601f016020809104026020016040519081016040528093929190818152602001838380828437600081840152601f19601f82011690508083019250505050505050919291929050505061160b565b6040518080602001828103825283818151815260200191508051906020019080838360005b83811015610961578082015181840152602081019050610946565b50505050905090810190601f16801561098e5780820380516001836020036101000a031916815260200191505b509250505060405180910390f35b610aec600480360360408110156109b257600080fd5b81019080803590602001906401000000008111156109cf57600080fd5b8201836020820111156109e157600080fd5b80359060200191846001830284011164010000000083111715610a0357600080fd5b91908080601f016020809104026020016040519081016040528093929190818152602001838380828437600081840152601f19601f82011690508083019250505050505050919291929080359060200190640100000000811115610a6657600080fd5b820183602082011115610a7857600080fd5b80359060200191846001830284011164010000000083111715610a9a57600080fd5b91908080601f016020809104026020016040519081016040528093929190818152602001838380828437600081840152601f19601f820116905080830192505050505050509192919290505050611719565b005b610c3e60048036036040811015610b0457600080fd5b8101908080359060200190640100000000811115610b2157600080fd5b820183602082011115610b3357600080fd5b80359060200191846001830284011164010000000083111715610b5557600080fd5b91908080601f016020809104026020016040519081016040528093929190818152602001838380828437600081840152601f19601f82011690508083019250505050505050919291929080359060200190640100000000811115610bb857600080fd5b820183602082011115610bca57600080fd5b80359060200191846001830284011164010000000083111715610bec57600080fd5b91908080601f016020809104026020016040519081016040528093929190818152602001838380828437600081840152601f19601f82011690508083019250505050505050919291929050505061179e565b005b610cf960048036036020811015610c5657600080fd5b8101908080359060200190640100000000811115610c7357600080fd5b820183602082011115610c8557600080fd5b80359060200191846001830284011164010000000083111715610ca757600080fd5b91908080601f016020809104026020016040519081016040528093929190818152602001838380828437600081840152601f19601f820116905080830192505050505050509192919290505050611823565b6040518080602001828103825283818151815260200191508051906020019080838360005b83811015610d39578082015181840152602081019050610d1e565b50505050905090810190601f168015610d665780820380516001836020036101000a031916815260200191505b509250505060405180910390f35b610e2d60048036036020811015610d8a57600080fd5b8101908080359060200190640100000000811115610da757600080fd5b820183602082011115610db957600080fd5b80359060200191846001830284011164010000000083111715610ddb57600080fd5b91908080601f016020809104026020016040519081016040528093929190818152602001838380828437600081840152601f19601f820116905080830192505050505050509192919290505050611931565b6040518080602001828103825283818151815260200191508051906020019080838360005b83811015610e6d578082015181840152602081019050610e52565b50505050905090810190601f168015610e9a5780820380516001836020036101000a031916815260200191505b509250505060405180910390f35b610ff860048036036040811015610ebe57600080fd5b8101908080359060200190640100000000811115610edb57600080fd5b820183602082011115610eed57600080fd5b80359060200191846001830284011164010000000083111715610f0f57600080fd5b91908080601f016020809104026020016040519081016040528093929190818152602001838380828437600081840152601f19601f82011690508083019250505050505050919291929080359060200190640100000000811115610f7257600080fd5b820183602082011115610f8457600080fd5b80359060200191846001830284011164010000000083111715610fa657600080fd5b91908080601f016020809104026020016040519081016040528093929190818152602001838380828437600081840152601f19601f820116905080830192505050505050509192919290505050611a3f565b005b6000826040518082805190602001908083835b60208310611030578051825260208201915060208101905060208303925061100d565b6001836020036101000a03801982511681845116808217855250505050505090500191505090815260200160405180910390206001018160405160200180838054600181600116156101000203166002900480156110c55780601f106110a35761010080835404028352918201916110c5565b820191906000526020600020905b8154815290600101906020018083116110b1575b5050807f2c2000000000000000000000000000000000000000000000000000000000000081525060020182805190602001908083835b6020831061111e57805182526020820191506020810190506020830392506110fb565b6001836020036101000a038019825116818451168082178552505050505050905001925050506040516020818303038152906040526000836040518082805190602001908083835b602083106111895780518252602082019150602081019050602083039250611166565b6001836020036101000a038019825116818451168082178552505050505050905001915050908152602001604051809103902060050190805190602001906111d2929190611ac4565b505050565b60606000826040518082805190602001908083835b6020831061120f57805182526020820191506020810190506020830392506111ec565b6001836020036101000a03801982511681845116808217855250505050505090500191505090815260200160405180910390206002018054600181600116156101000203166002900480601f0160208091040260200160405190810160405280929190818152602001828054600181600116156101000203166002900480156112d95780601f106112ae576101008083540402835291602001916112d9565b820191906000526020600020905b8154815290600101906020018083116112bc57829003601f168201915b50505050509050919050565b806000836040518082805190602001908083835b6020831061131c57805182526020820191506020810190506020830392506112f9565b6001836020036101000a03801982511681845116808217855250505050505090500191505090815260200160405180910390206002019080519060200190611365929190611ac4565b505050565b806000836040518082805190602001908083835b602083106113a1578051825260208201915060208101905060208303925061137e565b6001836020036101000a038019825116818451168082178552505050505050905001915050908152602001604051809103902060010190805190602001906113ea929190611ac4565b505050565b60606000826040518082805190602001908083835b602083106114275780518252602082019150602081019050602083039250611404565b6001836020036101000a03801982511681845116808217855250505050505090500191505090815260200160405180910390206005018054600181600116156101000203166002900480601f0160208091040260200160405190810160405280929190818152602001828054600181600116156101000203166002900480156114f15780601f106114c6576101008083540402835291602001916114f1565b820191906000526020600020905b8154815290600101906020018083116114d457829003601f168201915b50505050509050919050565b60606000826040518082805190602001908083835b602083106115355780518252602082019150602081019050602083039250611512565b6001836020036101000a03801982511681845116808217855250505050505090500191505090815260200160405180910390206000018054600181600116156101000203166002900480601f0160208091040260200160405190810160405280929190818152602001828054600181600116156101000203166002900480156115ff5780601f106115d4576101008083540402835291602001916115ff565b820191906000526020600020905b8154815290600101906020018083116115e257829003601f168201915b50505050509050919050565b60606000826040518082805190602001908083835b602083106116435780518252602082019150602081019050602083039250611620565b6001836020036101000a03801982511681845116808217855250505050505090500191505090815260200160405180910390206001018054600181600116156101000203166002900480601f01602080910402602001604051908101604052809291908181526020018280546001816001161561010002031660029004801561170d5780601f106116e25761010080835404028352916020019161170d565b820191906000526020600020905b8154815290600101906020018083116116f057829003601f168201915b50505050509050919050565b806000836040518082805190602001908083835b60208310611750578051825260208201915060208101905060208303925061172d565b6001836020036101000a03801982511681845116808217855250505050505090500191505090815260200160405180910390206004019080519060200190611799929190611ac4565b505050565b806000836040518082805190602001908083835b602083106117d557805182526020820191506020810190506020830392506117b2565b6001836020036101000a0380198251168184511680821785525050505050509050019150509081526020016040518091039020600301908051906020019061181e929190611ac4565b505050565b60606000826040518082805190602001908083835b6020831061185b5780518252602082019150602081019050602083039250611838565b6001836020036101000a03801982511681845116808217855250505050505090500191505090815260200160405180910390206003018054600181600116156101000203166002900480601f0160208091040260200160405190810160405280929190818152602001828054600181600116156101000203166002900480156119255780601f106118fa57610100808354040283529160200191611925565b820191906000526020600020905b81548152906001019060200180831161190857829003601f168201915b50505050509050919050565b60606000826040518082805190602001908083835b602083106119695780518252602082019150602081019050602083039250611946565b6001836020036101000a03801982511681845116808217855250505050505090500191505090815260200160405180910390206004018054600181600116156101000203166002900480601f016020809104026020016040519081016040528092919081815260200182805460018160011615610100020316600290048015611a335780601f10611a0857610100808354040283529160200191611a33565b820191906000526020600020905b815481529060010190602001808311611a1657829003601f168201915b50505050509050919050565b806000836040518082805190602001908083835b60208310611a765780518252602082019150602081019050602083039250611a53565b6001836020036101000a03801982511681845116808217855250505050505090500191505090815260200160405180910390206000019080519060200190611abf929190611ac4565b505050565b828054600181600116156101000203166002900490600052602060002090601f016020900481019282601f10611b0557805160ff1916838001178555611b33565b82800160010185558215611b33579182015b82811115611b32578251825591602001919060010190611b17565b5b509050611b409190611b44565b5090565b611b6691905b80821115611b62576000816000905550600101611b4a565b5090565b9056fea265627a7a7231582074d31bec1a28e86e33f1c8da82f7816840ed917313e4cf97c516ae4d478895db64736f6c63430005110032",
  "source": "// SPDX-License-Identifier: GPL-3.0\r\n\r\n// pragma solidity >=0.7.0 <0.9.0;\r\npragma solidity 0.5.17;\r\n// pragma experimental ABIEncoderV2;\r\n\r\ncontract Patients{\r\n    struct patientsInfo{\r\n        string patientName;\r\n        // string patientId;\r\n        string patientMobileNumber;\r\n        string patientGender;\r\n        string patientAddress;\r\n        string patientDateOfBirth;\r\n        string allergiesKnown;\r\n    }\r\n\r\n    //realtionrelation between a patient id and its details...\r\n    mapping(string=>patientsInfo) patientIdInformation;\r\n\r\n    /**** \r\n    //can be used as uint64\r\n    //patient id (int) (12 digit number : 10digit phone number + 2 random)\r\n    ****/\r\n\r\n\r\n    /****\r\n    This function adds the patients Names \r\n    params _name -  patient name\r\n    params _patientId - patient'a generated Id.\r\n    ****/\r\n    function addPatientName(string memory _patientId, string memory _name) public{\r\n        // patientIdInformation[_patientId].push(_name);\r\n        patientIdInformation[_patientId].patientName = _name;\r\n    }\r\n\r\n    /****\r\n    This function returns the patients Name\r\n    params _patientId -  patient name\r\n    ****/\r\n    function getPatientName(string memory _patientId) public view returns(string memory){\r\n        return patientIdInformation[_patientId].patientName;\r\n    }\r\n\r\n    /****\r\n    This function adds the patients Mobile Number\r\n    params _patientMobileNumber -  patient Mobile Number\r\n    params _patientId\r\n    ****/\r\n    function addPatientMobileNumber(string memory _patientId, string memory _patientMobileNumber) public{\r\n        patientIdInformation[_patientId].patientMobileNumber = _patientMobileNumber;\r\n    }\r\n\r\n    /****\r\n    This function returns the patients Mobile Number\r\n    params _patientId\r\n    ****/\r\n    function getPatientMobileNumber(string memory _patientId) public view returns(string memory){\r\n        return patientIdInformation[_patientId].patientMobileNumber;\r\n    }\r\n\r\n\r\n    /****\r\n    This function adds the Gender of the Patient\r\n    params _patientGender -  patient Mobile Number\r\n    params _patientId\r\n    ****/\r\n    function addPatientGender(string memory _patientId, string memory _patientGender) public{\r\n        patientIdInformation[_patientId].patientGender = _patientGender;\r\n    }\r\n\r\n    /****\r\n    This function returns the patients Gender\r\n    params _patientId\r\n    ****/\r\n    function getPatientGender(string memory _patientId) public view returns(string memory){\r\n        return patientIdInformation[_patientId].patientGender;\r\n    }\r\n\r\n\r\n    /****\r\n    This function adds the patients Address\r\n    params _patientAddress -  patient Address\r\n    params _patientId\r\n    ****/\r\n    function addPatientAddress(string memory _patientId, string memory _patientAddress) public{\r\n        patientIdInformation[_patientId].patientAddress = _patientAddress;\r\n    }\r\n\r\n    /****\r\n    This function returns the patients Mobile Number\r\n    params _patientId\r\n    ****/\r\n    function getPatientAddress(string memory _patientId) public view returns(string memory){\r\n        return patientIdInformation[_patientId].patientAddress;\r\n    }\r\n\r\n\r\n    /****\r\n    This function adds the patients date of birth\r\n    params _patientMobileNumber -  patient patient date of birth\r\n    params _patientId\r\n    ****/\r\n    function addPatientDateOfBirth(string memory _patientId, string memory _patientDateOfBirth) public{\r\n        patientIdInformation[_patientId].patientDateOfBirth = _patientDateOfBirth;\r\n    }\r\n\r\n    /****\r\n    This function returns the patients date of birth\r\n    params _patientId\r\n    ****/\r\n    function getPatientDateOfBirth(string memory _patientId) public view returns(string memory){\r\n        return patientIdInformation[_patientId].patientDateOfBirth;\r\n    }\r\n\r\n\r\n    /****\r\n    This function adds the patients allergies \r\n    params _allergy - \r\n    params _patientId\r\n    ****/\r\n\r\n    function addPatientAllergies(string memory _patientId, string memory _allergy) public{\r\n        // patientIdInformation[_patientId].allergiesKnown.push(_allergy);\r\n        // patientIdInformation[_patientId].allergiesKnown = patientIdInformation[_patientId].allergiesKnown\r\n        \r\n        patientIdInformation[_patientId].allergiesKnown = string(abi.encodePacked(patientIdInformation[_patientId].patientMobileNumber,', ',_allergy));\r\n    }\r\n\r\n    /****\r\n    This function returns the patients allergies  \r\n    params _patientId\r\n    ****/\r\n    function getPatientAllergies(string memory _patientId) public view returns(string memory){\r\n        return patientIdInformation[_patientId].allergiesKnown;\r\n\r\n    }\r\n\r\n\r\n}",
  "sourcePath": "C:\\Users\\Neeraj\\Desktop\\Meidcal Health Records\\src\\contracts\\Patients.sol",
  "compiler": {
    "name": "solc",
    "version": "0.5.17+commit.d19bba13.Emscripten.clang"
  },
  "schemaVersion": "3.0.1",
  "updatedAt": "2022-05-28T12:40:19.595Z",
  "devdoc": {
    "methods": {}
  },
  "userdoc": {
    "methods": {
      "addPatientAddress(string,string)": {
        "notice": "** This function adds the patients Address params _patientAddress -  patient Address params _patientId***"
      },
      "addPatientAllergies(string,string)": {
        "notice": "** This function adds the patients allergies  params _allergy -  params _patientId***"
      },
      "addPatientDateOfBirth(string,string)": {
        "notice": "** This function adds the patients date of birth params _patientMobileNumber -  patient patient date of birth params _patientId***"
      },
      "addPatientGender(string,string)": {
        "notice": "** This function adds the Gender of the Patient params _patientGender -  patient Mobile Number params _patientId***"
      },
      "addPatientMobileNumber(string,string)": {
        "notice": "** This function adds the patients Mobile Number params _patientMobileNumber -  patient Mobile Number params _patientId***"
      },
      "addPatientName(string,string)": {
        "notice": "** This function adds the patients Names  params _name -  patient name params _patientId - patient'a generated Id.***"
      },
      "getPatientAddress(string)": {
        "notice": "** This function returns the patients Mobile Number params _patientId***"
      },
      "getPatientAllergies(string)": {
        "notice": "** This function returns the patients allergies   params _patientId***"
      },
      "getPatientDateOfBirth(string)": {
        "notice": "** This function returns the patients date of birth params _patientId***"
      },
      "getPatientGender(string)": {
        "notice": "** This function returns the patients Gender params _patientId***"
      },
      "getPatientMobileNumber(string)": {
        "notice": "** This function returns the patients Mobile Number params _patientId***"
      },
      "getPatientName(string)": {
        "notice": "** This function returns the patients Name params _patientId -  patient name***"
      }
    }
  }
}