{
  "contractName": "Patients",
  "abi": [
    {
      "constant": false,
      "inputs": [
        {
          "name": "_patientId",
          "type": "string"
        },
        {
          "name": "_name",
          "type": "string"
        }
      ],
      "name": "addPatientName",
      "outputs": [],
      "payable": false,
      "stateMutability": "nonpayable",
      "type": "function",
      "signature": "0xffdbc055"
    },
    {
      "constant": true,
      "inputs": [
        {
          "name": "_patientId",
          "type": "string"
        }
      ],
      "name": "getPatientName",
      "outputs": [
        {
          "name": "",
          "type": "string"
        }
      ],
      "payable": false,
      "stateMutability": "view",
      "type": "function",
      "signature": "0x95e587f5"
    },
    {
      "constant": false,
      "inputs": [
        {
          "name": "_patientId",
          "type": "string"
        },
        {
          "name": "_patientMobileNumber",
          "type": "string"
        }
      ],
      "name": "addPatientMobileNumber",
      "outputs": [],
      "payable": false,
      "stateMutability": "nonpayable",
      "type": "function",
      "signature": "0x66c9868e"
    },
    {
      "constant": true,
      "inputs": [
        {
          "name": "_patientId",
          "type": "string"
        }
      ],
      "name": "getPatientMobileNumber",
      "outputs": [
        {
          "name": "",
          "type": "string"
        }
      ],
      "payable": false,
      "stateMutability": "view",
      "type": "function",
      "signature": "0xa0d48fad"
    },
    {
      "constant": false,
      "inputs": [
        {
          "name": "_patientId",
          "type": "string"
        },
        {
          "name": "_patientGender",
          "type": "string"
        }
      ],
      "name": "addPatientGender",
      "outputs": [],
      "payable": false,
      "stateMutability": "nonpayable",
      "type": "function",
      "signature": "0x3ba1e7fe"
    },
    {
      "constant": true,
      "inputs": [
        {
          "name": "_patientId",
          "type": "string"
        }
      ],
      "name": "getPatientGender",
      "outputs": [
        {
          "name": "",
          "type": "string"
        }
      ],
      "payable": false,
      "stateMutability": "view",
      "type": "function",
      "signature": "0x25c723d3"
    },
    {
      "constant": false,
      "inputs": [
        {
          "name": "_patientId",
          "type": "string"
        },
        {
          "name": "_patientAddress",
          "type": "string"
        }
      ],
      "name": "addPatientAddress",
      "outputs": [],
      "payable": false,
      "stateMutability": "nonpayable",
      "type": "function",
      "signature": "0xc38571a5"
    },
    {
      "constant": true,
      "inputs": [
        {
          "name": "_patientId",
          "type": "string"
        }
      ],
      "name": "getPatientAddress",
      "outputs": [
        {
          "name": "",
          "type": "string"
        }
      ],
      "payable": false,
      "stateMutability": "view",
      "type": "function",
      "signature": "0xca987a30"
    },
    {
      "constant": false,
      "inputs": [
        {
          "name": "_patientId",
          "type": "string"
        },
        {
          "name": "_patientDateOfBirth",
          "type": "string"
        }
      ],
      "name": "addPatientDateOfBirth",
      "outputs": [],
      "payable": false,
      "stateMutability": "nonpayable",
      "type": "function",
      "signature": "0xa1f058c7"
    },
    {
      "constant": true,
      "inputs": [
        {
          "name": "_patientId",
          "type": "string"
        }
      ],
      "name": "getPatientDateOfBirth",
      "outputs": [
        {
          "name": "",
          "type": "string"
        }
      ],
      "payable": false,
      "stateMutability": "view",
      "type": "function",
      "signature": "0xd19d5b83"
    },
    {
      "constant": false,
      "inputs": [
        {
          "name": "_patientId",
          "type": "string"
        },
        {
          "name": "_allergy",
          "type": "string"
        }
      ],
      "name": "addPatientAllergies",
      "outputs": [],
      "payable": false,
      "stateMutability": "nonpayable",
      "type": "function",
      "signature": "0x153474b9"
    },
    {
      "constant": true,
      "inputs": [
        {
          "name": "_patientId",
          "type": "string"
        }
      ],
      "name": "getPatientAllergies",
      "outputs": [
        {
          "name": "",
          "type": "string[]"
        }
      ],
      "payable": false,
      "stateMutability": "view",
      "type": "function",
      "signature": "0x6df36bc6"
    }
  ],
  "bytecode": "0x608060405234801561001057600080fd5b506110fd806100206000396000f3fe6080604052600436106100b4576000357c010000000000000000000000000000000000000000000000000000000090048063153474b9146100b957806325c723d3146100e25780633ba1e7fe1461011f57806366c9868e146101485780636df36bc61461017157806395e587f5146101ae578063a0d48fad146101eb578063a1f058c714610228578063c38571a514610251578063ca987a301461027a578063d19d5b83146102b7578063ffdbc055146102f4575b600080fd5b3480156100c557600080fd5b506100e060048036036100db9190810190610e52565b61031d565b005b3480156100ee57600080fd5b5061010960048036036101049190810190610e11565b6103cc565b6040516101169190610fba565b60405180910390f35b34801561012b57600080fd5b5061014660048036036101419190810190610e52565b6104dc565b005b34801561015457600080fd5b5061016f600480360361016a9190810190610e52565b610563565b005b34801561017d57600080fd5b5061019860048036036101939190810190610e11565b6105ea565b6040516101a59190610f98565b60405180910390f35b3480156101ba57600080fd5b506101d560048036036101d09190810190610e11565b610741565b6040516101e29190610fba565b60405180910390f35b3480156101f757600080fd5b50610212600480360361020d9190810190610e11565b610851565b60405161021f9190610fba565b60405180910390f35b34801561023457600080fd5b5061024f600480360361024a9190810190610e52565b610961565b005b34801561025d57600080fd5b5061027860048036036102739190810190610e52565b6109e8565b005b34801561028657600080fd5b506102a1600480360361029c9190810190610e11565b610a6f565b6040516102ae9190610fba565b60405180910390f35b3480156102c357600080fd5b506102de60048036036102d99190810190610e11565b610b7f565b6040516102eb9190610fba565b60405180910390f35b34801561030057600080fd5b5061031b60048036036103169190810190610e52565b610c8f565b005b6000826040518082805190602001908083835b6020831015156103555780518252602082019150602081019050602083039250610330565b6001836020036101000a03801982511681845116808217855250505050505090500191505090815260200160405180910390206006018190806001815401808255809150509060018203906000526020600020016000909192909190915090805190602001906103c6929190610d16565b50505050565b60606000826040518082805190602001908083835b60208310151561040657805182526020820191506020810190506020830392506103e1565b6001836020036101000a03801982511681845116808217855250505050505090500191505090815260200160405180910390206003018054600181600116156101000203166002900480601f0160208091040260200160405190810160405280929190818152602001828054600181600116156101000203166002900480156104d05780601f106104a5576101008083540402835291602001916104d0565b820191906000526020600020905b8154815290600101906020018083116104b357829003601f168201915b50505050509050919050565b806000836040518082805190602001908083835b60208310151561051557805182526020820191506020810190506020830392506104f0565b6001836020036101000a0380198251168184511680821785525050505050509050019150509081526020016040518091039020600301908051906020019061055e929190610d16565b505050565b806000836040518082805190602001908083835b60208310151561059c5780518252602082019150602081019050602083039250610577565b6001836020036101000a038019825116818451168082178552505050505050905001915050908152602001604051809103902060020190805190602001906105e5929190610d16565b505050565b60606000826040518082805190602001908083835b60208310151561062457805182526020820191506020810190506020830392506105ff565b6001836020036101000a0380198251168184511680821785525050505050509050019150509081526020016040518091039020600601805480602002602001604051908101604052809291908181526020016000905b82821015610736578382906000526020600020018054600181600116156101000203166002900480601f0160208091040260200160405190810160405280929190818152602001828054600181600116156101000203166002900480156107225780601f106106f757610100808354040283529160200191610722565b820191906000526020600020905b81548152906001019060200180831161070557829003601f168201915b50505050508152602001906001019061067a565b505050509050919050565b60606000826040518082805190602001908083835b60208310151561077b5780518252602082019150602081019050602083039250610756565b6001836020036101000a03801982511681845116808217855250505050505090500191505090815260200160405180910390206000018054600181600116156101000203166002900480601f0160208091040260200160405190810160405280929190818152602001828054600181600116156101000203166002900480156108455780601f1061081a57610100808354040283529160200191610845565b820191906000526020600020905b81548152906001019060200180831161082857829003601f168201915b50505050509050919050565b60606000826040518082805190602001908083835b60208310151561088b5780518252602082019150602081019050602083039250610866565b6001836020036101000a03801982511681845116808217855250505050505090500191505090815260200160405180910390206002018054600181600116156101000203166002900480601f0160208091040260200160405190810160405280929190818152602001828054600181600116156101000203166002900480156109555780601f1061092a57610100808354040283529160200191610955565b820191906000526020600020905b81548152906001019060200180831161093857829003601f168201915b50505050509050919050565b806000836040518082805190602001908083835b60208310151561099a5780518252602082019150602081019050602083039250610975565b6001836020036101000a038019825116818451168082178552505050505050905001915050908152602001604051809103902060050190805190602001906109e3929190610d16565b505050565b806000836040518082805190602001908083835b602083101515610a2157805182526020820191506020810190506020830392506109fc565b6001836020036101000a03801982511681845116808217855250505050505090500191505090815260200160405180910390206004019080519060200190610a6a929190610d16565b505050565b60606000826040518082805190602001908083835b602083101515610aa95780518252602082019150602081019050602083039250610a84565b6001836020036101000a03801982511681845116808217855250505050505090500191505090815260200160405180910390206004018054600181600116156101000203166002900480601f016020809104026020016040519081016040528092919081815260200182805460018160011615610100020316600290048015610b735780601f10610b4857610100808354040283529160200191610b73565b820191906000526020600020905b815481529060010190602001808311610b5657829003601f168201915b50505050509050919050565b60606000826040518082805190602001908083835b602083101515610bb95780518252602082019150602081019050602083039250610b94565b6001836020036101000a03801982511681845116808217855250505050505090500191505090815260200160405180910390206005018054600181600116156101000203166002900480601f016020809104026020016040519081016040528092919081815260200182805460018160011615610100020316600290048015610c835780601f10610c5857610100808354040283529160200191610c83565b820191906000526020600020905b815481529060010190602001808311610c6657829003601f168201915b50505050509050919050565b806000836040518082805190602001908083835b602083101515610cc85780518252602082019150602081019050602083039250610ca3565b6001836020036101000a03801982511681845116808217855250505050505090500191505090815260200160405180910390206000019080519060200190610d11929190610d16565b505050565b828054600181600116156101000203166002900490600052602060002090601f016020900481019282601f10610d5757805160ff1916838001178555610d85565b82800160010185558215610d85579182015b82811115610d84578251825591602001919060010190610d69565b5b509050610d929190610d96565b5090565b610db891905b80821115610db4576000816000905550600101610d9c565b5090565b90565b600082601f8301121515610dce57600080fd5b8135610de1610ddc82611009565b610fdc565b91508082526020830160208301858383011115610dfd57600080fd5b610e08838284611070565b50505092915050565b600060208284031215610e2357600080fd5b600082013567ffffffffffffffff811115610e3d57600080fd5b610e4984828501610dbb565b91505092915050565b60008060408385031215610e6557600080fd5b600083013567ffffffffffffffff811115610e7f57600080fd5b610e8b85828601610dbb565b925050602083013567ffffffffffffffff811115610ea857600080fd5b610eb485828601610dbb565b9150509250929050565b6000610ec982611042565b80845260208401935083602082028501610ee285611035565b60005b84811015610f1b578383038852610efd838351610f62565b9250610f0882611063565b9150602088019750600181019050610ee5565b508196508694505050505092915050565b6000610f3782611058565b808452610f4b81602086016020860161107f565b610f54816110b2565b602085010191505092915050565b6000610f6d8261104d565b808452610f8181602086016020860161107f565b610f8a816110b2565b602085010191505092915050565b60006020820190508181036000830152610fb28184610ebe565b905092915050565b60006020820190508181036000830152610fd48184610f2c565b905092915050565b6000604051905081810181811067ffffffffffffffff82111715610fff57600080fd5b8060405250919050565b600067ffffffffffffffff82111561102057600080fd5b601f19601f8301169050602081019050919050565b6000602082019050919050565b600081519050919050565b600081519050919050565b600081519050919050565b6000602082019050919050565b82818337600083830152505050565b60005b8381101561109d578082015181840152602081019050611082565b838111156110ac576000848401525b50505050565b6000601f19601f830116905091905056fea265627a7a72305820a102bfbfebe0387c05d84d424c3c4d4a37f1315c932d2ddc86decdc5a8afccdf6c6578706572696d656e74616cf50037",
  "source": "// SPDX-License-Identifier: GPL-3.0\r\n\r\n// pragma solidity >=0.7.0 <0.9.0;\r\n// pragma solidity ^0.8.4;\r\npragma solidity >=0.5.1;\r\npragma experimental ABIEncoderV2;\r\ncontract Patients{\r\n    struct patientsInfo{\r\n        string patientName;\r\n        string patientId;\r\n        string patientMobileNumber;\r\n        string patientGender;\r\n        string patientAddress;\r\n        string patientDateOfBirth;\r\n        string[] allergiesKnown;\r\n    }\r\n\r\n    //realtionrelation between a patient id and its details...\r\n    mapping(string=>patientsInfo) patientIdInformation;\r\n\r\n    /**** \r\n    //can be used as uint64\r\n    //patient id (int) (12 digit number : 10digit phone number + 2 random)\r\n    ****/\r\n\r\n\r\n    /****\r\n    This function adds the patients Names \r\n    params _name -  patient name\r\n    params _patientId - patient'a generated Id.\r\n    ****/\r\n    function addPatientName(string memory _patientId, string memory _name) public{\r\n        // patientIdInformation[_patientId].push(_name);\r\n        patientIdInformation[_patientId].patientName = _name;\r\n    }\r\n\r\n    /****\r\n    This function returns the patients Name\r\n    params _patientId -  patient name\r\n    ****/\r\n    function getPatientName(string memory _patientId) public view returns(string memory){\r\n        return patientIdInformation[_patientId].patientName;\r\n    }\r\n\r\n    /****\r\n    This function adds the patients Mobile Number\r\n    params _patientMobileNumber -  patient Mobile Number\r\n    params _patientId\r\n    ****/\r\n    function addPatientMobileNumber(string memory _patientId, string memory _patientMobileNumber) public{\r\n        patientIdInformation[_patientId].patientMobileNumber = _patientMobileNumber;\r\n    }\r\n\r\n    /****\r\n    This function returns the patients Mobile Number\r\n    params _patientId\r\n    ****/\r\n    function getPatientMobileNumber(string memory _patientId) public view returns(string memory){\r\n        return patientIdInformation[_patientId].patientMobileNumber;\r\n    }\r\n\r\n\r\n    /****\r\n    This function adds the Gender of the Patient\r\n    params _patientGender -  patient Mobile Number\r\n    params _patientId\r\n    ****/\r\n    function addPatientGender(string memory _patientId, string memory _patientGender) public{\r\n        patientIdInformation[_patientId].patientGender = _patientGender;\r\n    }\r\n\r\n    /****\r\n    This function returns the patients Gender\r\n    params _patientId\r\n    ****/\r\n    function getPatientGender(string memory _patientId) public view returns(string memory){\r\n        return patientIdInformation[_patientId].patientGender;\r\n    }\r\n\r\n\r\n    /****\r\n    This function adds the patients Address\r\n    params _patientAddress -  patient Address\r\n    params _patientId\r\n    ****/\r\n    function addPatientAddress(string memory _patientId, string memory _patientAddress) public{\r\n        patientIdInformation[_patientId].patientAddress = _patientAddress;\r\n    }\r\n\r\n    /****\r\n    This function returns the patients Mobile Number\r\n    params _patientId\r\n    ****/\r\n    function getPatientAddress(string memory _patientId) public view returns(string memory){\r\n        return patientIdInformation[_patientId].patientAddress;\r\n    }\r\n\r\n\r\n    /****\r\n    This function adds the patients date of birth\r\n    params _patientMobileNumber -  patient patient date of birth\r\n    params _patientId\r\n    ****/\r\n    function addPatientDateOfBirth(string memory _patientId, string memory _patientDateOfBirth) public{\r\n        patientIdInformation[_patientId].patientDateOfBirth = _patientDateOfBirth;\r\n    }\r\n\r\n    /****\r\n    This function returns the patients date of birth\r\n    params _patientId\r\n    ****/\r\n    function getPatientDateOfBirth(string memory _patientId) public view returns(string memory){\r\n        return patientIdInformation[_patientId].patientDateOfBirth;\r\n    }\r\n\r\n\r\n    /****\r\n    This function adds the patients allergies \r\n    params _allergy - \r\n    params _patientId\r\n    ****/\r\n\r\n    function addPatientAllergies(string memory _patientId, string memory _allergy) public{\r\n        patientIdInformation[_patientId].allergiesKnown.push(_allergy);\r\n    }\r\n\r\n    /****\r\n    This function returns the patients allergies  \r\n    params _patientId\r\n    ****/\r\n    function getPatientAllergies(string memory _patientId) public view returns(string[] memory){\r\n        return patientIdInformation[_patientId].allergiesKnown;\r\n    }\r\n\r\n\r\n}",
  "sourcePath": "C:/Users/Neeraj/Desktop/Meidcal Health Records/src/contracts/Patients.sol",
  "compiler": {
    "name": "solc",
    "version": "0.5.1+commit.c8a2cb62.Emscripten.clang"
  },
  "schemaVersion": "3.0.1",
  "updatedAt": "2022-05-21T17:22:12.425Z",
  "devdoc": {
    "methods": {}
  },
  "userdoc": {
    "methods": {
      "addPatientAddress(string,string)": {
        "notice": "**\r This function adds the patients Address\r params _patientAddress -  patient Address\r params _patientId\r***"
      },
      "addPatientAllergies(string,string)": {
        "notice": "**\r This function adds the patients allergies \r params _allergy - \r params _patientId\r***"
      },
      "addPatientDateOfBirth(string,string)": {
        "notice": "**\r This function adds the patients date of birth\r params _patientMobileNumber -  patient patient date of birth\r params _patientId\r***"
      },
      "addPatientGender(string,string)": {
        "notice": "**\r This function adds the Gender of the Patient\r params _patientGender -  patient Mobile Number\r params _patientId\r***"
      },
      "addPatientMobileNumber(string,string)": {
        "notice": "**\r This function adds the patients Mobile Number\r params _patientMobileNumber -  patient Mobile Number\r params _patientId\r***"
      },
      "addPatientName(string,string)": {
        "notice": "**\r This function adds the patients Names \r params _name -  patient name\r params _patientId - patient'a generated Id.\r***"
      },
      "getPatientAddress(string)": {
        "notice": "**\r This function returns the patients Mobile Number\r params _patientId\r***"
      },
      "getPatientAllergies(string)": {
        "notice": "**\r This function returns the patients allergies  \r params _patientId\r***"
      },
      "getPatientDateOfBirth(string)": {
        "notice": "**\r This function returns the patients date of birth\r params _patientId\r***"
      },
      "getPatientGender(string)": {
        "notice": "**\r This function returns the patients Gender\r params _patientId\r***"
      },
      "getPatientMobileNumber(string)": {
        "notice": "**\r This function returns the patients Mobile Number\r params _patientId\r***"
      },
      "getPatientName(string)": {
        "notice": "**\r This function returns the patients Name\r params _patientId -  patient name\r***"
      }
    }
  }
}