{
  "contractName": "Records",
  "abi": [
    {
      "constant": false,
      "inputs": [
        {
          "internalType": "string",
          "name": "_patientId",
          "type": "string"
        },
        {
          "internalType": "string",
          "name": "_date",
          "type": "string"
        }
      ],
      "name": "addLastUpdated",
      "outputs": [],
      "payable": false,
      "stateMutability": "nonpayable",
      "type": "function",
      "signature": "0x0e4b889f"
    },
    {
      "constant": true,
      "inputs": [
        {
          "internalType": "string",
          "name": "_patientId",
          "type": "string"
        }
      ],
      "name": "getLastUpdated",
      "outputs": [
        {
          "internalType": "string",
          "name": "",
          "type": "string"
        }
      ],
      "payable": false,
      "stateMutability": "view",
      "type": "function",
      "signature": "0xdd1388c2"
    },
    {
      "constant": false,
      "inputs": [
        {
          "internalType": "string",
          "name": "_patientId",
          "type": "string"
        },
        {
          "internalType": "string",
          "name": "_currentMedicalDosage",
          "type": "string"
        }
      ],
      "name": "addCurrentMedicalDosage",
      "outputs": [],
      "payable": false,
      "stateMutability": "nonpayable",
      "type": "function",
      "signature": "0xa6c6608b"
    },
    {
      "constant": true,
      "inputs": [
        {
          "internalType": "string",
          "name": "_patientId",
          "type": "string"
        }
      ],
      "name": "getCurrentMedicalDosage",
      "outputs": [
        {
          "internalType": "string",
          "name": "",
          "type": "string"
        }
      ],
      "payable": false,
      "stateMutability": "view",
      "type": "function",
      "signature": "0x7c7b5ee8"
    },
    {
      "constant": false,
      "inputs": [
        {
          "internalType": "string",
          "name": "_patientId",
          "type": "string"
        },
        {
          "internalType": "string",
          "name": "_updatedBy",
          "type": "string"
        }
      ],
      "name": "addUpdatedBy",
      "outputs": [],
      "payable": false,
      "stateMutability": "nonpayable",
      "type": "function",
      "signature": "0x80a2ca0f"
    },
    {
      "constant": true,
      "inputs": [
        {
          "internalType": "string",
          "name": "_patientId",
          "type": "string"
        }
      ],
      "name": "getUpdatedBy",
      "outputs": [
        {
          "internalType": "string",
          "name": "",
          "type": "string"
        }
      ],
      "payable": false,
      "stateMutability": "view",
      "type": "function",
      "signature": "0xf2c6d3cc"
    },
    {
      "constant": false,
      "inputs": [
        {
          "internalType": "string",
          "name": "_patientId",
          "type": "string"
        },
        {
          "internalType": "string",
          "name": "_currentDiagnosis",
          "type": "string"
        }
      ],
      "name": "addCurrentDiagnosis",
      "outputs": [],
      "payable": false,
      "stateMutability": "nonpayable",
      "type": "function",
      "signature": "0xacd0afc9"
    },
    {
      "constant": true,
      "inputs": [
        {
          "internalType": "string",
          "name": "_patientId",
          "type": "string"
        }
      ],
      "name": "getCurrentDiagnosis",
      "outputs": [
        {
          "internalType": "string",
          "name": "",
          "type": "string"
        }
      ],
      "payable": false,
      "stateMutability": "view",
      "type": "function",
      "signature": "0x35cbe12c"
    },
    {
      "constant": false,
      "inputs": [
        {
          "internalType": "string",
          "name": "_patientId",
          "type": "string"
        },
        {
          "internalType": "string",
          "name": "_PDFreport",
          "type": "string"
        }
      ],
      "name": "addPDFreport",
      "outputs": [],
      "payable": false,
      "stateMutability": "nonpayable",
      "type": "function",
      "signature": "0xea7a757a"
    },
    {
      "constant": true,
      "inputs": [
        {
          "internalType": "string",
          "name": "_patientId",
          "type": "string"
        }
      ],
      "name": "getPDFreport",
      "outputs": [
        {
          "internalType": "string",
          "name": "",
          "type": "string"
        }
      ],
      "payable": false,
      "stateMutability": "view",
      "type": "function",
      "signature": "0xa0595e89"
    },
    {
      "constant": true,
      "inputs": [
        {
          "internalType": "string",
          "name": "_patientId",
          "type": "string"
        }
      ],
      "name": "getAllPDFReports",
      "outputs": [
        {
          "internalType": "string",
          "name": "",
          "type": "string"
        }
      ],
      "payable": false,
      "stateMutability": "view",
      "type": "function",
      "signature": "0x2324d520"
    }
  ],
  "bytecode": "0x608060405234801561001057600080fd5b50611a0c806100206000396000f3fe608060405234801561001057600080fd5b50600436106100c6576000357c010000000000000000000000000000000000000000000000000000000090048063a0595e891161008e578063a0595e891461070b578063a6c6608b1461083f578063acd0afc914610991578063dd1388c214610ae3578063ea7a757a14610c17578063f2c6d3cc14610d69576100c6565b80630e4b889f146100cb5780632324d5201461021d57806335cbe12c146103515780637c7b5ee81461048557806380a2ca0f146105b9575b600080fd5b61021b600480360360408110156100e157600080fd5b81019080803590602001906401000000008111156100fe57600080fd5b82018360208201111561011057600080fd5b8035906020019184600183028401116401000000008311171561013257600080fd5b91908080601f016020809104026020016040519081016040528093929190818152602001838380828437600081840152601f19601f8201169050808301925050505050505091929192908035906020019064010000000081111561019557600080fd5b8201836020820111156101a757600080fd5b803590602001918460018302840111640100000000831117156101c957600080fd5b91908080601f016020809104026020016040519081016040528093929190818152602001838380828437600081840152601f19601f820116905080830192505050505050509192919290505050610e9d565b005b6102d66004803603602081101561023357600080fd5b810190808035906020019064010000000081111561025057600080fd5b82018360208201111561026257600080fd5b8035906020019184600183028401116401000000008311171561028457600080fd5b91908080601f016020809104026020016040519081016040528093929190818152602001838380828437600081840152601f19601f820116905080830192505050505050509192919290505050610f22565b6040518080602001828103825283818151815260200191508051906020019080838360005b838110156103165780820151818401526020810190506102fb565b50505050905090810190601f1680156103435780820380516001836020036101000a031916815260200191505b509250505060405180910390f35b61040a6004803603602081101561036757600080fd5b810190808035906020019064010000000081111561038457600080fd5b82018360208201111561039657600080fd5b803590602001918460018302840111640100000000831117156103b857600080fd5b91908080601f016020809104026020016040519081016040528093929190818152602001838380828437600081840152601f19601f820116905080830192505050505050509192919290505050611129565b6040518080602001828103825283818151815260200191508051906020019080838360005b8381101561044a57808201518184015260208101905061042f565b50505050905090810190601f1680156104775780820380516001836020036101000a031916815260200191505b509250505060405180910390f35b61053e6004803603602081101561049b57600080fd5b81019080803590602001906401000000008111156104b857600080fd5b8201836020820111156104ca57600080fd5b803590602001918460018302840111640100000000831117156104ec57600080fd5b91908080601f016020809104026020016040519081016040528093929190818152602001838380828437600081840152601f19601f820116905080830192505050505050509192919290505050611237565b6040518080602001828103825283818151815260200191508051906020019080838360005b8381101561057e578082015181840152602081019050610563565b50505050905090810190601f1680156105ab5780820380516001836020036101000a031916815260200191505b509250505060405180910390f35b610709600480360360408110156105cf57600080fd5b81019080803590602001906401000000008111156105ec57600080fd5b8201836020820111156105fe57600080fd5b8035906020019184600183028401116401000000008311171561062057600080fd5b91908080601f016020809104026020016040519081016040528093929190818152602001838380828437600081840152601f19601f8201169050808301925050505050505091929192908035906020019064010000000081111561068357600080fd5b82018360208201111561069557600080fd5b803590602001918460018302840111640100000000831117156106b757600080fd5b91908080601f016020809104026020016040519081016040528093929190818152602001838380828437600081840152601f19601f820116905080830192505050505050509192919290505050611345565b005b6107c46004803603602081101561072157600080fd5b810190808035906020019064010000000081111561073e57600080fd5b82018360208201111561075057600080fd5b8035906020019184600183028401116401000000008311171561077257600080fd5b91908080601f016020809104026020016040519081016040528093929190818152602001838380828437600081840152601f19601f8201169050808301925050505050505091929192905050506113ca565b6040518080602001828103825283818151815260200191508051906020019080838360005b838110156108045780820151818401526020810190506107e9565b50505050905090810190601f1680156108315780820380516001836020036101000a031916815260200191505b509250505060405180910390f35b61098f6004803603604081101561085557600080fd5b810190808035906020019064010000000081111561087257600080fd5b82018360208201111561088457600080fd5b803590602001918460018302840111640100000000831117156108a657600080fd5b91908080601f016020809104026020016040519081016040528093929190818152602001838380828437600081840152601f19601f8201169050808301925050505050505091929192908035906020019064010000000081111561090957600080fd5b82018360208201111561091b57600080fd5b8035906020019184600183028401116401000000008311171561093d57600080fd5b91908080601f016020809104026020016040519081016040528093929190818152602001838380828437600081840152601f19601f82011690508083019250505050505050919291929050505061155f565b005b610ae1600480360360408110156109a757600080fd5b81019080803590602001906401000000008111156109c457600080fd5b8201836020820111156109d657600080fd5b803590602001918460018302840111640100000000831117156109f857600080fd5b91908080601f016020809104026020016040519081016040528093929190818152602001838380828437600081840152601f19601f82011690508083019250505050505050919291929080359060200190640100000000811115610a5b57600080fd5b820183602082011115610a6d57600080fd5b80359060200191846001830284011164010000000083111715610a8f57600080fd5b91908080601f016020809104026020016040519081016040528093929190818152602001838380828437600081840152601f19601f8201169050808301925050505050505091929192905050506115e4565b005b610b9c60048036036020811015610af957600080fd5b8101908080359060200190640100000000811115610b1657600080fd5b820183602082011115610b2857600080fd5b80359060200191846001830284011164010000000083111715610b4a57600080fd5b91908080601f016020809104026020016040519081016040528093929190818152602001838380828437600081840152601f19601f820116905080830192505050505050509192919290505050611669565b6040518080602001828103825283818151815260200191508051906020019080838360005b83811015610bdc578082015181840152602081019050610bc1565b50505050905090810190601f168015610c095780820380516001836020036101000a031916815260200191505b509250505060405180910390f35b610d6760048036036040811015610c2d57600080fd5b8101908080359060200190640100000000811115610c4a57600080fd5b820183602082011115610c5c57600080fd5b80359060200191846001830284011164010000000083111715610c7e57600080fd5b91908080601f016020809104026020016040519081016040528093929190818152602001838380828437600081840152601f19601f82011690508083019250505050505050919291929080359060200190640100000000811115610ce157600080fd5b820183602082011115610cf357600080fd5b80359060200191846001830284011164010000000083111715610d1557600080fd5b91908080601f016020809104026020016040519081016040528093929190818152602001838380828437600081840152601f19601f820116905080830192505050505050509192919290505050611777565b005b610e2260048036036020811015610d7f57600080fd5b8101908080359060200190640100000000811115610d9c57600080fd5b820183602082011115610dae57600080fd5b80359060200191846001830284011164010000000083111715610dd057600080fd5b91908080601f016020809104026020016040519081016040528093929190818152602001838380828437600081840152601f19601f820116905080830192505050505050509192919290505050611824565b6040518080602001828103825283818151815260200191508051906020019080838360005b83811015610e62578082015181840152602081019050610e47565b50505050905090810190601f168015610e8f5780820380516001836020036101000a031916815260200191505b509250505060405180910390f35b806000836040518082805190602001908083835b60208310610ed45780518252602082019150602081019050602083039250610eb1565b6001836020036101000a03801982511681845116808217855250505050505090500191505090815260200160405180910390206000019080519060200190610f1d929190611932565b505050565b60608060008090505b6000846040518082805190602001908083835b60208310610f615780518252602082019150602081019050602083039250610f3e565b6001836020036101000a03801982511681845116808217855250505050505090500191505090815260200160405180910390206004018054905081101561111f57816000856040518082805190602001908083835b60208310610fd95780518252602082019150602081019050602083039250610fb6565b6001836020036101000a0380198251168184511680821785525050505050509050019150509081526020016040518091039020600401828154811061101a57fe5b906000526020600020016040516020018083805190602001908083835b6020831061105a5780518252602082019150602081019050602083039250611037565b6001836020036101000a038019825116818451168082178552505050505050905001807f2c20000000000000000000000000000000000000000000000000000000000000815250600201828054600181600116156101000203166002900480156110fb5780601f106110d95761010080835404028352918201916110fb565b820191906000526020600020905b8154815290600101906020018083116110e7575b50509250505060405160208183030381529060405291508080600101915050610f2b565b5080915050919050565b60606000826040518082805190602001908083835b60208310611161578051825260208201915060208101905060208303925061113e565b6001836020036101000a03801982511681845116808217855250505050505090500191505090815260200160405180910390206003018054600181600116156101000203166002900480601f01602080910402602001604051908101604052809291908181526020018280546001816001161561010002031660029004801561122b5780601f106112005761010080835404028352916020019161122b565b820191906000526020600020905b81548152906001019060200180831161120e57829003601f168201915b50505050509050919050565b60606000826040518082805190602001908083835b6020831061126f578051825260208201915060208101905060208303925061124c565b6001836020036101000a03801982511681845116808217855250505050505090500191505090815260200160405180910390206001018054600181600116156101000203166002900480601f0160208091040260200160405190810160405280929190818152602001828054600181600116156101000203166002900480156113395780601f1061130e57610100808354040283529160200191611339565b820191906000526020600020905b81548152906001019060200180831161131c57829003601f168201915b50505050509050919050565b806000836040518082805190602001908083835b6020831061137c5780518252602082019150602081019050602083039250611359565b6001836020036101000a038019825116818451168082178552505050505050905001915050908152602001604051809103902060020190805190602001906113c5929190611932565b505050565b60606000826040518082805190602001908083835b6020831061140257805182526020820191506020810190506020830392506113df565b6001836020036101000a038019825116818451168082178552505050505050905001915050908152602001604051809103902060040160016000846040518082805190602001908083835b60208310611470578051825260208201915060208101905060208303925061144d565b6001836020036101000a03801982511681845116808217855250505050505090500191505090815260200160405180910390206004018054905003815481106114b557fe5b906000526020600020018054600181600116156101000203166002900480601f0160208091040260200160405190810160405280929190818152602001828054600181600116156101000203166002900480156115535780601f1061152857610100808354040283529160200191611553565b820191906000526020600020905b81548152906001019060200180831161153657829003601f168201915b50505050509050919050565b806000836040518082805190602001908083835b602083106115965780518252602082019150602081019050602083039250611573565b6001836020036101000a038019825116818451168082178552505050505050905001915050908152602001604051809103902060010190805190602001906115df929190611932565b505050565b806000836040518082805190602001908083835b6020831061161b57805182526020820191506020810190506020830392506115f8565b6001836020036101000a03801982511681845116808217855250505050505090500191505090815260200160405180910390206003019080519060200190611664929190611932565b505050565b60606000826040518082805190602001908083835b602083106116a1578051825260208201915060208101905060208303925061167e565b6001836020036101000a03801982511681845116808217855250505050505090500191505090815260200160405180910390206000018054600181600116156101000203166002900480601f01602080910402602001604051908101604052809291908181526020018280546001816001161561010002031660029004801561176b5780601f106117405761010080835404028352916020019161176b565b820191906000526020600020905b81548152906001019060200180831161174e57829003601f168201915b50505050509050919050565b6000826040518082805190602001908083835b602083106117ad578051825260208201915060208101905060208303925061178a565b6001836020036101000a038019825116818451168082178552505050505050905001915050908152602001604051809103902060040181908060018154018082558091505090600182039060005260206000200160009091929091909150908051906020019061181e929190611932565b50505050565b60606000826040518082805190602001908083835b6020831061185c5780518252602082019150602081019050602083039250611839565b6001836020036101000a03801982511681845116808217855250505050505090500191505090815260200160405180910390206002018054600181600116156101000203166002900480601f0160208091040260200160405190810160405280929190818152602001828054600181600116156101000203166002900480156119265780601f106118fb57610100808354040283529160200191611926565b820191906000526020600020905b81548152906001019060200180831161190957829003601f168201915b50505050509050919050565b828054600181600116156101000203166002900490600052602060002090601f016020900481019282601f1061197357805160ff19168380011785556119a1565b828001600101855582156119a1579182015b828111156119a0578251825591602001919060010190611985565b5b5090506119ae91906119b2565b5090565b6119d491905b808211156119d05760008160009055506001016119b8565b5090565b9056fea265627a7a72315820c4544cf0ac85c21895803d67743097c40d9b38c14d9d132bd09cd5af74cc54a464736f6c63430005110032",
  "source": "// SPDX-License-Identifier: GPL-3.0\r\n\r\npragma solidity >=0.5.1;\r\n\r\ncontract Records{\r\n    struct medicalRecord{\r\n        string lastUpdated;\r\n        string currentMedicalDosage;\r\n        string updatedBy; //doctors id\r\n        string currentDiagnosis;\r\n        string[] PDFreport;\r\n    }\r\n\r\n    mapping(string=>medicalRecord)patientAndRecord;\r\n    /****\r\n    addLastUpdated takes a parameter as input and update the time.\r\n    parameters: \r\n    _patientId\r\n    _date\r\n    ****/\r\n\r\n    function addLastUpdated(string memory _patientId, string memory _date) public {\r\n        //block.timestamp\r\n        patientAndRecord[_patientId].lastUpdated = _date;\r\n    }\r\n\r\n    /****\r\n    getLastUpdated takes a parameter as input and update the time.\r\n    parameters: \r\n    _patientId\r\n    ****/\r\n    \r\n    function getLastUpdated(string memory _patientId) public view returns(string memory){\r\n        return patientAndRecord[_patientId].lastUpdated;\r\n    }\r\n\r\n    /****\r\n    currentMedicalDosage takes parameter \r\n    _patientId\r\n    _dosage\r\n    ****/\r\n\r\n    function addCurrentMedicalDosage(string memory _patientId, string memory _currentMedicalDosage) public {\r\n        patientAndRecord[_patientId].currentMedicalDosage = _currentMedicalDosage;\r\n    }\r\n\r\n    /****\r\n    getCurrentMedicalDosage takes a parameter and returns the dosage\r\n    parameters: \r\n    _patientId\r\n    ****/\r\n    \r\n    function getCurrentMedicalDosage(string memory _patientId) public view returns(string memory){\r\n        return patientAndRecord[_patientId].currentMedicalDosage;\r\n    }\r\n\r\n    /****\r\n    addupdatedBy() takes parameter \r\n    _patientId\r\n    _updatedBy which stores the id of the doctor who updates the records.\r\n    ****/\r\n\r\n    function addUpdatedBy(string memory _patientId, string memory _updatedBy) public {\r\n        patientAndRecord[_patientId].updatedBy = _updatedBy;\r\n    }\r\n\r\n    /****\r\n    getUpdatedBy takes a parameter and returns the id of the doctor\r\n    parameters: \r\n    _patientId\r\n    ****/\r\n    \r\n    function getUpdatedBy(string memory _patientId) public view returns(string memory){\r\n        return patientAndRecord[_patientId].updatedBy;\r\n    }\r\n\r\n    /****\r\n    addCurrentDiagnosis() takes parameter \r\n    _patientId\r\n    _currentDiagnosis \r\n    ****/\r\n\r\n    function addCurrentDiagnosis(string memory _patientId, string memory _currentDiagnosis) public {\r\n        patientAndRecord[_patientId].currentDiagnosis = _currentDiagnosis;\r\n    }\r\n\r\n    /****\r\n    getUpdatedBy takes a parameter and returns the diagonsis that is currently given/ recently.\r\n    parameters: \r\n    _patientId\r\n    ****/\r\n    \r\n    function getCurrentDiagnosis(string memory _patientId) public view returns(string memory){\r\n        return patientAndRecord[_patientId].currentDiagnosis;\r\n    }\r\n\r\n    /****\r\n    addPDFreport() takes parameter \r\n    _patientId\r\n    _PDFreport which stores the id of the report that is stored in IPFS.\r\n    ****/\r\n\r\n    function addPDFreport(string memory _patientId, string memory _PDFreport) public {\r\n        patientAndRecord[_patientId].PDFreport.push(_PDFreport);\r\n    }\r\n\r\n    /****\r\n    getPDFreport takes a parameter and returns the report of the patient\r\n    parameters: \r\n    _patientId\r\n    ****/\r\n    \r\n    function getPDFreport(string memory _patientId) public view returns(string memory){\r\n        return patientAndRecord[_patientId].PDFreport[patientAndRecord[_patientId].PDFreport.length-1];\r\n    }\r\n    function getAllPDFReports(string memory _patientId) public view returns(string memory){\r\n        string memory allPDFreports;\r\n        for(uint i=0;i<patientAndRecord[_patientId].PDFreport.length;i++){\r\n            allPDFreports = string(abi.encodePacked(allPDFreports,', ',patientAndRecord[_patientId].PDFreport[i]));\r\n        }\r\n        return allPDFreports;\r\n    }\r\n}",
  "sourcePath": "C:\\Users\\Neeraj\\Desktop\\fetch folder\\Blockchain-Based-Medical-Health-Records\\src\\contracts\\Records.sol",
  "compiler": {
    "name": "solc",
    "version": "0.5.17+commit.d19bba13.Emscripten.clang"
  },
  "schemaVersion": "3.0.1",
  "updatedAt": "2022-07-22T10:36:32.989Z",
  "devdoc": {
    "methods": {}
  },
  "userdoc": {
    "methods": {
      "addCurrentDiagnosis(string,string)": {
        "notice": "** addCurrentDiagnosis() takes parameter  _patientId _currentDiagnosis ***"
      },
      "addCurrentMedicalDosage(string,string)": {
        "notice": "** currentMedicalDosage takes parameter  _patientId _dosage***"
      },
      "addLastUpdated(string,string)": {
        "notice": "** addLastUpdated takes a parameter as input and update the time. parameters:  _patientId _date***"
      },
      "addPDFreport(string,string)": {
        "notice": "** addPDFreport() takes parameter  _patientId _PDFreport which stores the id of the report that is stored in IPFS.***"
      },
      "addUpdatedBy(string,string)": {
        "notice": "** addupdatedBy() takes parameter  _patientId _updatedBy which stores the id of the doctor who updates the records.***"
      },
      "getCurrentDiagnosis(string)": {
        "notice": "** getUpdatedBy takes a parameter and returns the diagonsis that is currently given/ recently. parameters:  _patientId***"
      },
      "getCurrentMedicalDosage(string)": {
        "notice": "** getCurrentMedicalDosage takes a parameter and returns the dosage parameters:  _patientId***"
      },
      "getLastUpdated(string)": {
        "notice": "** getLastUpdated takes a parameter as input and update the time. parameters:  _patientId***"
      },
      "getPDFreport(string)": {
        "notice": "** getPDFreport takes a parameter and returns the report of the patient parameters:  _patientId***"
      },
      "getUpdatedBy(string)": {
        "notice": "** getUpdatedBy takes a parameter and returns the id of the doctor parameters:  _patientId***"
      }
    }
  }
}